:020000040800F2
:1000000000500020E1190008C9180008CB180008AA
:10001000CD180008CF180008D11800080000000013
:10002000000000000000000000000000D3180008DD
:10003000D518000800000000D7180008D9180008DB
:10004000291A0008291A0008291A0008291A000884
:10005000291A0008291A0008291A0008291A000874
:10006000291A0008291A0008291A0008291A000864
:10007000291A0008291A0008291A0008291A000854
:10008000E1180008F1180008291A0008291A0008C8
:10009000291A0008291A0008291A0008291A000834
:1000A000291A0008291A0008291A0008291A000824
:1000B000291A0008291A0008291A0008011900083D
:1000C00011190008291A0008291A0008291A00081D
:1000D000291A0008291A0008291A0008291A0008F4
:1000E000291A0008291A0008291A0008000000002F
:1000F0000000000000000000000000000000000000
:0C01000000000000000000005FF808F1A3
:10011000844641EA000313F0030349D1403A23D354
:100120000B6803604B6843608B688360CB68C36077
:100130000B6903614B6943618B698361CB69C3615F
:100140000B6A03624B6A43628B6A8362CB6AC36247
:100150000B6B03634B6B43638B6B8363CB6BC3632F
:1001600040304031403ADBD230320BD30B68036071
:100170004B6843608B688360CB68C360103010317C
:10018000103AF3D20C3205D351F8043B40F8043B4B
:10019000043AF9D2043208D0D2071CBF11F8013B4F
:1001A00000F8013B01D30B8803806046704700BF15
:1001B000082A13D38B07B1D010F00303AED0C3F1DC
:1001C0000403D21ADB071CBF11F8013B00F8013B06
:1001D000A4D331F8023B20F8023B9FE7043AD9D37D
:1001E000013A11F8013B00F8013BF9D20B7803709A
:1001F0004B7843708B7883706046704781F0004184
:1002000002E000BF83F0004330B54FEA41044FEAFB
:10021000430594EA050F08BF90EA020F1FBF54EA96
:10022000000C55EA020C7FEA645C7FEA655C00F032
:10023000E2804FEA5454D4EB5555B8BF6D420CDD03
:100240002C4480EA020281EA030382EA000083EA86
:10025000010180EA020281EA0303362D88BF30BD26
:1002600011F0004F4FEA01314FF4801C4CEA11317C
:1002700002D0404261EB410113F0004F4FEA0333DB
:100280004CEA133302D0524263EB430394EA050F66
:1002900000F0A780A4F10104D5F1200E0DDB02FAD5
:1002A0000EFC22FA05F2801841F1000103FA0EF269
:1002B000801843FA05F359410EE0A5F120050EF12F
:1002C000200E012A03FA0EFC28BF4CF0020C43FA60
:1002D00005F3C01851EBE37101F0004507D54FF06D
:1002E000000EDCF1000C7EEB00006EEB0101B1F5BD
:1002F000801F1BD3B1F5001F0CD349085FEA300003
:100300004FEA3C0C04F101044FEA445212F5800F0D
:1003100080F09A80BCF1004F08BF5FEA500C50F1AA
:10032000000041EB045141EA050130BD5FEA4C0C8D
:10033000404141EB0101013C28BFB1F5801FE9D2EA
:1003400091F0000F04BF01460020B1FA81F308BF0D
:100350002033A3F10B03B3F120020CDA0C3208DDD9
:1003600002F1140CC2F10C0201FA0CF021FA02F1B4
:100370000CE002F11402D8BFC2F1200C01FA02F124
:1003800020FA0CFCDCBF41EA0C019040E41AA2BF49
:1003900001EB0451294330BD6FEA04041F3C1CDA11
:1003A0000C340EDC04F11404C4F1200220FA04F031
:1003B00001FA02F340EA030021FA04F345EA0301DB
:1003C00030BDC4F10C04C4F1200220FA02F001FA9D
:1003D00004F340EA0300294630BD21FA04F029461F
:1003E00030BD94F0000F83F4801306BF81F48011B8
:1003F0000134013D4EE77FEA645C18BF7FEA655C2B
:1004000029D094EA050F08BF90EA020F05D054EAFC
:10041000000C04BF1946104630BD91EA030F1EBF01
:100420000021002030BD5FEA545C05D14000494105
:1004300028BF41F0004130BD14F580043CBF01F5F8
:10044000801130BD01F0004545F0FE4141F47001DE
:100450004FF0000030BD7FEA645C1ABF19461046B9
:100460007FEA655C1CBF0B46024650EA013406BFBA
:1004700052EA033591EA030F41F4002130BD00BF79
:1004800090F0000F04BF0021704730B54FF4806436
:1004900004F132044FF000054FF0000150E700BFB7
:1004A00090F0000F04BF0021704730B54FF4806416
:1004B00004F1320410F0004548BF40424FF0000103
:1004C0003EE700BF42004FEAE2014FEA31014FEA46
:1004D00002701FBF12F07F4393F07F4F81F0605195
:1004E000704732F07F4208BF704793F07F4F04BFE0
:1004F00041F40021704730B54FF4607401F00045BD
:1005000021F000411CE700BF50EA010208BF70471C
:1005100030B54FF000050AE050EA010208BF70470D
:1005200030B511F0004502D5404261EB41014FF476
:10053000806404F132045FEA915C3FF4D8AE4FF07E
:1005400003025FEADC0C18BF03325FEADC0C18BF61
:10055000033202EBDC02C2F1200300FA03FC20FAB2
:1005600002F001FA03FE40EA0E0021FA02F11444FF
:10057000BDE600BF70B54FF0FF0C4CF4E06C1CEA18
:1005800011541DBF1CEA135594EA0C0F95EA0C0F89
:1005900000F0DEF82C4481EA030621EA4C5123EAFC
:1005A0004C5350EA013518BF52EA033541F480112B
:1005B00043F4801338D0A0FB02CE4FF00005E1FBDE
:1005C00002E506F00042E0FB03E54FF00006E1FB28
:1005D00003569CF0000F18BF4EF0010EA4F1FF046B
:1005E000B6F5007F64F5407404D25FEA4E0E6D41AB
:1005F00046EB060642EAC62141EA55514FEAC520BC
:1006000040EA5E504FEACE2EB4F1FD0C88BFBCF537
:10061000E06F1ED8BEF1004F08BF5FEA500E50F1E8
:10062000000041EB045170BD06F0004646EA0101AE
:1006300040EA020081EA0301B4EB5C04C2BFD4EBE0
:100640000C0541EA045170BD41F480114FF0000ED9
:10065000013C00F3AB8014F1360FDEBF002001F047
:10066000004170BDC4F10004203C35DA0C341BDCC1
:1006700004F11404C4F1200500FA05F320FA04F093
:1006800001FA05F240EA020001F0004221F00041C7
:1006900010EBD37021FA04F642EB06015EEA430E3A
:1006A00008BF20EAD37070BDC4F10C04C4F120056A
:1006B00000FA04F320FA05F001FA04F240EA02001D
:1006C00001F0004110EBD37041F100015EEA430EEE
:1006D00008BF20EAD37070BDC4F1200500FA05F20E
:1006E0004EEA020E20FA04F301FA05F243EA02038D
:1006F00021FA04F001F0004121FA04F220EA02009C
:1007000000EBD3705EEA430E08BF20EAD37070BDE1
:1007100094F0000F0FD101F00046400041EB0101C1
:1007200011F4801F08BF013CF7D041EA060195F0A3
:10073000000F18BF704703F00046520043EB03035D
:1007400013F4801F08BF013DF7D043EA060370474A
:1007500094EA0C0F0CEA135518BF95EA0C0F0CD055
:1007600050EA410618BF52EA4306D1D181EA03019B
:1007700001F000414FF0000070BD50EA410606BF95
:100780001046194652EA430619D094EA0C0F02D1DA
:1007900050EA013613D195EA0C0F05D152EA03361F
:1007A0001CBF104619460AD181EA030101F000413D
:1007B00041F0FE4141F470014FF0000070BD41F086
:1007C000FE4141F4780170BD70B54FF0FF0C4CF460
:1007D000E06C1CEA11541DBF1CEA135594EA0C0F7F
:1007E00095EA0C0F00F0A7F8A4EB050481EA030ECC
:1007F00052EA03354FEA013100F088804FEA0333B3
:100800004FF0805545EA131343EA12634FEA022280
:1008100045EA111545EA10654FEA00260EF0004141
:100820009D4208BF964244F1FD0404F5407402D293
:100830005B084FEA3202B61A65EB03055B084FEA24
:1008400032024FF480104FF4002CB6EB020E75EB21
:10085000030E22BFB61A754640EA0C005B084FEA49
:100860003202B6EB020E75EB030E22BFB61A7546C6
:1008700040EA5C005B084FEA3202B6EB020E75EB11
:10088000030E22BFB61A754640EA9C005B084FEA89
:100890003202B6EB020E75EB030E22BFB61A754696
:1008A00040EADC0055EA060E18D04FEA051545EA85
:1008B00016754FEA06164FEAC30343EA52734FEA2E
:1008C000C2025FEA1C1CC0D111F4801F0BD141EAA7
:1008D00000014FF000004FF0004CB6E711F4801F0C
:1008E00004BF01430020B4F1FD0C88BFBCF5E06FEC
:1008F0003FF6AFAEB5EB030C04BFB6EB020C5FEAFC
:10090000500C50F1000041EB045170BD0EF0004E50
:100910004EEA113114EB5C04C2BFD4EB0C0541EA82
:10092000045170BD41F480114FF0000E013C90E67F
:1009300045EA060E8DE60CEA135594EA0C0F08BF43
:1009400095EA0C0F3FF43BAF94EA0C0F0AD150EA42
:1009500001347FF434AF95EA0C0F7FF425AF1046D5
:1009600019462CE795EA0C0F06D152EA03353FF4FD
:10097000FDAE1046194622E750EA410618BF52EA7A
:1009800043067FF4C5AE50EA41047FF40DAF52EA4E
:1009900043057FF4EBAE12E74FF0FF3C06E000BFEB
:1009A0004FF0010C02E000BF4FF0010C4DF804CDF8
:1009B0004FEA410C7FEA6C5C4FEA430C18BF7FEAB8
:1009C0006C5C1BD001B050EA410C0CBF52EA430CE6
:1009D00091EA030F02BF90EA020F0020704710F166
:1009E000000F91EA030F58BF994208BF90422CBFF5
:1009F000D8176FEAE37040F0010070474FEA410CEE
:100A00007FEA6C5C02D150EA013C07D14FEA430C0B
:100A10007FEA6C5CD6D152EA033CD3D05DF8040B7C
:100A2000704700BF8446104662468C4619466346AE
:100A300000E000BF01B5FFF7B7FF002848BF10F185
:100A4000000F01BD4DF808EDFFF7F4FF0CBF0120CA
:100A500000205DF808FB00BF4DF808EDFFF7EAFF46
:100A600034BF012000205DF808FB00BF4DF808ED01
:100A7000FFF7E0FF94BF012000205DF808FB00BFF6
:100A80004DF808EDFFF7CEFF94BF012000205DF880
:100A900008FB00BF4DF808EDFFF7C4FF34BF01208D
:100AA00000205DF808FB00BF4FEA410C7FEA6C5C58
:100AB00002D150EA013C0AD14FEA430C7FEA6C5C58
:100AC00002D152EA033C02D14FF0000070474FF0D0
:100AD000010070474FEA410212F5001215D211D5FC
:100AE0006FF47873B3EB625212D94FEAC12343F02B
:100AF000004343EA505311F0004F23FA02F018BFAD
:100B0000404270474FF00000704750EA013005D175
:100B100011F0004008BF6FF0004070474FF0000038
:100B2000704700BF0348044B834202D0034B03B11C
:100B300018477047E4060020E4060020000000008B
:100B40000548064B1B1AD90F01EBA301491002D02F
:100B5000034B03B118477047E4060020E406002069
:100B60000000000010B5064C237843B9FFF7DAFF08
:100B7000044B13B10448AFF300800123237010BD70
:100B8000E406002000000000389E000808B5054B70
:100B90001BB105490548AFF30080BDE80840FFF7E9
:100BA000CFBF00BF00000000E8060020389E00080C
:100BB00030B583B000F092FB0C4D002400942B461E
:100BC0000B4A0821182000F0E5FD2346094A272199
:100BD0000A2000F0A3FD00942B46074A2B21302069
:100BE00000F0D8FD00F084FB03B030BD28A300085E
:100BF000509E0008A8A00008609E000810B582B0B2
:100C000000F06CFB00230A4A27210A2000F086FD31
:100C10000124002000903F23E2B2194600F0EEFCD0
:100C200000F066FB04347F2CF3DD02B010BD00BF82
:100C3000A8A0000808B50231032909D8DFE801F0AF
:100C40001710020900230D4AC1B20A2000F066FD08
:100C500008BD00230A4AC1B20A2000F05FFDF7E791
:100C60000023084AC1B20A2000F058FDF0E7002333
:100C7000054AC1B20A2000F051FDE9E738A1000899
:100C8000F0A00008A8A0000880A1000808B50B7813
:100C9000C3F17F03984200DD08BD0A464978C1F1DF
:100CA0003F010023C9B2C0B200F038FDF4E70000F4
:100CB00070B582B0B9B90246174C1849204603F006
:100CC0000BF9174D002600962B46164A03214820A3
:100CD00000F060FD00962B4622460321662000F0BE
:100CE00059FD02B070BD0C4C0F4B1A680B492046E1
:100CF00003F0F2F80A4D002600962B460B4A162107
:100D00003C2000F047FD00962B4622461621662027
:100D100000F040FDE5E700BF04070020689E0008E2
:100D2000C8A100086C9E000814070020789E0008E7
:100D30002DE9F04F85B000F0BDFE10F0070F1AD07E
:100D4000DFF898B200F0B6FEA54BA3FB002323F01A
:100D5000030202EB9303984210D0A04B03934FF091
:100D6000000A5746D04656464FF0270940F245251F
:100D70004FF4B0748AE0DFF86CB2E3E7994B039369
:100D8000EDE74FF40051984801F05AF9002840F07F
:100D9000898085E06FF001014846FFF74BFF594617
:100DA0002046FFF773FF03992846FFF76FFF0024E3
:100DB00000943F237F221946204600F01FFC214665
:100DC0003846FFF775FF894B1B68BB420DDA874B2E
:100DD0001F600094864B874A16214B2000F0DAFCF6
:100DE00000F086FA05B0BDE8F08F01213846FFF724
:100DF0005FFFF5E701213846FFF75AFF9BE0002E21
:100E000009DD731E7C4A12F80390C9F127090136E7
:100E1000262E00DD002608F10108784B83FB08230D
:100E20004FEAE877C7EB630700213846FFF740FF3A
:100E3000002E00F083804FF0FF314846FFF7FAFEA6
:100E400059462046FFF722FF03992846FFF71EFF69
:100E5000002000903F237F22194600F0CFFB023C88
:100E600024B2023D2DB2002C7BDD002D40F3938097
:100E7000A1B24A1B93B2624802805A1E92B22D2A36
:100E800000F2A48019440CB200F032FA00F026FA05
:100E90004FF48051544801F0D3F800287FF471AF2B
:100EA00006B901263346052EA8BF0523C3F11F034B
:100EB0009C420ADC0B2C08DD09F117019BF801208C
:100EC000C2F13F029142BFF665AFAB4297DB0B2DFB
:100ED00095DD09F11702039B5B78C3F13F039A424A
:100EE0008DDBB9F1230F8ADD6FF001014846FFF772
:100EF000A1FE59462046FFF7C9FE03992846FFF791
:100F0000C5FE002400943F237F221946204600F0AE
:100F100075FB21463846FFF7CBFE344B1B68BB42BE
:100F2000BFF668AF314B1F600094314B314A162138
:100F30004B2000F02FFC00F0DBF953E7BAF1040F6F
:100F4000D4BF002101214846FFF774FE0AF1010ACF
:100F50004FFA8AFABAF1090F7FF772AF4FF0000A21
:100F60006EE700F0A7FD1E4CA4FB0023DB08A4FBEA
:100F70000324240904EB8404A3EB8404FC3424B28A
:100F800000F098FD10F0030F02D0DFF850B06CE7CE
:100F9000DFF850B069E700F08DFD114DA5FB00238F
:100FA000DB08A5FB03252D0905EB8505A3EB8505CE
:100FB00005F27D152DB200F07DFD10F0010F02D07D
:100FC000064B039354E7074B039351E72E339BB231
:100FD0002D2B3FF659AF254656E700BF94A00008D9
:100FE000CDCCCCCC68A00008000C01401407002038
:100FF000C8A10008889E000840A0000867666666D1
:101000000007002000B583B00E4B5A6942F0010280
:101010005A615B6903F001030193019B00221146B1
:10102000102000F0A7FD102000F0B4FD00221146B2
:10103000112000F09FFD112000F0ACFD03B05DF821
:1010400004FB00BF0010024000B589B000230493E8
:1010500005930693079303F1804303F504339A69DC
:1010600042F020029A619A6902F020020192019AEC
:101070009A6942F008029A619A6902F008020292A3
:10108000029A9A6942F004029A619B6903F0040390
:101090000393039B4FF4405304930123069304A945
:1010A000024800F0BFFE09B05DF804FB000C0140EF
:1010B00008B50B480B4B03600B4B43600023836068
:1010C000C3604FF48042026143618361C361036284
:1010D00001F034FB00B908BD00F07EF8FBE700BF6B
:1010E000A00700200054004050F80C0030B587B035
:1010F0000023029303930493059302682F4B9A42B3
:1011000001D007B030BD04462D4DAB6943F0080354
:10111000AB61AB6903F008030093009BC02302930B
:10112000122303930323059302A9264800F07AFEB5
:10113000EB6943F40013EB61EB6903F400130193D3
:10114000019B2148214B0360002343608360802280
:10115000C260036143618361C36100F03DFD30BB48
:10116000194BA3635C621A481A4B03601023436057
:10117000002383608022C260036143618361C36195
:1011800000F02AFDB0B9124B63635C620022114685
:101190001F2000F0EFFC1F2000F0FCFC0022114695
:1011A000202000F0E7FC202000F0F4FCA9E700F08C
:1011B00013F8D5E700F010F8E5E700BF0054004051
:1011C00000100240000C01405C070020800002403B
:1011D000180700206C00024072B6FEE700B591B01F
:1011E0002822002106A802F00FFF0023019302939A
:1011F000039304930593012206924FF480330793DF
:101200000A9202220D920E934FF4E0130F9306A858
:1012100002F074FA80B90F23019302210291002396
:1012200003934FF480620492059301A802F098FCA6
:1012300020B911B05DF804FBFFF7CEFFFFF7CCFF3C
:1012400008B500F019FCFFF7C9FFFFF7FDFEFFF737
:10125000D9FEFFF72DFF642000F032FC00F070F89B
:1012600000F03CF800F044F8FFF7A2FC07E0FFF7BD
:10127000C5FCFFF75DFD4FF4967000F021FC4FF4C4
:101280000051064800F0DCFE0028F0D04FF48051F9
:10129000024800F0D5FE0028F1D1E8E7000C01403B
:1012A00000B583B002460B464FF0FF3100917A2122
:1012B000024801F021FB03B05DF804FBA007002009
:1012C00000B583B00023ADF804308DF8050002218D
:1012D00001A8FFF7E5FF03B05DF804FB08B54FF484
:1012E00080620021014802F08FFE08BD7C080020CA
:1012F00038B5104B40221A70002418E0A4F15000B9
:10130000C0B2FFF7DDFF0220FFF7DAFF1020FFF782
:10131000D7FF094D8022094901EBC4112846FEF789
:10132000F7FE8121681EFFF7BBFF0134E4B2072CF2
:10133000E4D938BDF8070020F90700207C08002018
:1013400008B5AE20FFF7BCFF0220FFF7B9FF102061
:10135000FFF7B6FF4020FFF7B3FFB020FFF7B0FF65
:101360008120FFF7ADFFCF20FFF7AAFFA120FFF7F5
:10137000A7FFA620FFF7A4FFA820FFF7A1FF3F20AB
:10138000FFF79EFFAD20FFF79BFF8B20FFF798FF35
:101390003320FFF795FFC820FFF792FFD320FFF718
:1013A0008FFF0020FFF78CFFD520FFF789FFC020BB
:1013B000FFF786FFD920FFF783FF1F20FFF780FF8D
:1013C000DA20FFF77DFF1220FFF77AFFDB20FFF71F
:1013D00077FF4020FFF774FFFFF780FFFFF788FFDC
:1013E000AF20FFF76DFF08BD10F0800F1FD13F2920
:1013F0001DD86AB9CA080E4B03EBC2131A5C01F080
:1014000007014FF0010C0CFA01F10A431A5470471E
:10141000CB08074A02EBC31212F800C001F0070123
:1014200001238B40DB435BB20CEA03031354704788
:101430007C08002030B59DF8104007282FD811F007
:10144000800F2CD10CB1D243D2B29DF80C400134A4
:10145000FF2505FA04F464B252B244EA020CC3F167
:10146000080E45FA0EF54CEA050C5FFA8CFC0C4DA3
:1014700085F800C00B4B03EBC010435C0CEA030C77
:1014800000F801C022EA04036FF0FF0242FA0EF2F4
:101490001340DBB22B704CEA030C00F801C030BDE6
:1014A000F50700207C0800202DE9F04383B00646B4
:1014B00090461C469DF82890CF0801F007052B4464
:1014C000082B1EDDAA40CDF80490072300932B467D
:1014D000D2B201463846FFF7ADFFC5F1080248FA1F
:1014E00002F22C44E4B2CDF80490093CE4B200943A
:1014F0000023D2B23146781CFFF79CFF03B0BDE851
:10150000F083AA402C44E4B2CDF80490013CE4B24C
:1015100000942B46D2B201463846FFF78BFFEDE729
:101520002DE9F04182B0064615469846CF0801F0F5
:101530000704A2400193072300932346D2B2014639
:101540003846FFF777FF14B902B0BDE8F081C4F167
:10155000080345FA03F2CDF80480013CE4B200949C
:101560000023D2B23146781CFFF764FFECE72DE987
:10157000F04F85B08046894692461E469DF8383029
:101580009DF83CB0DF0803F00702029200250393A8
:1015900012E006FB045209EBC40105EB08005B46B0
:1015A0001AF80220C9B2C0B2FFF7BAFF0134E4B2A0
:1015B000BC42EED30135EDB2B54201D20024F7E7CB
:1015C000039B029ABAB106FB07F700241D4610E000
:1015D0003A1925F00701494404EB0800CDF800B0A2
:1015E000029B1AF80220C9B2C0B2FFF75DFF0134B6
:1015F000E4B2B442ECD305B0BDE8F08F2DE9F04F72
:1016000085B005460C4699469DF83870904224D026
:101610009046994234D0111A09B2181B002940DDB6
:1016200001230193002840DD012302932DB224B24F
:101630000029B8BF49421FFA81FA09B20028B8BF91
:1016400040421FFA80FB00B2814248DC0026CDF800
:101650000CB0DDF8088083464AE099420BD92E4A47
:1016600011701C46894606E03A4621462846FFF797
:10167000BBFE0134E4B2A145F6D205B0BDE8F08F5F
:1016800090420BD9244B18701546804606E03A4626
:1016900021462846FFF7A8FE0135EDB2A845F6D24F
:1016A000EBE74FF0FF330193BCE74FF0FF330293BA
:1016B000BCE74D442DB24545DFD03A46E1B2E8B231
:1016C000FFF792FE5E44B3B236B2BAEB460FF0DCDF
:1016D000029A144424B2039A9B1A1EB2E9E7002628
:1016E000CDF80CA0DDF804908A46E4E7444424B227
:1016F0004C45C2D03A46E1B2E8B2FFF775FE564417
:10170000B3B236B2BBEB460FF0DC019A15442DB2F2
:10171000039A9B1A1EB2E9E7F407002010B582B0C5
:1017200054780193009413785268FFF720FF02B0B9
:1017300010BD70B582B05D68203A1C7804F1070CCA
:101740004FEAEC0C5B7803FB0CFC9DF818600196EB
:1017500000940CFB0252FFF70AFF02B070BD037841
:1017600090F90020002A0DDA03F0E002C02A0BD025
:1017700003F0F002E02A09D003F0F803F02B07D0C1
:1017800000207047012070470220704703207047F7
:10179000042070472DE9F04F87B0039004919346E1
:1017A0001E469DF84030059333780733DB1096F8DA
:1017B000019003FB09F95FFA89F909F104095FFA5D
:1017C00089F94FF0000A15E03378059A01920093E9
:1017D00073782A1D0499039C2046FFF7C8FE73788E
:1017E0002344DBB20393C2441FFA8AFA012300E0C8
:1017F0000023E3B10BEB0A071BF80A30002B3ED0A5
:101800003846FFF7ACFF8046002838D00024337AF2
:10181000A342EDD9756809FB04554246294638466E
:1018200002F0C4FB0028CFD00134E4B2EFE7B8F1F6
:10183000010F11D0059B0093F36820220499039CAB
:101840002046FFF776FFF3685B782344DBB203930F
:10185000D0441FFA88FACDE7059B0093F3681BF884
:101860000A200499039C2046FFF763FFF3685B7826
:101870002344DBB20393C2441FFA8AFABAE707B0E3
:10188000BDE8F08F82B00E4B9A6942F001029A6176
:101890009A6902F001020092009ADA6942F08052DD
:1018A000DA61DB6903F080530193019B054A5368B9
:1018B00023F0E06343F00073536002B0704700BF51
:1018C0000010024000000140FEE7FEE7FEE7FEE7F1
:1018D000FEE770477047704708B500F0DFF808BDB5
:1018E00008B5024800F0F8F908BD00BF180700204D
:1018F00008B5024800F0F0F908BD00BF5C07002001
:1019000008B5024801F0ACFD08BD00BFA0070020EB
:1019100008B5024801F074FE08BD00BFA007002012
:101920000120704708B502F013FC162303604FF046
:10193000FF3008BD08B54FF0FF31FFF7F3FFFEE7BA
:1019400070B50C461646002506E0AFF30080214630
:1019500001F8010B01350C46B542F6DB304670BD8F
:1019600070B50C461646002504E014F8010BAFF3E1
:1019700000800135B542F8DB304670BD4FF0FF30D6
:1019800070474FF400534B600020704701207047B0
:101990000020704710B503460C4A0D490D480068F9
:1019A00040B10C4800680344521A934206D8094AD1
:1019B000136010BD0748084C0460F2E702F0C8FB52
:1019C0000C2303604FF0FF30F3E700BF005000200E
:1019D000000400007C0C0020980F002070470000DD
:1019E000FFF7FCFF0B480C490C4A002302E0D458D7
:1019F000C4500433C4188C42F9D3094A094C00235B
:101A000001E013600432A242FBD302F0A7FBFFF710
:101A100017FC704700000020E406002028B10008F1
:101A2000E4060020980F0020FEE7000010B50446F1
:101A30000E4B1A784FF47A73B3FBF2F30C4A10682A
:101A4000B0FBF3F000F0B4F868B90F2C01D9012015
:101A50000AE0002221464FF0FF3000F08BF8054BE2
:101A60001C60002000E0012010BD00BF0400002029
:101A7000000000200800002008B5074A136843F062
:101A800010031360032000F063F80F20FFF7CEFF70
:101A9000FFF7F8FE002008BD00200240034A11684D
:101AA000034B1B780B441360704700BF800C002071
:101AB00004000020014B1868704700BF800C002014
:101AC00038B50446FFF7F6FF0546B4F1FF3F02D0F4
:101AD000044B1B781C44FFF7EDFF401BA042FAD3D8
:101AE00038BD00BF04000020002808DB0901C9B28E
:101AF00000F1604000F5614080F80013704700F08D
:101B00000F000901C9B2014B1954704714ED00E0F0
:101B100000B500F00700C0F1070CBCF1040F28BFAE
:101B20004FF0040C031D062B0FD9C31E4FF0FF3ED0
:101B30000EFA0CF021EA000199400EFA03FE22EAA7
:101B40000E0241EA02005DF804FB0023EEE700000C
:101B5000074AD36823F4E0631B041B0C000200F463
:101B6000E060034343F0BF6343F40033D360704746
:101B700000ED00E010B50446054BD868C0F3022024
:101B8000FFF7C6FF01462046FFF7AEFF10BD00BFBE
:101B900000ED00E0002807DB00F01F0240090123F0
:101BA0009340024A42F82030704700BF00E100E055
:101BB0000138B0F1807F0BD24FF0E0235861054A25
:101BC000F02182F823100020986107221A617047E3
:101BD0000120704700ED00E050B310B402460168E8
:101BE000144B0B441448A0FB03031B099B00136414
:101BF000124BD363022382F8213008686FF30D1073
:101C0000536894682343D468234314692343546975
:101C1000234394692343D469234303430B60002087
:101C20009063012382F8213082F8200010BC7047B5
:101C300001207047F8FFFDBFCDCCCCCC00000240A6
:101C400008B590F82130DBB2022B03D00423836364
:101C5000012008BD0268136823F00E0313600268B8
:101C6000136823F0010313600368194A934214D0E8
:101C7000143293421FD0143293421ED01432934236
:101C80001ED0143293421ED01432934202D04FF031
:101C9000807203E04FF4801200E001220D4B5A6085
:101CA000012380F82130002380F82030436B6BB192
:101CB00098470020CDE71022F0E74FF48072EDE75F
:101CC0004FF48052EAE74FF48032E7E70020C0E7A4
:101CD000080002400000024038B5C36B1A6804686F
:101CE0002568016C04238B40134235D015F0040F96
:101CF00032D0236813F0200F03D1236823F00403AC
:101D000023600368434A934214D01432934218D09C
:101D10001432934217D01432934217D014329342A4
:101D200017D01432934202D04FF0806203E04FF498
:101D3000800200E00422384B5A60C36A03B198471E
:101D400038BD4022F7E74FF48062F4E74FF4804259
:101D5000F1E74FF48022EEE702238B4013423CD0A0
:101D600015F0020F39D0236813F0200F06D1236835
:101D700023F00A032360012380F821300368254AF9
:101D8000934214D0143293421CD0143293421BD08D
:101D9000143293421BD0143293421BD0143293421C
:101DA00002D04FF0007203E04FF4001200E0022274
:101DB000194B5A60002380F82030836A002BBFD073
:101DC0009847BDE72022F3E74FF40072F0E74FF4A5
:101DD0000052EDE74FF40032EAE708238B4013424C
:101DE000AED015F0080FABD0236823F00E032360AC
:101DF000026CC16B012303FA02F24A60836380F82C
:101E00002130002380F82030036B002B98D09847B6
:101E100096E700BF080002400000024090F8210051
:101E20007047000070B582B00024A446A1E07E4D4A
:101E3000AB4214D00CD8A5F58015AB420FD005F5F8
:101E40007025AB420BD0A5F58015AB4210D106E052
:101E5000764DAB4203D005F58035AB4208D18B6897
:101E6000002B50D0012B49D04261082400E0CC68FF
:101E7000BEF1FF0F49D806464FEA8C0233680F25A2
:101E8000954023EA050304FA02F2134333604B68DA
:101E900013F0805F6BD0664B9A6942F001029A6141
:101EA0009B6903F001030193019B4FEA9C02951C7F
:101EB000604B53F825600CF00305AD000F23AB40D9
:101EC00026EA03065C4B984226D003F580639842CD
:101ED00000F08C8003F58063984200F0898003F560
:101EE0008063984216D0042317E0CC680434BFE71F
:101EF000CC680834BCE7CC680C34B9E7026108242C
:101F0000B6E70024B4E70424B2E7061DACF10802EA
:101F10009200B3E7032300E00023AB4033430232D7
:101F2000444D45F822304B6813F4801F62D0434A79
:101F3000936843EA0E0393604B6813F4001F5FD06D
:101F40003E4AD36843EA0E03D3604B6813F4003F64
:101F50005CD03A4A536843EA0E0353604B6813F46B
:101F6000803F59D0354A136843EA0E0313600CF1E1
:101F7000010C0B6833FA0CF254D0012202FA0CF275
:101F800003EA020E32EA0303F1D14B68122B3FF64B
:101F90004EAF122B3FF66CAF01A555F823F000BFF2
:101FA0005F1E00086F1E0008F11E0008031F0008D6
:101FB000711E0008711E0008711E0008711E0008C5
:101FC000711E0008711E0008711E0008711E0008B5
:101FD000711E0008711E0008711E0008711E0008A5
:101FE000711E0008EB1E0008F71E0008012394E78D
:101FF000022392E7114A936823EA0E0393609BE75A
:102000000E4AD36823EA0E03D3609EE70B4A536857
:1020100023EA0E035360A1E7084A136823EA0E037C
:102020001360A4E702B070BD000022100000311060
:10203000001002400000014000080140000401407F
:102040008368194201D0012070470020704703685F
:102050005A6912F0800F01D000221A61704790F87F
:102060003E30DBB2402B10D00369B3F5804F1BD05C
:10207000036D002B39D1436CC3F3C813026803F01E
:10208000060343F0F00313617047036D2BB9436CF3
:10209000026803F0FE0313617047436C026843F06B
:1020A0000103DBB21361704790F83D30DBB2212BA6
:1020B0000FD0436C026843F00103DBB21361436B42
:1020C0006BB19B6A5BB10268536843F40063536071
:1020D0007047436C026803F0FE031361EFE7836B04
:1020E00033B19B6A002BEED102E0036D012B00D0CF
:1020F0007047436CC3F3C813026803F0060343F050
:10210000F1031361F4E7436C0268DBB21361436BC4
:102110003BB19B6A2BB10268536843F40063536080
:102120007047836B002BFBD09B6A002BF3D1F7E742
:1021300010B48DB090F83E30DAB2C16A046B90F8FA
:102140003D30DBB2222B0AD000230B9303685A697F
:102150000B929B690B930B9B0DB010BC7047036DEA
:102160000BB9402A17D0036D1BB90369B3F5404F73
:1021700019D0438D9BB2002B25D1039303685A6974
:1021800003929A690392039A1A6842F400721A60E1
:1021900000230365E0E7019303685A6901929B6994
:1021A0000193019BD8E70023029303685A690292C6
:1021B0009A690292029A1A6842F480721A60036D58
:1021C00001330365C8E7438D9BB2012B26D0438DB5
:1021D0009BB2022B7CD00268136843F480631360C7
:1021E00003685A6812F4006F0FD0202900F2B980FA
:1021F0000829C0F0B28008395C4ACA4012F0010FC9
:1022000003D05A6842F480525A6000230A9303684C
:102210005A690A929B690A930A9BB9E711F5803FB4
:1022200011D0082934D0202932D0122C2ED00429E4
:1022300040D002293ED010293CD00268136823F414
:10224000806313603BE00268136823F480631360CB
:1022500003685A6812F4006F0CD01A6822F4806286
:102260001A600023049303685A6904929B690493DB
:10227000049B8DE7002205925A6905929A6905929E
:10228000059A1A6842F400721A6081E70129D0D0D9
:102290000268136823F480631360002307930368C4
:1022A0005A6907929A690792079A1A6842F400726B
:1022B0001A606DE70268136843F4806313600023BB
:1022C000069303685A6906929B690693069B5FE72B
:1022D000102912D8264BCB4013F0010F0DD0026805
:1022E000136843F4806313600023099303685A69F9
:1022F00009929B690993099B10E00268136843F4F3
:10230000006313600023089303685A6908929A696E
:102310000892089A1A6822F480621A6003685A6860
:1023200012F4006F3FF434AF202911D808290BD3E1
:1023300008390E4ACA4012F0010F3FF429AF5A681B
:1023400042F480525A6023E701297FF421AFF6E777
:1023500011F5803F7FF41CAFF1E701297FF455AF01
:102360004FE711F5803F7FF450AF4AE701010001CC
:1023700014000100438D9BB25BB1426A036812787E
:102380001A61436A01334362438D9BB2013B9BB2A6
:1023900043857047438D9BB25BB103681A69436AFA
:1023A0001A70436A01334362438D9BB2013B9BB277
:1023B0004385704782B0002301930E4B1B68DB08F6
:1023C0000D4AA2FB03231B0A03EB83030193019B2A
:1023D000013B0193019B33B103681B6813F4007F39
:1023E000F5D1002004E0036C43F0200303640120D6
:1023F00002B070470000002089B5F81403685A69DC
:1024000012F4806F01D1002070476FF480625A612E
:1024100000230363202280F83D2080F83E30026CC8
:1024200042F00402026480F83C3001207047C36A25
:10243000B3F52A0F04D0C36AB3F12A4F03D0704713
:102440000123C36270470823C362F8E72DE9F04116
:1024500006460C46174698463BE0FFF72BFB069BCB
:10246000C01A404502D8B8F1000F32D1012D18D062
:1024700033689B6924EA03039BB2B3FA83F35B09D5
:102480009F4226D100233363202286F83D2086F820
:102490003E30326C42F02002326486F83C3001203B
:1024A00027E033685B6924EA03039BB2B3FA83F342
:1024B0005B09E5E733685B6924EA030C1FFA8CFCCF
:1024C000BCFA8CFC4FEA5C1C674511D1B8F1FF3FA8
:1024D000C3D1C4F30745012DECD033689B6924EACE
:1024E000030C1FFA8CFCBCFA8CFC4FEA5C1CEBE77B
:1024F0000020BDE8F0812DE9F84305460E469046E0
:10250000994653E01A6842F400721A602B686FF41F
:1025100080625A6100232B63202285F83D2085F8D4
:102520003E302A6C42F004022A6485F83C300120D7
:102530004AE0FFF7BFFAA0EB0900404502D8B8F126
:10254000000F33D1012F17D02B689B6926EA0303B4
:102550009BB2003B18BF012343B300232B6320220F
:1025600085F83D2085F83E302A6C42F020022A642E
:1025700085F83C30012027E02B685B6926EA0303DD
:102580009BB2003B18BF0123E6E72B689C6926EA53
:102590000404A4B2003C18BF0124A4B12B685A69FA
:1025A00012F4806FAED1B8F1FF3FC2D1C6F3074736
:1025B000012FEAD12B685C6926EA0404A4B2003C2E
:1025C00018BF0124E9E70020BDE8F883F0B583B027
:1025D00004460D4616461F46C36A082B0DD0012B34
:1025E0000BD013F5803F08D0036B122B0AD1026881
:1025F000136843F48073136004E02268136843F4A3
:10260000807313600097334600224FF0011120467B
:10261000FFF71CFF80B92369B3F5804F16D12368FB
:1026200005F0FE051D613B46324613492046FFF783
:1026300062FFF8B903B0F0BD23681B6813F4807F14
:1026400002D04FF4007323640320F3E7EB112268F8
:1026500003F0060343F0F00313613B46324607499B
:102660002046FFF748FF18B92368EDB21D61DAE78D
:102670000120DFE70120DDE7020001000800010082
:1026800070B504460D46164623685B6913F0800F4B
:1026900021D12046FFF7B2FEF8B9B5F1FF3FF3D0E4
:1026A000FFF708FA801BA84201D8002DECD123685F
:1026B0005B6913F0800FE7D100232363202284F8A5
:1026C0003D2084F83E30226C42F02002226484F8DF
:1026D0003C30012000E0002070BD0120FCE770B517
:1026E00004460D46164623685B6913F0040F21D19A
:1026F0002046FFF783FEF8B9B5F1FF3FF3D0FFF7AF
:10270000D9F9801BA84201D8002DECD123685B6960
:1027100013F0040FE7D100232363202284F83D2027
:1027200084F83E30226C42F02002226484F83C306F
:10273000012000E0002070BD0120FCE7002800F02F
:10274000CC8070B5044690F83D30002B77D0242320
:1027500084F83D302268136823F001031360226877
:10276000136843F4004313602268136823F40043A2
:10277000136001F0B1FA62685A4B9A4264D85A4B1E
:1027800098428CBF00230123002B40F0A8805749BA
:10279000A1FB00318B0C25686A6822F03F0242EAF7
:1027A00091426A6021680A6A22F03F0266684D4DD4
:1027B000AE424FD8013313430B622168CA6922F439
:1027C0004F4222F0FF026568464B9D424CD8431EA3
:1027D0006D00B3FBF5F3013340F6FC70034278D093
:1027E000C3F30B031A43CA6121680B6823F0C003CB
:1027F000E269206A024313430B6021688B6823F46B
:10280000034323F0FF032269E068024313438B6014
:102810002168CB6823F0FF036269A0690243134378
:10282000CB602268136843F001031360002020642A
:10283000202384F83D30206384F83E0070BD80F88A
:102840003C30FEF753FC82E7294B98428CBF0023B3
:10285000012399E74FF4967505FB03F3254DA5FB7E
:1028600003539B090133A6E7A668BEB9431E05EBD7
:10287000450CB3FBFCF30133C3F30B03B3FA83F34F
:102880005B0943BBC6B9431E05EB4505B3FBF5F336
:102890000133C3F30B0343F40043A3E7431E05EBEB
:1028A000850C0CEB8C0CB3FBFCF30133C3F30B0373
:1028B000B3FA83F35B09E4E7431E05EB850505EBFB
:1028C0008505B3FBF5F30133C3F30B0343F4404336
:1028D00088E7042386E7012384E70120704701206D
:1028E000ACE700BFA08601007F841E0083DE1B438F
:1028F000FF083D00D34D62102DE9F04385B004463A
:102900000F46914698460C9EFFF7D4F8054694F87A
:102910003D00C0B2202804D00227384605B0BDE8EB
:10292000F0830095192301224F492046FFF78EFDC1
:10293000002840F0928094F83C30012B00F08F800A
:10294000012384F83C3023681A6812F0010F03D188
:102950001A6842F001021A602268136823F40063C7
:102960001360212384F83D30102384F83E30002387
:102970002364C4F82490A4F82A80638D23853B4BFC
:10298000E3622B46324639462046FFF71FFE0746D4
:10299000002866D10023039323685A6903929B6938
:1029A0000393039B11E0236C042B01D00127B4E7B0
:1029B0002268136843F400731360F7E72A46314630
:1029C0002046FFF78CFE00282ED1238D002B36D019
:1029D0002A4631462046FFF753FE0028E3D1626ABB
:1029E000236812781A61606A431C6362618D89B240
:1029F000013989B26185238D013B9BB22385226811
:102A0000516911F0040FD9D0002BD7D0437813614E
:102A1000636A01336362638D9BB2013B9BB2638542
:102A2000238D013B2385C9E7236C042B01D00127AB
:102A300073E72268136843F400731360F7E72268B2
:102A4000136843F400731360202384F83D3000239F
:102A500084F83E3084F83C305FE702275DE70227C8
:102A60005BE7012759E700BF020010000000FFFFED
:102A700070477047704708B590F83D30DAB2438D23
:102A80009BB283B1416A036809781961436A0133D3
:102A90004362438D9BB2013B9BB24385438D9BB206
:102AA0000BB9292A00D008BD0268536823F480635B
:102AB000536021230363282380F83D30FFF7DAFFBA
:102AC000F1E7704708B590F83D30DAB2438D9BB21C
:102AD00083B103681969436A1970436A0133436219
:102AE000438D9BB2013B9BB24385438D9BB20BB997
:102AF0002A2A00D008BD0268536823F4806353601B
:102B000022230363282380F83D30FFF7DAFFF1E743
:102B1000704700B583B090F83D3003F02803282BB0
:102B20000CD00023019302685169019192690192CE
:102B3000019A80F83C3003B05DF804FB02685368EA
:102B400023F48063536011F0040F0BD0002311F0C5
:102B5000800F09D18289002180F83C101946FFF7C7
:102B6000D7FFE8E70123F2E7028BF4E770470000A4
:102B700010B5044690F83D30DBB2C26A082A01D095
:102B8000202A01D1282B06D0212B1FD023686FF4D7
:102B900080625A6110BD1D4BE3622268536823F4C2
:102BA000E063536023686FF480625A61226813689F
:102BB00023F48063136000232363202284F83D20E4
:102BC00084F83E302046FFF7D1FFE3E70F4BE36286
:102BD00021232363202384F83D30002384F83E30F2
:102BE0002268536823F4E063536023686FF48062C3
:102BF0005A612268136823F4806313602046FFF74C
:102C000026FA2046FFF736FFC4E700BF0000FFFFAB
:102C1000704708B5C26A90F83D30DBB2212B00D076
:102C200008BD438D9BB263B1426A036812781A6192
:102C3000436A01334362438D9BB2013B9BB24385A0
:102C4000EEE7082A04D0202A02D012F5803F19D1DD
:102C50000268536823F4E06353600268136843F426
:102C60000073136000230363202380F83D3090F845
:102C70003E30DBB2402B15D0002380F83E30FFF70A
:102C8000F7FECDE70268536823F4E0635360112335
:102C90000363002380F83E30202380F83D30FFF7A7
:102CA000E7FEBDE7002380F83E30FFF7B1FFB7E74E
:102CB00008B590F83D30026D9AB9C36C012B08D06D
:102CC000836C0268C3F307231361036D013303654B
:102CD00008BD836C0268DBB21361036D02330365C8
:102CE000F6E7DBB2026D012A23D0026D022A3ED143
:102CF000222B26D0428D92B20AB1212B2AD0428DAE
:102D000092B2002AE4D1212BE2D10268536823F465
:102D1000E06353600268136843F400731360002398
:102D20000363202280F83D2080F83E30FFF770FFDB
:102D3000CEE7836C0268DBB21361036D0133036578
:102D4000C6E70268136843F480731360036D0133B0
:102D50000365BDE7426A036812781A61436A01336A
:102D60004362438D9BB2013B9BB24385B0E7FFF7C3
:102D70006EF9ADE710B590F83D30DBB290F83E202B
:102D8000D2B2C46A018D00293BD1212B02D0402A46
:102D900042D010BD082C04D0202C02D014F5803F66
:102DA00019D10268536823F4E06353600268136822
:102DB00043F40073136000230363202380F83D3045
:102DC00090F83E30DBB2402B15D0002380F83E3027
:102DD000FFF74EFEDDE70268536823F4E0635360BB
:102DE00011230363002380F83E30202380F83D3018
:102DF000FFF73EFECDE7002380F83E30FFF708FFE7
:102E0000C7E7212BC3D1438D9BB243B902685368F6
:102E100023F480635360BCE7222BBAD1F3E790F828
:102E20003E30DBB2402B0CD0426A036812781A6144
:102E3000436A01334362438D9BB2013B9BB243859E
:102E4000A7E7FFF735FFA4E7704708B5C26A438DCF
:102E50009BB2042B14D0438D9BB2032B22D0438D05
:102E60009BB2022B39D003681A69436A1A70436A0D
:102E700001334362438D9BB2013B9BB2438510E01B
:102E80000268536823F48063536003681A69436AD5
:102E90001A70436A01334362438D9BB2013B9BB27C
:102EA000438508BD01684B6823F480634B60042AA6
:102EB00006D0022A04D00268136823F480631360EA
:102EC00003681A69436A1A70436A01334362438D87
:102ED0009BB2013B9BB24385E3E7013A0F2A40D8FE
:102EE000DFE802F008393F393F3F3F3F3F3F3F3F78
:102EF0003F3F3F080268136823F480631360036850
:102F00001A69436A1A70426A531C4362438D9BB22A
:102F1000013B9BB2438503681B695370436A0133CD
:102F20004362438D9BB2013B9BB243850268536869
:102F300023F440735360202380F83D3090F83E30F6
:102F4000DBB2402B13D0002380F83E301223036302
:102F5000FFF78FFDA5E70268136843F480631360F1
:102F6000CDE70268136843F400731360C7E70023DA
:102F700080F83E300363FFF767FF92E7704790F8F1
:102F80003D30DBB2222B00D0704710B50446438D94
:102F90009BB2032B15D903681A69436A1A70436AF6
:102FA00001334362438D9BB2013B9BB24385438D0A
:102FB0009BB2032B0FD10268536823F480635360E4
:102FC00009E0C26A022A01D0012B05D922685368A0
:102FD00023F48063536010BDFFF7ECF900282ED175
:102FE0002268136823F4806313602268536823F413
:102FF000E063536023681A69636A1A70636A013375
:103000006362638D9BB2013B9BB26385202384F88E
:103010003D3094F83E30DBB2402B08D0002384F8DA
:103020003E30122323632046FFF723FDD3E700231E
:1030300084F83E3023632046FFF706FFCBE7226883
:10304000536823F4E063536023681A69636A1A7053
:10305000636A01336362638D9BB2013B9BB26385FC
:10306000202384F83D30002384F83E302046FFF7CB
:1030700085FFB0E77047000000B583B000230193DF
:10308000406A90F83D20D2B2324B1B68DB083249CF
:10309000A1FB03131B0A03EB8303C3EBC3030193DD
:1030A000019B43B1019B013B019303681B6813F42F
:1030B000007FF5D103E0036C43F020030364436B0E
:1030C0000BB100219962836B0BB1002199620168F9
:1030D0000B6823F480630B6000234385436B0BB1C3
:1030E00000215963836B0BB10021596301680B68A0
:1030F00023F001030B6090F83D30DBB2602B0ED063
:1031000002F02802282A14D0202380F83D30002322
:1031100080F83E30FFF732FF03B05DF804FB202358
:1031200080F83D30002380F83E300364FFF7A2FFB3
:10313000F2E70268136843F0010313600268136842
:1031400043F48063136000230363282380F83D3039
:10315000E0E700BF0000002089B5F81410B5044670
:1031600090F83D30DBB290F83E20D2B2102A36D033
:10317000402A34D003F02802282A38D02268526826
:1031800012F4006F07D1602B05D0202384F83D3066
:10319000002384F83E300023236323685A6812F426
:1031A000006F48D05A6822F400625A60626B92F84D
:1031B0002130DBB2012B20D0444B5363606BFEF710
:1031C0003FFD002849D02268136823F001031360F3
:1031D000202384F83D30606B436B98473DE0222B01
:1031E000C8D121680A6822F400620A60C2E700239D
:1031F0002363282384F83D30CFE7A36B334A5A6317
:10320000A06BFEF71DFD40B323685A6912F0400F12
:1032100005D01A69636A1A70636A013363622268AF
:10322000136823F001031360202384F83D30A06B62
:10323000436B984711E094F83D20D2B2602A1FD02A
:103240005A6912F0400F05D01A69636A1A70636AEE
:10325000013363622046FFF791FE236C13F00F0FDA
:1032600004D02268536823F4E063536094F83D303F
:10327000DBB2226C12F0040F01D0282B18D010BD45
:10328000202284F83D20002222645A6912F0400F67
:1032900005D01A69636A1A70636A0133636222682F
:1032A000136823F0010313602046FFF7E3FED4E721
:1032B000074BE36200232363202284F83D2084F837
:1032C0003E302046FFF752FCD9E700BF79300008B6
:1032D0000000FFFF30B583B0044690F83D50EDB2DA
:1032E0000268536823F4E06353600023019303688A
:1032F0005A6901921A6842F001021A60019B026841
:10330000136823F48063136003685A6812F4006F33
:1033100038D0222D21D02A2D1FD0426B126852683E
:1033200092B24285428D92B21AB1026C42F004020E
:1033300002645A6822F400625A60606BFEF76EFD08
:1033400001281FD0636B444A5A63606BFEF778FC18
:10335000C0B1606B436B984714E0A26B126852686F
:1033600092B26285628D92B21AB1226C42F004026E
:1033700022645A6822F400625A60A06BFEF74EFD88
:10338000012842D1638D9BB233B323685A6912F08E
:10339000040F0AD01A69636A1A70636A01336362A0
:1033A000638D9BB2013B9BB2638523685A6912F01F
:1033B000400F0AD01A69636A1A70636A0133636244
:1033C000638D9BB2013B9BB26385638D9BB21BB146
:1033D000236C43F004032364236C13BB2A2D25D0F4
:1033E00094F83D30DBB2282B29D0236B222B01D05F
:1033F000222D19D100232363202284F83D2084F854
:103400003E302046FFF75DFB0EE0A36B124A5A6385
:10341000A06BFEF715FC0028B4D0A06B436B984757
:10342000B0E72046FFF79AFE03B030BD00232363C8
:10343000282384F83D302046FFF743FBD0E7074BB5
:10344000E36200232363202284F83D2084F83E3089
:103450002046FFF78BFBE7E7793000080000FFFF0D
:10346000F8B5044602685568C66A90F83E30DBB28B
:1034700090F83D10C8B2102B13D0402B11D0236C04
:10348000002B7AD05369002113F0020F78D015F485
:10349000007F75D0236C03B191692046FFF739FB9B
:1034A000F8BDD2F818C0516911F0010705D1B6F581
:1034B0002A0FF5D0B6F12A4FF2D017B115F4007FDC
:1034C00029D111F0080F02D015F4007F2AD111F094
:1034D000020F02D015F4007F28D11CF0040F31D068
:1034E000526812F4006FDBD111F0800F05D015F493
:1034F000806F02D011F0040F1CD011F0040FCFD058
:1035000015F4007FCCD0212818D0402BC8D12046FC
:10351000FFF7CEFBC4E72046FEF789FF2046FEF703
:103520009EFDBDE72046FEF7EEFDB9E72046FEF71B
:10353000FFFDB5E72046FFF71DFCB1E72046FFF78A
:1035400068FBADE7536813F4006FA9D111F0400F89
:1035500005D015F4806F02D011F0040F09D011F0DE
:10356000040F9DD015F4007F9AD02046FFF76DFC24
:1035700096E72046FFF703FD92E79169536983E7D9
:1035800013F0100F02D015F4007F18D121281AD0A3
:10359000292818D013F0400F05D015F4806F02D001
:1035A00013F0040F28D013F0040F3FF479AF15F493
:1035B000007F3FF475AF2046FEF7ECFE70E7204633
:1035C000FFF788FE6CE713F0800F05D015F4806FCD
:1035D00002D013F0040F0BD013F0040F3FF460AFD0
:1035E00015F4007F3FF45CAF2046FEF7C3FE57E7BB
:1035F0002046FFF740FA53E72046FFF763FA4FE70C
:10360000F8B5044603685D695F6890F83E20D2B261
:10361000C5F3002615F4807F0DD0C7F3002617F4FC
:10362000807F08D06FF48071596101680B6843F4A2
:1036300000430B60012615F4007F08D017F4807F4B
:1036400005D046F0020623686FF40071596115F445
:10365000806F19D017F4807F16D0638D99B294F8DB
:103660003D30DBB2206B202A1BD023686FF48061D1
:10367000596146F00406102A01D0402A04D122687C
:10368000136843F40073136015F4006F17D017F438
:10369000807F14D046F0080623686FF400625A61F8
:1036A0000EE00029E1D1212B05D0292B03D0282BB6
:1036B000DBD12128D9D12046FFF75AFAE4E72EB111
:1036C000236C334323642046FFF748FDF8BD000018
:1036D00082B0084B1B68084AA2FB03235B0A00FB6D
:1036E00003F3019300BF019B5A1E0192002BF9D1F5
:1036F00002B0704700000020D34D6210002800F097
:10370000F18170B582B00446036813F0010F2CD02C
:10371000994B5B6803F00C03042B1DD0964B5B6840
:1037200003F00C03082B12D06368B3F5803F41D03F
:10373000002B55D103F1804303F504331A6822F4BA
:1037400080321A601A6822F480221A6037E08A4BAD
:103750005B6813F4803FE7D0874B1B6813F4003F8E
:1037600003D06368002B00F0BF81236813F0020FC1
:1037700075D0814B5B6813F00C0F5FD07E4B5B689C
:1037800003F00C03082B54D02369002B00F08A802F
:103790007A4B01221A60FEF78DF90546764B1B68BD
:1037A00013F0020F75D1FEF785F9401B0228F5D9F9
:1037B00003209EE1704A136843F48033136063680A
:1037C00043B3FEF777F905466B4B1B6813F4003FD4
:1037D000CBD1FEF76FF9401B6428F5D9032088E1AF
:1037E000B3F5A02F09D0644B1A6822F480321A6016
:1037F0001A6822F480221A60E1E703F18043A3F5FE
:103800003C331A6842F480221A601A6842F480320B
:103810001A60D4E7FEF74EF90546574B1B6813F4C0
:10382000003FA2D0FEF746F9401B6428F5D90320DB
:103830005FE1514B5B6813F4803FA5D14E4B1B6891
:1038400013F0020F03D02369012B40F04F814A4A45
:10385000136823F0F803616943EAC1031360236826
:1038600013F0080F33D0A369002B5CD0434B012227
:10387000C3F88024FEF71EF905463F4B5B6A13F040
:10388000020F21D1FEF716F9401B0228F5D90320BB
:103890002FE1394A136823F0F803616943EAC10351
:1038A0001360DCE7354B00221A60FEF703F905468A
:1038B000314B1B6813F0020FD1D0FEF7FBF8401B11
:1038C0000228F5D9032014E10120FFF701FF236846
:1038D00013F0040F00F09680274BDB6913F0805F34
:1038E00034D1254BDA6942F08052DA61DB6903F0AA
:1038F00080530193019B0125214B1B6813F4807FAA
:1039000026D0E368012B3DD0002B53D103F1804337
:1039100003F504331A6A22F001021A621A6A22F0CD
:1039200004021A6233E0154B0022C3F88024FEF72C
:10393000C1F80546104B5B6A13F0020FC7D0FEF7C3
:10394000B9F8401B0228F5D90320D2E00025D3E7BF
:103950000B4A136843F480731360FEF7ABF8064616
:10396000074B1B6813F4807FCBD1FEF7A3F8801BB5
:103970006428F5D90320BCE0001002400000424258
:10398000007000405F4A136A43F001031362E3686A
:1039900033B3FEF78FF806465A4B1B6A13F0020F3B
:1039A0002FD1FEF787F8801B41F288339842F3D974
:1039B00003209EE0052B09D0524B1A6A22F0010227
:1039C0001A621A6A22F004021A62E0E74D4B1A6A80
:1039D00042F004021A621A6A42F001021A62D6E741
:1039E000FEF768F80646474B1B6A13F0020F08D033
:1039F000FEF760F8801B41F288339842F3D9032028
:103A000077E0E5B9E369002B72D03E4A526802F0D4
:103A10000C02082A56D0022B17D03B4B00221A6604
:103A2000FEF748F80446374B1B6813F0007F47D079
:103A3000FEF740F8001B0228F5D9032059E0314A6F
:103A4000D36923F08053D361DCE72F4B00221A6641
:103A5000FEF730F805462B4B1B6813F0007F06D0AD
:103A6000FEF728F8401B0228F5D9032041E0236A1D
:103A7000B3F5803F1AD023494B6823F47413226AAC
:103A8000606A024313434B601F4B01221A66FEF724
:103A900011F804461B4B1B6813F0007F0ED1FEF794
:103AA00009F8001B0228F5D9032022E0154A5368C3
:103AB00023F40033A1680B435360DCE7002018E0D7
:103AC000002016E0012B16D00E4B5B6803F480310A
:103AD000226A914211D103F47013626A93420ED1AB
:103AE000002006E001207047012002E0012000E0F4
:103AF000002002B070BD0120FBE70120F9E70120A2
:103B0000F7E700BF00100240000042420F4B5B6825
:103B100003F00C02082A01D00D487047C3F383421A
:103B20000C49885C13F4803F0BD0084B5B68C3F3EF
:103B30004043094AD35C064A02FB00F0B0FBF3F0B5
:103B40007047064B03FB00F0704700BF00100240B7
:103B500000127A00C4AE0008C0AE000800093D00A3
:103B6000002800F0A08070B50D460446524B1B683B
:103B700003F007038B420BD24F4A136823F007036D
:103B80000B431360136803F007038B4240F08D80F2
:103B9000236813F0020F17D013F0040F04D0474A24
:103BA000536843F4E0635360236813F0080F04D0B4
:103BB000424A536843F460535360404A536823F0C9
:103BC000F003A1680B435360236813F0010F31D059
:103BD0006368012B20D0022B25D0384A126812F0DE
:103BE000020F64D035494A6822F0030213434B6048
:103BF000FDF760FF0646314B5B6803F00C0362681B
:103C0000B3EB820F16D0FDF755FF801B41F28833CE
:103C10009842F0D9032045E0284A126812F4003F88
:103C2000E0D101203EE0254A126812F0007FD9D190
:103C3000012037E0204B1B6803F00703AB420AD991
:103C40001D4A136823F007032B431360136803F026
:103C50000703AB422DD1236813F0040F06D0174A97
:103C6000536823F4E063E1680B435360236813F067
:103C7000080F07D0114A536823F46053216943EABF
:103C8000C1035360FFF742FF0C4B5B68C3F30313A0
:103C90000B4AD35CD8400B4B18600B4B1868FDF7F0
:103CA000C5FE002070BD012070470120FAE7012009
:103CB000F8E70120F6E700BF0020024000100240B4
:103CC000B0AE00080000002008000020014B18687A
:103CD000704700BF0000002008B5FFF7F7FF044B56
:103CE0005B68C3F30223034AD35CD84008BD00BF1E
:103CF00000100240A8AE0008024A0349034800F041
:103D0000C9B800BF0C000020916500082000002009
:103D10000C4B416810B59942044601D002F038FCC2
:103D2000A168094B994202D0204602F031FCE168BB
:103D3000064B994204D02046BDE8104002F028BC52
:103D400010BD00BF840C0020EC0C0020540D00209E
:103D50002DE9F84300250423304C314A3149DFF87E
:103D6000C890DFF8C880324F324E116004F15C0019
:103D700029460822C4E90335C4E90055C4E90555BC
:103D8000A560656600F040F904F15800C4E90749F0
:103D9000C4E90987E66200F009FA274B29460822A0
:103DA00004F1C4006367C4E91A55C4E91E552567C8
:103DB000C4F8CC50C4F8805000F026F904F1680330
:103DC00004F1C000C4F88430C4E92298C4E9247620
:103DD00000F0ECF9194B294604F596700822C4F856
:103DE000DC30C4E93455C4E93855C4F8D850C4F8B7
:103DF0003451C4F8E85000F007F904F1D003C4E9E5
:103E00003D87C4F8F09004F59470C4F8FC60C4F8E1
:103E1000EC30BDE8F84300F0C9B900BF840C0020C5
:103E2000BC0D0020F93C00081D3F0008413F000880
:103E3000813F0008A53F00080900010012000200B0
:103E400010B504460A4800F0B5F9636B23B9094B75
:103E5000094A1B68626323B1BDE81040044800F0C2
:103E6000ABB9FFF775FFBDE81040014800F0A4B9F9
:103E7000CC0D0020BC0D0020113D0008014800F0D1
:103E800099B900BFCC0D0020014800F095B900BFE2
:103E9000CC0D00202DE9F8434FF0000980460F4675
:103EA0001646D6E90154013D10D4A389012B08D947
:103EB000B4F90E30013304D021464046B84749EAF0
:103EC0000009013D6B1C04F16804EED13668002E38
:103ED000E7D14846BDE8F8830EB470B504466FF0EC
:103EE000004600259DB00B4A21AB0B49106853F8E2
:103EF000042B059102A9CDE90134049607961B9580
:103F0000069400F083FD029B1D701DB0BDE870405B
:103F100003B07047180000200802FFFF10B50C46E0
:103F2000B1F90E1000F0E8F8002803DB236D03441C
:103F3000236510BDA38923F48053A38110BD00BF66
:103F40002DE9F0410C46B1F90C101F46CB05054692
:103F500016460BD421F48051A1813B4632462846B7
:103F6000B4F90E10BDE8F04100F0DCB8B4F90E1061
:103F70000223002200F0AAF8B4F90C10EAE700BF0F
:103F800010B50C46B1F90E1000F0A0F8B4F90C30E1
:103F9000421C0EBF23F4805343F480532065A38159
:103FA00010BD00BFB1F90E1000F07EB8032A30B486
:103FB00015D941EA0004A40784460B4604D0541ED8
:103FC0000FE0043A032A08D91946604653F8044B17
:103FD0005CF8045BA542F4D0F1E760461946541E34
:103FE0007AB1431E0139021901E09A4209D013F84F
:103FF000010F11F801CF6045F7D0A0EB0C0030BCE9
:104000007047002030BC704770B5860747D0541EFB
:10401000002A3ED00346CAB201E0013C39D303F87E
:10402000012B9D07F9D1032C2CD9CDB205EB052529
:104030000F2C1A4605EB054534D9A4F1100C2CF0D1
:104040000F0603F1100EB6444FEA1C1CC2E90055DE
:10405000C2E9025510327245F8D10CF1010214F098
:104060000C0F03EB021204F00F0C13D0ACF104039D
:1040700023F003030433134442F8045B9342FBD15F
:104080000CF003042CB1C9B21C4403F8011BA34279
:10409000FBD170BD64461346002CF4D1F9E703460A
:1040A0001446C0E7A446E1E7002238B5064D0446B1
:1040B00008462A60FDF762FC431C00D038BD2B681F
:1040C000002BFBD0236038BDC00D002038B50C4656
:1040D000114600228446074D20462A601A4664464F
:1040E000FDF756FC431C00D038BD2B68002BFBD0DD
:1040F000236038BDC00D002038B50C4611460022A3
:104100008446074D20462A601A466446FDF718FC8F
:10411000431C00D038BD2B68002BFBD0236038BD7A
:10412000C00D002038B50C46114600228446074DCC
:1041300020462A601A466446FDF712FC431C00D054
:1041400038BD2B68002BFBD0236038BDC00D00208C
:10415000014B1868704700BF1800002070B50F4B66
:104160000F4DAB42A3EB050607D00024B61055F85F
:10417000043B01349847A642F9D805F05DFE094D8D
:10418000094B5E1BAB424FEAA60606D0002455F849
:10419000043B01349847A642F9D870BD1CB1000811
:1041A0001CB100081CB1000824B10008704700BF12
:1041B000704700BF704700BF704700BF024B13B18C
:1041C000024800F005B87047000000007168000860
:1041D000002301461A46184602F01CBC2DE9F8439C
:1041E00006460820894602F057FB0546DFF898800E
:1041F000304600F0FFFBD8F808305F6827F003076F
:10420000A7F11104A4EB09042C44B4FBF5F4013C20
:1042100005FB04F4A54208DC0021304602F016FB41
:10422000D8F808303B44984205D0304600F0E8FB0F
:104230000020BDE8F8833046614202F007FB013000
:104240000FD0124AD8F808303F1B47F001075F60D3
:10425000136830461B1B136000F0D2FB0120BDE841
:10426000F8830021304602F0F1FAD8F80820831ACA
:104270000F2BDADD43F001035360054B03491B6844
:10428000C01A0860D1E700BF70010020D40D0020E3
:104290006401002000297CD0F8B50C46064600F0E9
:1042A000A9FB54F8043C764FA4F1080523F0010162
:1042B0006818D7F808C04268844522F0030200F06D
:1042C0008380DB07426000EB020C33D454F8084CC7
:1042D000DCF804302D1B2144AC6807F1080C644560
:1042E00003F0010364D0D5F80CE0C4F80CE0CEF87C
:1042F0000840002B00F0818041F001036B600160F9
:10430000B1F5007F22D20122CB0849098A407968A1
:1043100001330A437A6057F8331007EBC302083AB7
:10432000C5E9021247F83350CD603046BDE8F84089
:1043300000F066BBDCF80430DB072BD541F001034D
:10434000B1F5007F44F8043C0160DCD3B1F5206F87
:104350004FEA512353D28B0903F1390003F138029C
:10436000C300F818FB580838984203D161E09B68F5
:10437000984204D05A6822F003028A42F7D8D868DB
:10438000C5E9023085603046DD60BDE8F84000F0E8
:1043900037BB7047114407F1080C836863453FD071
:1043A000C268DA60936041F001036B606950A7E76F
:1043B000002B5FD10A44D0E90213CB60996042F030
:1043C00001036B60AA50B0E70A44D90707D454F838
:1043D000083CED1A1A44D5E90213CB60996042F00B
:1043E00001036B60274BBD601B6893429DD8264B31
:1043F00030461968FFF7F2FE97E71144CDE7142B1A
:1044000008D9542B1DD80B0B03F16F0003F16E027A
:10441000C300A6E703F15C0003F15B02C300A0E761
:1044200041F00103C7E90455C5E902CC6B6069504E
:104430007BE70121921001FA02F279680A437A605F
:104440009EE7B3F5AA7F06D8CB0B03F1780003F102
:104450007702C30085E740F25452934206D88B0C92
:1044600003F17D0003F17C02C3007AE74FF47E7311
:104470007E2276E741F001036B60016055E700BFE3
:104480007001002068010020040E00202DE9F04F8B
:1044900001F10B05162D064683B024D8102900F231
:1044A000AD8000F0A7FA102518234FF0020CB84F8A
:1044B0003B445C68A3F10802944200F01D81304641
:1044C0006368E268A16823F00303CA602344916033
:1044D0005A68083442F001025A6000F091FA20460E
:1044E00003B0BDE8F08F35F0070500F18780A942E1
:1044F00000F2848000F07EFAB5F5FC7FC0F06F8199
:104500006B0A7FD0042B00F21E81AB0903F1390C3A
:1045100003F1380E4FEACC009D4F38444468083808
:10452000A04207D10DE0002AE16880F2DF808842D6
:1045300007D00C46636823F003035A1B0F2AF2DDF1
:10454000F446DFF850823C69444500F0BC80636863
:1045500023F00309A9EB05030F2B00F34581002B82
:10456000C7E9048880F22F81B9F5007FD7F804E00D
:1045700080F0C98001234FEAD9014FEA5919194443
:1045800003FA09F357F831204EEA030E07EBC10393
:10459000083BA260E360C7F804E047F83140D4600C
:1045A00001204FEAAC039840704532D810EA0E0F54
:1045B00007D12CF0030C400010EA0E0F0CF1040C94
:1045C000F9D007EBCC0AD646E146DEF80C300BE01A
:1045D00059681C4621F003014A1B0F2ADB6800F3CF
:1045E000BF80002A80F2E2809E45F1D109F10109E5
:1045F00019F0030F0EF1080EE7D11FE10C23336011
:1046000000246CE74FF400704FF0400C4FF03F0E69
:1046100082E7BC68636823F00309A94503D3A9EBCB
:1046200005030F2B52DC5C4B08201B6803F11008BC
:1046300004EB0903009302F02FF9584A83461368EC
:10464000A844013305D008F1FF388044434203EA0F
:1046500008084146304602F0F9F8B0F1FF3F8246C3
:104660004E4A00F0DC8004EB0903834200F2D5805F
:104670004B4B0BF1FF31186840448446186040F002
:10468000FB801AEA010F40F0F780D7F808A0C84471
:1046900048F00102CAF804205446424B196881428E
:1046A00038BF1860404B1968814238BF186022F04B
:1046B0000308A845A8EB050301D30F2B06DC304601
:1046C00000F09EF99CE7D7F804E069E7621943F02F
:1046D000010345F0010565603046BA600834536057
:1046E00000F08EF9204603B0BDE8F08FA268304696
:1046F000D16023448A60EBE6DC68A3427FF4DFAE3E
:104700000CF1020C1DE7B9F5206F4FEA59227DD359
:10471000142A00F2118102F15C03DB005B32F9180C
:10472000FB580839994203D1ECE09B68994204D0C8
:104730005A6822F003024A45F7D8D968C4E9023121
:104740008C60DC602CE7142B6CD9542B00F2FD80BC
:104750002B0B03F16F0C03F16E0E4FEACC00DBE67E
:10476000D4F808C03046661945F001056560CCF8FC
:104770000C30C3F808C042F00103C7E90466C6E97B
:1047800002887360625000F03BF90834A7E600BF6E
:104790007001002078010020040E00206401002038
:1047A000D40D0020000E0020FC0D002021444A689A
:1047B000304642F001024A6054F8082FD3609A60F4
:1047C00000F01EF98BE6A144D9F80430304643F0DE
:1047D0000103C9F8043000F013F908347FE64FEA0A
:1047E000D50C05F1080362E6621943F0010145F0BA
:1047F000010565603046C7E90422C2E902885160BC
:1048000044F8093000F0FCF8083468E64FEA9912E1
:1048100002F13903DB00383281E7BC4224D0BC68A6
:10482000626844E703F15C0C03F15B0E4FEACC00D5
:1048300072E65AF80839534540F0D8801CF0030F4F
:104840000CF1FF3CF5D17B6823EA00037B6040005C
:1048500098423FF6DEAE18B9DBE6400009F10409E4
:104860001842FAD0CC46ACE6614B0BF1FF31186828
:1048700008EB000CC3F800C01068013070D004EBE6
:104880000902AAEB020262441A601AF00702CDE99B
:10489000002340D0C2F108029244D04408EA01004B
:1048A0005A44121A02EA010B5946304601F0CEFF73
:1048B000421C019B71D0A0EB0A0000EB0B081868AA
:1048C00048F001025844BC42C7F808A01860CAF872
:1048D00004203FF4E1AEB9F10F0F44D94FF0050CBD
:1048E0006168A9F10C0222F0070201F001011143F5
:1048F00061600F2A04EB0201C1E901CC55D8DAF856
:104900000420C9E60120921000FA02F24EEA020EDB
:10491000C7F804E012E70AEB08020A40ABEB020218
:1049200002EA010B5946304601F090FF431C019BFF
:10493000C1D1DDF800B0C2E7542A18D84FEA1932C5
:1049400002F16F03DB006E32E9E6B3F5AA7F18D8F7
:10495000EB0B03F1780C03F1770E4FEACC00DBE5AB
:10496000C2F800A091E70123CAF80430A7E6B2F527
:10497000AA7F25D84FEAD93202F17803DB007732DB
:10498000CDE640F25452934225D8AB0C03F17D0C96
:1049900003F17C0E4FEACC00BEE5009A4FF0000B0D
:1049A000083A9044A8EB0A0889E7304604F1080168
:1049B0000093FFF76FFC009BD7F808A018689EE7EC
:1049C00040F254539A420DD84FEA994202F17D03C6
:1049D000DB007C32A3E64FF47E704FF07F0C4FF08B
:1049E0007E0E99E54FF47E737E2298E67B682EE773
:1049F000D40D00200148FFF7DDBB00BFC40D00202F
:104A00000148FFF7D9BB00BFC40D00202DE9F04FCE
:104A1000DDB00C4691460D910F93834601F012FFD5
:104A2000036818461A9301F091FF0822189000219C
:104A30002CA8FFF7E9FAA389180603D52369002BF0
:104A400000F01587002300249E46CDE93133002372
:104A500033AACDE91634DA4614464D46CDE91BEEAD
:104A60003092CDF864E0CDF880E0CDF874E0CDF878
:104A700028E0CDF848E02F466E4BD3F8E46001F013
:104A8000DBFE0DF1B00C03463A46504628A9CDF89E
:104A900000C0B047002800F09F80C0F29580289B9E
:104AA000252B01D00744E7E7B7EB0508064640F0A1
:104AB000978000224FF0FF33934609937B787E1C4A
:104AC0008DF897200B9299460136A9F120035A2BB5
:104AD00000F2B280DFE813F0F302B000B000EF02A2
:104AE000B000B000B000FD02B000B0006A003502B6
:104AF000B0002702D202B000CE025B005B005B0078
:104B00005B005B005B005B005B005B00B000B00023
:104B1000B000B000B000B000B0002801B000AA01A1
:104B20003E02280128012801B000B000B000B0000A
:104B30003A02B000B000A802B000B000B000D0014E
:104B4000B000BC02B000B0008A06B000B000B000F7
:104B5000B000B000B000B000B0002801B000AA0161
:104B600001022801280128012B0201027400B00073
:104B70006402B0005502AF066E027400B000D001AE
:104B80007200AC06B000B000B206B00072000022A5
:104B9000A9F1300316F8019B02EB820203EB4202FB
:104BA000A9F13003092BF5D90B928EE70F9B53F82F
:104BB000042B002A0B920F93C0F2B281337882E764
:104BC00033784BF0200B7EE7082200212CA8FFF75A
:104BD0001BFA012007444FE7B7EB0508064610D043
:104BE000329BC4E9005843443293319B0133072B75
:104BF000319315DC08340A9B43440A93002E7FF45A
:104C000058AF329B002B41F05E810D9B9B8903F0D6
:104C10004003002B41F080830A985DB0BDE8F08F1F
:104C200050460D9930AA01F087FC0028EDD133AC35
:104C3000E1E700BF780500201096B9F1000FE0D041
:104C4000012300228DF80C91069343AD8DF8972037
:104C50000C93CDE913220E92099211921BF00203DC
:104C600002D00699023106911BF08408329E05D1CC
:104C70000B9906980F1A002F00F39B806AB101224E
:104C80006260319A013601320DF19701072A32969E
:104C90003192216000F3D883083463B1022363604A
:104CA000319B0236013326AA072B329631932260BC
:104CB00000F3BF830834B8F1800F00F0BF82099B76
:104CC0000C9A9F1A002F00F3F9821BF4807F40F0AA
:104CD0001E820C9B25601E446360319B329601331B
:104CE000072B319300F33F8308341BF0040F05D0EA
:104CF0000B9B069A9D1A002D00F3B383DDE90A325F
:104D000006998A42ACBF9B185B180A93002E40F0AC
:104D10000883002331930E9B1BB150460E99FFF779
:104D2000B9FA33AC109DA6E60F9B1096073323F01B
:104D30000703F3E802670F9327F000431F931E96C3
:104D40004FF0FF32DDE91E01B24BCDE91667FBF7EC
:104D5000ABFE002840F0F484DDE91E014FF0FF3285
:104D6000AC4BFBF783FE002840F0EA8400220023CE
:104D700030463946FBF770FE002840F0B2879DF8B8
:104D8000972000210320A44DA44B2BF0800B0E9103
:104D90000690B9F1470FD8BF1D46CDE9131109910F
:104DA0000C901191002A3FF459AF069B01330693F2
:104DB00054E7102F319A41F30D82DFF864C2214687
:104DC00030460D9C2E46CDF854C06546219304E034
:104DD000103F102F01F1080116DD102301321030B1
:104DE000072ACDE931200D604B60F1DD21465046A8
:104DF00030AA01F0A1FB002840F09B82DDE93120C0
:104E0000103F102F33A9E8DC35460C460646219B9F
:104E1000013215993E44072ACDE9312621606760A9
:104E200000F381869DF89720083427E70F9BB9F19E
:104E3000430F109603F1040603D01BF0100F00F08F
:104E40000185082200212EA8FFF7DEF80F9A43AD56
:104E50002EAB29465046126803F0E4F903460133AD
:104E60000C9001F054820C9B23EAE373069300221A
:104E70000F968DF89720ECE600230F9F109657F8B9
:104E8000045B8DF89730002D00F00085B9F1530FC9
:104E900000F094861BF01003119340F08F86099B5D
:104EA000002BC1F21B801A462846119901F002FD21
:104EB0000E90002801F081820E9B11995B1B0C93D0
:104EC00023EAE3734FF07309CDE913119DF897209E
:104ED0000F97099106930E9164E71BF0200F10962F
:104EE0003ED00F9B073323F007031846596850F84C
:104EF000083B0A460F900029C0F2CA83099900298D
:104F0000C0F2888253EA02012BF0800740F08382CE
:104F1000099A002A40F08482BB460C925CAD64E1A1
:104F20000B9B5B420B9333784BF0040BCBE5337850
:104F3000682B03BF73784BF4007B01364BF0400BBA
:104F4000C1E52B238DF897303378BCE533784BF0EF
:104F5000080BB8E54BF0100B1BF0200F1096C0D1DA
:104F60000F9A1BF0100F52F8043B0F9240F0C283CF
:104F70001BF0400F00F0BA8343F3C03211461BB25E
:104F8000B9E71BF0200F109600F0C5830F9B0A9A1B
:104F90001B681A60D2175A600F9B04330F93C1E647
:104FA00033786C2B03BF73784BF0200B01364BF03A
:104FB000100B88E547F630030F9AADF8983052F899
:104FC000043B02210F924FF07809002215481096F9
:104FD0004BF0020719900020099D8DF89700002DD5
:104FE000C0F2EC8053EA020027F0800B40F0E5802D
:104FF000002D40F0D285002940F0538317F00103C3
:105000000C9300F0718330230DF26F158DF86F3122
:10501000EBE000BFFFFFEF7F9C9E0008989E00081A
:10502000E4AE0008A89E000810964BF0100B1BF091
:10503000200200F012830F9B073323F00703194669
:105040005A6851F8083B0F9100212BF48067C2E7A2
:1050500010964BF0100717F0200200F00B830F9B07
:105060000121073323F0070318465A6850F8083B1C
:105070000F90B0E733784BF0800B24E5314611F800
:10508000019BB9F12A0F01F02882A9F13003092B05
:1050900098BF002201F2A28011F8019B02EB82026C
:1050A00003EB4202A9F13003092BF5D942EAE2737E
:1050B0000E46099309E533784BF0010B03E59DF8A3
:1050C00097203378002A7FF4FEAC20228DF89720B9
:1050D000F9E4504601F0B6FB436818461D9301F011
:1050E00035FC20900746504601F0ACFB83681B93CB
:1050F000002F3FF463AD1B9A3378002A3FF4E3ACF2
:105100001278002A3FF4DFAC4BF4806BDBE4B9F19A
:10511000650F40F33781DDE9160100220023FBF71C
:1051200091FC002800F0D88101236360319B934AF1
:1051300001330136072B32963193226000F332851A
:105140000834279B129A934280F2C982189B1A9ABC
:105150001E44C4E90023319B32960133072B31935F
:1051600000F37A830834129B5D1E002D7FF7BDADDE
:10517000102D319B40F3EB80DFF804921027DDF80F
:105180003480CDF8549004E00834103D102D40F3E5
:10519000E08001331036072BC4E90097CDE93136A2
:1051A000F2DD4146504630AA01F0C6F9002840F031
:1051B000C080DDE9313633ACE7E75F46012900F016
:1051C0002A8102295CAD1ED1199803F00F01415CC0
:1051D0001B0943EA0273120905F8011D53EA020193
:1051E000F3D1BB465CAB5B1B0C93099A0C99002373
:1051F0008A42B8BF0A46CDE9133306920E939DF852
:1052000097201193CEE503F00701DB0843EA4273D0
:10521000D208303153EA0206284605F8011DF2D1C2
:10522000FB07DED53029DCD03023023805F8013CFD
:105230005CAB1B1ABB4605460C93D6E70B9B069A44
:105240009F1A002F7FF73BAD102F319B41F35B80FE
:105250004B48224631464FF0100806460D9C1590EB
:1052600004E0103F102F02F1080214DD0133103169
:10527000072BC2E90068CDE93131F2DD2146504605
:1052800030AA01F059F9002853D1DDE93131103F3E
:10529000102F33AAEADC14460E460133159A3E4419
:1052A000072BCDE931362260676000F3C084099B8B
:1052B0000C9A08349F1A002F7FF707AD304A102F41
:1052C000319B159221DD32464FF010082E460D9D80
:1052D00004E0103F102F04F1080414DD01332849C5
:1052E0001032072BC4E90018CDE93132F1DD29462F
:1052F000504630AA01F020F9D8B9DDE93132103F2B
:10530000102F33ACEADC354616460133159A3E447D
:10531000072BCDE931362260676000F392810834B3
:10532000D3E450460D9930AA01F006F900283FF465
:10533000F0ACD3460E9B002B3FF467AC58460E9959
:10534000FEF7A8FF0D9B9B8903F0400361E40C4A24
:105350001592159A01332E44072B22606560CDE922
:1053600031367FF7C1AC50460D9930AA01F0E4F810
:105370000028DED1329E33ACB7E400BFD89E0008CF
:10538000D4AE0008129B319F012B06F1010607F1F4
:10539000010704F1080940F310810123072FCDE92B
:1053A00031762560636000F38081189B01371A9A7B
:1053B0001E44072FC9E90023CDE9317600F382812D
:1053C00009F10809129B0022DDE916015C1E002389
:1053D000FBF738FB002840F00981013701352644EE
:1053E000072FCDE93176C9F80050C9F8044000F321
:1053F000F08009F108091C9B01371E44C9F80430EC
:10540000072F2AABCDE93176C9F80030ABDC09F1C2
:1054100008046AE45F460A2B72F1000180F02583DC
:1054200030338DF86F310123BB460C930DF26F15AD
:10543000DBE650460D9930AA01F07EF800287FF493
:1054400078AF329E33AC36E450460D9930AA1593AE
:1054500001F072F800287FF46CAF329E159B33ACDC
:105460001BE4102D319B40F33187DFF8CC821027ED
:10547000DDF83490CDF8548004E0103D102D04F197
:10548000080415DD01331036072BC4E90087CDE988
:105490003136F2DD4946504630AA01F04DF8002879
:1054A0007FF447AFDDE93136103D102D33ACE9DC38
:1054B0000133159A2E44072BC4E90025CDE9313676
:1054C0007FF71CAC50460D9930AA01F035F8002842
:1054D0007FF42FAF329E11E42799002940F33383E4
:1054E000DDE911839845A8BF9846B8F1000F0ADDA1
:1054F000319B46440133072BC4E90058329631935F
:1055000000F33E860834119FB8F1000FA8BFA7EB47
:105510000807002F00F3CB81DDF844901BF4806F67
:10552000A94440F0EA81279B129A9342C0F271820B
:105530001BF0010F40F06D82129AAF18A7EB09071C
:10554000D51AAF42A8BF2F46002F0BDD319B3E443A
:105550000133072BC4F8009067603296319300F353
:1055600085860834002FA8BFED1B002D7FF7BDAB4B
:10557000102D319B7FF7EBAEDFF8C0911027DDF8DF
:105580003480CDF8549004E00834103D102D7FF79E
:10559000E0AE01331036072BC4E90097CDE9313670
:1055A000F2DD4146504630AA00F0C6FF00287FF4E5
:1055B000C0AEDDE9313633ACE7E71BF0010F7FF415
:1055C000ECAE0123072FCDE93176256063607FF7CC
:1055D00012AF50460D9930AA00F0AEFF00287FF4BC
:1055E000A8AEDDE931760DF1CC0904E7129B012B61
:1055F0007FF701AF112B40F37F87504BCDF824B0DC
:1056000010259B46DDF83480159305E009F1080963
:10561000103C102C40F33C8301371036072FC9E9AA
:1056200000B5CDE93176F1DD4146504630AA00F0B3
:1056300083FF00287FF47DAEDDE931760DF1CC09E2
:10564000E6E750460D9930AA00F076FF00287FF477
:1056500070AE329E33ACFFF738BB0F991BF01000D1
:1056600051F8043B55D11BF040054ED002460F9136
:105670009BB2E9E40F9917F0100051F8043B41D1B7
:1056800017F040053AD00F91024601219BB2A2E4E7
:105690005B425F464FF02D004FF0010162EB42028A
:1056A0009AE4099B5CAD0C939FE550460D9930AA96
:1056B00000F042FF00287FF43CAEDDE931760DF1C9
:1056C000CC0972E650460D9930AA00F035FF00284B
:1056D0007FF42FAEDDE931760DF1CC0972E61BF0D7
:1056E000010F3FF402AB31E55CAD7EE51BF4007FBA
:1056F00040F04F83DA171146FFF7FDBB17F4007235
:1057000040F052830F91012165E41BF4007240F0D8
:1057100046830F9198E41BF0100F40F094821BF029
:10572000400F40F0CA831BF4007F00F08C820F9B77
:105730000A9A1B681A702FE4E4AE0008D4AE000881
:10574000DDE9160102460B46FBF7AEF9002840F0F2
:105750001C86B9F1610F00F01F85B9F1410F00F00F
:105760004A85099B013300F0EF8329F02003472B82
:1057700000F0E1850E90DDE91612002A13464BF485
:105780008078C0F2E68400231593DDE91623CDE985
:105790002223A9F14103252B00F20E83DFE813F049
:1057A00018040C030C030C03D803A5040C030C030E
:1057B0000C030C030C030C030C030C030C030C0371
:1057C0000C030C030C030C030C030C030C030C0361
:1057D0000C030C030C030C030C030C030C030C0351
:1057E00018040C030C030C03D803A504A64B109655
:1057F00019931BF0200200F01A810F9B073323F04E
:10580000070319465A6851F8083B0F911BF0010F26
:1058100009D053EA020106D030218DF899904BF05F
:10582000020B8DF8981002212BF48067FFF7D3BB91
:105830005F4610960FE41096FFF7F9BB934B109656
:105840001993D6E70F9B43AD1B688DF80C310123EC
:1058500006930C93FFF70BBB50460D9930AA00F04E
:105860006BFE00287FF465AD329E33AC7BE44021B3
:105870005846FEF70BFE0D9B18601861002800F0DB
:105880003F8640230D9A5361FFF7DCB8099B2946F8
:10589000062B28BF06232A4609950E95CDE913113C
:1058A0007B4D06930F970C931191FFF77BBA102F46
:1058B000319B40F31D86774932464FF010090E4662
:1058C000DDF83480159104E00834103F102F40F3C8
:1058D000EE8101331032072BC4E90069CDE9313282
:1058E000F2DD4146504630AA00F026FE00287FF443
:1058F00020ADDDE9313233ACE7E7129B2246EB18ED
:105900000993139B4C46002B3146DDF85080CDF8AF
:1059100044B0DDF86C90209EDDF834B0149531DD94
:10592000B8F1000F40F3338108F1FF3831981D9B27
:10593000013031440728C2E900363291319000F33A
:1059400089800832099B99F800001F1B8742A8BF75
:105950000746002F0CDD3198394401300728C2E991
:1059600000473291319000F3558199F800000832D8
:10597000002FB4BF0546C51B002D14DC0444139B47
:10598000002BCDDCB8F1000FCEDCCDF86C90A14639
:10599000149D129B1446EB1899450E4628BF994654
:1059A000DDF844B0BFE5102D31983A4B23DD0C945F
:1059B00010272C461D4604E0103C102C02F1080272
:1059C00016DD0130334B10310728C2E90037CDE92D
:1059D0003101F1DD5946504630AA00F0ADFD0028F6
:1059E0007FF4A7ACDDE93101103C102C33AAE8DCD0
:1059F0002B4625460C9C013029440728CDE931016E
:105A00001360556000F3AD8399F800000832044438
:105A1000B5E7189A1A991644C4E90012319A3296D9
:105A20000132072A319200F3C883083484E50F99C4
:105A30001BF0100051F8043B0AD11BF0400503D0C5
:105A400002460F919BB2E1E61BF4007240F09D818B
:105A50000F91DBE65946504630AA00F06DFD002854
:105A60007FF467AC329933AA6CE707F480610C9736
:105A70000E944FF0000E0F46DFF81CB01B9C0DF586
:105A8000B87CCDF8189010E0BC9E0008A89E0008D5
:105A9000D09E0008D4AE0008CDCCCCCC0A2B72F13D
:105AA000000237D343463246AC46991841F1000113
:105AB000ABFB010626F0030000EB96004FF0CC365E
:105AC000091A581A06FB00F662F10009A0FB0B80C8
:105AD0000BFB09660644052008F00109A9FB000933
