:020000040800F2
:1000000000500020850500081504000817040008AA
:10001000190400081B0400081D040008000000006B
:100020000000000000000000000000001F040008A5
:100030002104000800000000230400082504000833
:10004000CD050008CD050008CD050008CD05000848
:10005000CD050008CD050008CD050008CD05000838
:10006000CD050008CD050008CD050008CD05000828
:100070002D0400083D040008CD050008CD0500084A
:10008000CD050008CD050008CD050008CD05000808
:10009000CD050008CD050008CD050008CD050008F8
:1000A000CD050008CD050008CD050008CD050008E8
:1000B000CD050008CD050008CD050008CD050008D8
:1000C000CD050008CD050008CD050008CD050008C8
:1000D000CD050008CD050008CD0500084D04000839
:1000E000CD050008CD050008CD0500080000000082
:1000F0000000000000000000000000000000000000
:0C01000000000000000000005FF808F1A3
:10010C000348044B834202D0034B03B1184770479A
:10011C001000002010000020000000000548064BD5
:10012C001B1AD90F01EBA301491002D0034B03B1E9
:10013C00184770471000002010000020000000003D
:10014C0010B5064C237843B9FFF7DAFF044B13B113
:10015C000448AFF300800123237010BD1000002071
:10016C0000000000141D000808B5054B1BB1054923
:10017C000548AFF30080BDE80840FFF7CFBF00BFD4
:10018C000000000014000020141D000800B583B00E
:10019C000E4B5A6942F001025A615B6903F001038C
:1001AC000193019B002211460C2000F09BFA0C20BD
:1001BC0000F0A8FA002211460D2000F093FA0D2051
:1001CC0000F0A0FA03B05DF804FB00BF0010024081
:1001DC002DE9F04188B0002404940594069407940A
:1001EC001F4B9A6942F020029A619A6902F0200230
:1001FC000192019A9A6942F004029A619A6902F09A
:10020C0004020292029A9A6942F008029A619B696E
:10021C0003F008030393039BDFF848802246C021B8
:10022C00404600F035FD104E22460121304600F0CC
:10023C002FFDC023049301250595069402270797EB
:10024C0004A9404600F016FC049505950694079702
:10025C0004A9304600F00EFC08B0BDE8F08100BFE8
:10026C000010024000080140000C014038B5274B3B
:10027C00834200D038BD0C46254D0A462946184607
:10028C0001F018F92B78AA2B0BD0642220491F48B7
:10029C0001F026FC1F4B1A68136823F0020313604D
:1002AC00E8E76B78A342F0D100231A46651E9D4205
:1002BC0005DD1749C95C0A44D2B20133F6E7144B89
:1002CC005B5D9342E1D1022408E0114B1B5D012BD5
:1002DC000DD0022B10D0032B13D00234A542D4DD49
:1002EC00631C0B4AD25C002AEFD00122EDE70121FE
:1002FC00094800F0CDFCF0E78021084800F0C8FC6C
:10030C00EBE74021054800F0C3FCE6E718010020AC
:10031C002C000020D4000020000C014000080140FB
:10032C0072B6FEE700B591B02822002106A801F0B4
:10033C000BFC002301930293039304930593012276
:10034C0006924FF4803307930A9202220D920E9379
:10035C004FF4E0130F9306A800F0B6FC80B90F23FE
:10036C00019302210291002303934FF480620492C3
:10037C00059301A800F0DAFE20B911B05DF804FB7A
:10038C00FFF7CEFFFFF7CCFF08B500F041F9FFF700
:10039C00C9FFFFF71DFFFFF7F9FE00F05BF86422C1
:1003AC000549064801F09CFB054B1A68136823F0BD
:1003BC0002031360FEE700BF2C0000201801002090
:1003CC00D400002082B00E4B9A6942F001029A616F
:1003DC009A6902F001020092009ADA6942F08052A6
:1003EC00DA61DB6903F080530193019B054A536882
:1003FC0023F0E06343F00073536002B0704700BF1A
:10040C000010024000000140FEE7FEE7FEE7FEE7B9
:10041C00FEE770477047704708B500F00BF908BD50
:10042C0008B5024800F084FA08BD00BF9000002017
:10043C0008B5024800F07CFA08BD00BFD4000020CB
:10044C0008B5024801F05CF908BD00BF1801002096
:10045C007047000008B50A480A4B03604FF4165366
:10046C00436000238360C36003610C22426183619B
:10047C00C36100F0EFFF00B908BDFFF751FFFBE7C8
:10048C00180100200048004070B586B0002302938C
:10049C000393049305930268314B9A4201D006B042
:1004AC0070BD044603F5E433DA6942F48022DA6164
:1004BC00DA6902F480220092009A9A6942F00802EA
:1004CC009A619B6903F008030193019B4FF48063CD
:1004DC0002930223039303230593224E02A9304671
:1004EC0000F0C8FA4FF400630293002503950495BD
:1004FC0002A9304600F0BEFA1B481C4B0360456055
:10050C0085608023C360056145618561C56100F02C
:10051C0031F9F0B9144BE3635C621548154B036079
:10052C0010234360002383608022C2600361436117
:10053C008361C36100F01EF970B90D4BA3635C625B
:10054C0000221146272000F0CDF8272000F0DAF821
:10055C00A5E7FFF7E5FEDDE7FFF7E2FEEDE700BFFD
:10056C0000480040000C0140D40000203000024044
:10057C00900000201C000240FFF76AFF0B480C495A
:10058C000C4A002302E0D458C4500433C4188C42E3
:10059C00F9D3094A094C002301E013600432A2424A
:1005AC00FBD301F021FBFFF7EFFE704700000020AA
:1005BC0010000020641D000810000020FC02002028
:1005CC00FEE7000010B504460E4B1A784FF47A7310
:1005DC00B3FBF2F30C4A1068B0FBF3F000F0A0F898
:1005EC0068B90F2C01D901200AE0002221464FF0F6
:1005FC00FF3000F077F8054B1C60002000E0012074
:10060C0010BD00BF040000200000002008000020E6
:10061C0008B5074A136843F010031360032000F079
:10062C004FF80F20FFF7CEFFFFF7CCFE002008BDE0
:10063C0000200240034A1168034B1B780B441360E3
:10064C00704700BF6001002004000020014B1868B7
:10065C00704700BF60010020002808DB0901C9B207
:10066C0000F1604000F5614080F80013704700F025
:10067C000F000901C9B2014B1954704714ED00E089
:10068C0000B500F00700C0F1070CBCF1040F28BF47
:10069C004FF0040C031D062B0FD9C31E4FF0FF3E69
:1006AC000EFA0CF021EA000199400EFA03FE22EA40
:1006BC000E0241EA02005DF804FB0023EEE70000A5
:1006CC00074AD36823F4E0631B041B0C000200F4FC
:1006DC00E060034343F0BF6343F40033D3607047DF
:1006EC0000ED00E010B50446054BD868C0F30220BD
:1006FC00FFF7C6FF01462046FFF7AEFF10BD00BF57
:10070C0000ED00E0002807DB00F01F024009012388
:10071C009340024A42F82030704700BF00E100E0ED
:10072C000138B0F1807F0BD24FF0E0235861054ABD
:10073C00F02182F823100020986107221A6170477B
:10074C000120704700ED00E030B40124056CAC4092
:10075C00C56B6C60046863604368102B05D003683C
:10076C0099600368DA6030BC704703689A6003686C
:10077C00D960F8E750B310B402460168144B0B442F
:10078C001448A0FB03031B099B001364124BD36397
:10079C00022382F8213008686FF30D1053689468B7
:1007AC002343D46823431469234354692343946932
:1007BC002343D469234303430B600020906301233C
:1007CC0082F8213082F8200010BC7047012070475D
:1007DC00F8FFFDBFCDCCCCCC0000024038B50446B0
:1007EC0090F82000012832D0012084F8200094F8E1
:1007FC002100C0B2012804D0002384F8203002204C
:10080C0038BD022084F821000020A06325682868E8
:10081C0020F0010028602046FFF796FFE36A5BB1E9
:10082C002268136843F00E0313602268136843F0C8
:10083C00010313600020E3E72268136823F004032C
:10084C0013602268136843F00A031360EDE702207B
:10085C00D6E7034690F82120D2B2022A06D0042211
:10086C008263002280F820200120704701680A680A
:10087C0022F00E020A6001680A6822F001020A6086
:10088C00026CC06B012101FA02F2426083F8211064
:10089C00002083F82000704708B590F82130DBB2B7
:1008AC00022B03D004238363012008BD0268136864
:1008BC0023F00E0313600268136823F00103136026
:1008CC000368194A934214D0143293421FD0143245
:1008DC0093421ED0143293421ED0143293421ED037
:1008EC001432934202D04FF0807203E04FF4801226
:1008FC0000E001220D4B5A60012380F821300023C7
:10090C0080F82030436B6BB198470020CDE7102264
:10091C00F0E74FF48072EDE74FF48052EAE74FF4C2
:10092C008032E7E70020C0E70800024000000240E8
:10093C0038B5C36B1A6804682568016C04238B40B6
:10094C00134235D015F0040F32D0236813F0200F6A
:10095C0003D1236823F0040323600368434A9342C2
:10096C0014D01432934218D01432934217D014324C
:10097C00934217D01432934217D01432934202D0C0
:10098C004FF0806203E04FF4800200E00422384B09
:10099C005A60C36A03B1984738BD4022F7E74FF459
:1009AC008062F4E74FF48042F1E74FF48022EEE7E7
:1009BC0002238B4013423CD015F0020F39D0236830
:1009CC0013F0200F06D1236823F00A0323600123C0
:1009DC0080F821300368254A934214D01432934294
:1009EC001CD0143293421BD0143293421BD01432BD
:1009FC0093421BD01432934202D04FF0007203E0AA
:100A0C004FF4001200E00222194B5A60002380F8C8
:100A1C002030836A002BBFD09847BDE72022F3E734
:100A2C004FF40072F0E74FF40052EDE74FF4003250
:100A3C00EAE708238B401342AED015F0080FABD079
:100A4C00236823F00E032360026CC16B012303FAAD
:100A5C0002F24A60836380F82130002380F8203052
:100A6C00036B002B98D0984796E700BF0800024014
:100A7C000000024070B582B00024A446A1E07E4D77
:100A8C00AB4214D00CD8A5F58015AB420FD005F5B0
:100A9C007025AB420BD0A5F58015AB4210D106E00A
:100AAC00764DAB4203D005F58035AB4208D18B684F
:100ABC00002B50D0012B49D04261082400E0CC68B7
:100ACC00BEF1FF0F49D806464FEA8C0233680F255A
:100ADC00954023EA050304FA02F2134333604B6892
:100AEC0013F0805F6BD0664B9A6942F001029A61F9
:100AFC009B6903F001030193019B4FEA9C02951C37
:100B0C00604B53F825600CF00305AD000F23AB4090
:100B1C0026EA03065C4B984226D003F58063984284
:100B2C0000F08C8003F58063984200F0898003F517
:100B3C008063984216D0042317E0CC680434BFE7D6
:100B4C00CC680834BCE7CC680C34B9E702610824E3
:100B5C00B6E70024B4E70424B2E7061DACF10802A2
:100B6C009200B3E7032300E00023AB40334302328F
:100B7C00444D45F822304B6813F4801F62D0434A31
:100B8C00936843EA0E0393604B6813F4001F5FD025
:100B9C003E4AD36843EA0E03D3604B6813F4003F1C
:100BAC005CD03A4A536843EA0E0353604B6813F423
:100BBC00803F59D0354A136843EA0E0313600CF199
:100BCC00010C0B6833FA0CF254D0012202FA0CF22D
:100BDC0003EA020E32EA0303F1D14B68122B3FF603
:100BEC004EAF122B3FF66CAF01A555F823F000BFAA
:100BFC00BB0A0008CB0A00084D0B00085F0B00086D
:100C0C00CD0A0008CD0A0008CD0A0008CD0A00085C
:100C1C00CD0A0008CD0A0008CD0A0008CD0A00084C
:100C2C00CD0A0008CD0A0008CD0A0008CD0A00083C
:100C3C00CD0A0008470B0008530B0008012394E76A
:100C4C00022392E7114A936823EA0E0393609BE711
:100C5C000E4AD36823EA0E03D3609EE70B4A53680F
:100C6C0023EA0E035360A1E7084A136823EA0E0334
:100C7C001360A4E702B070BD000022100000311018
:100C8C000010024000000140000801400004014037
:100C9C000AB10161704709040161704782B0084BC9
:100CAC001B68084AA2FB03235B0A00FB03F30193B6
:100CBC0000BF019B5A1E0192002BF9D102B0704764
:100CCC0000000020D34D6210002800F0F18170B5B7
:100CDC0082B00446036813F0010F2CD0994B5B686B
:100CEC0003F00C03042B1DD0964B5B6803F00C0334
:100CFC00082B12D06368B3F5803F41D0002B55D13F
:100D0C0003F1804303F504331A6822F480321A602D
:100D1C001A6822F480221A6037E08A4B5B6813F45D
:100D2C00803FE7D0874B1B6813F4003F03D0636808
:100D3C00002B00F0BF81236813F0020F75D0814B9C
:100D4C005B6813F00C0F5FD07E4B5B6803F00C03F9
:100D5C00082B54D02369002B00F08A807A4B012297
:100D6C001A60FFF773FC0546764B1B6813F0020FF5
:100D7C0075D1FFF76BFC401B0228F5D903209EE1CF
:100D8C00704A136843F480331360636843B3FFF70E
:100D9C005DFC05466B4B1B6813F4003FCBD1FFF792
:100DAC0055FC401B6428F5D9032088E1B3F5A02F2E
:100DBC0009D0644B1A6822F480321A601A6822F443
:100DCC0080221A60E1E703F18043A3F53C331A68F3
:100DDC0042F480221A601A6842F480321A60D4E716
:100DEC00FFF734FC0546574B1B6813F4003FA2D0A9
:100DFC00FFF72CFC401B6428F5D903205FE1514B15
:100E0C005B6813F4803FA5D14E4B1B6813F0020FA7
:100E1C0003D02369012B40F04F814A4A136823F019
:100E2C00F803616943EAC1031360236813F0080FE8
:100E3C0033D0A369002B5CD0434B0122C3F8802430
:100E4C00FFF704FC05463F4B5B6A13F0020F21D100
:100E5C00FFF7FCFB401B0228F5D903202FE1394A90
:100E6C00136823F0F803616943EAC1031360DCE7FC
:100E7C00354B00221A60FFF7E9FB0546314B1B6826
:100E8C0013F0020FD1D0FFF7E1FB401B0228F5D97C
:100E9C00032014E10120FFF701FF236813F0040F76
:100EAC0000F09680274BDB6913F0805F34D1254B23
:100EBC00DA6942F08052DA61DB6903F08053019306
:100ECC00019B0125214B1B6813F4807F26D0E3681E
:100EDC00012B3DD0002B53D103F1804303F5043398
:100EEC001A6A22F001021A621A6A22F004021A62C9
:100EFC0033E0154B0022C3F88024FFF7A7FB05460F
:100F0C00104B5B6A13F0020FC7D0FFF79FFB401B1F
:100F1C000228F5D90320D2E00025D3E70B4A136849
:100F2C0043F480731360FFF791FB0646074B1B6875
:100F3C0013F4807FCBD1FFF789FB801B6428F5D994
:100F4C000320BCE000100240000042420070004050
:100F5C005F4A136A43F001031362E36833B3FFF78C
:100F6C0075FB06465A4B1B6A13F0020F2FD1FFF785
:100F7C006DFB801B41F288339842F3D903209EE02D
:100F8C00052B09D0524B1A6A22F001021A621A6A16
:100F9C0022F004021A62E0E74D4B1A6A42F0040296
:100FAC001A621A6A42F001021A62D6E7FFF74EFB88
:100FBC000646474B1B6A13F0020F08D0FFF746FB9F
:100FCC00801B41F288339842F3D9032077E0E5B9CE
:100FDC00E369002B72D03E4A526802F00C02082AD8
:100FEC0056D0022B17D03B4B00221A66FFF72EFB74
:100FFC000446374B1B6813F0007F47D0FFF726FBE6
:10100C00001B0228F5D9032059E0314AD36923F09B
:10101C008053D361DCE72F4B00221A66FFF716FBD7
:10102C0005462B4B1B6813F0007F06D0FFF70EFB19
:10103C00401B0228F5D9032041E0236AB3F5803F19
:10104C001AD023494B6823F47413226A606A024352
:10105C0013434B601F4B01221A66FFF7F7FA044645
:10106C001B4B1B6813F0007F0ED1FFF7EFFA001B30
:10107C000228F5D9032022E0154A536823F40033E3
:10108C00A1680B435360DCE7002018E0002016E059
:10109C00012B16D00E4B5B6803F48031226A91420F
:1010AC0011D103F47013626A93420ED1002006E052
:1010BC0001207047012002E0012000E0002002B076
:1010CC0070BD0120FBE70120F9E70120F7E700BF25
:1010DC0000100240000042420F4B5B6803F00C0210
:1010EC00082A01D00D487047C3F383420C49885C31
:1010FC0013F4803F0BD0084B5B68C3F34043094AA1
:10110C00D35C064A02FB00F0B0FBF3F07047064BD1
:10111C0003FB00F0704700BF0010024000127A0081
:10112C00481D0008441D000800093D00002800F07F
:10113C00A08070B50D460446524B1B6803F00703A4
:10114C008B420BD24F4A136823F007030B431360F7
:10115C00136803F007038B4240F08D80236813F073
:10116C00020F17D013F0040F04D0474A536843F40E
:10117C00E0635360236813F0080F04D0424A5368AD
:10118C0043F460535360404A536823F0F003A16862
:10119C000B435360236813F0010F31D06368012BAC
:1011AC0020D0022B25D0384A126812F0020F64D0DE
:1011BC0035494A6822F0030213434B60FFF746FAA5
:1011CC000646314B5B6803F00C036268B3EB820F8D
:1011DC0016D0FFF73BFA801B41F288339842F0D9C6
:1011EC00032045E0284A126812F4003FE0D10120A8
:1011FC003EE0254A126812F0007FD9D1012037E079
:10120C00204B1B6803F00703AB420AD91D4A136835
:10121C0023F007032B431360136803F00703AB425F
:10122C002DD1236813F0040F06D0174A536823F40A
:10123C00E063E1680B435360236813F0080F07D099
:10124C00114A536823F46053216943EAC103536084
:10125C00FFF742FF0C4B5B68C3F303130B4AD35CE1
:10126C00D8400B4B18600B4B1868FFF7ABF90020FC
:10127C0070BD012070470120FAE70120F8E701203A
:10128C00F6E700BF0020024000100240341D0008A9
:10129C000000002008000020014B1868704700BFB8
:1012AC000000002008B5FFF7F7FF044B5B68C3F3A1
:1012BC000223034AD35CD84008BD00BF0010024093
:1012CC002C1D000808B5FFF7E7FF044B5B68C3F360
:1012DC00C223034AD35CD84008BD00BF00100240B3
:1012EC002C1D0008026802F10C0353E8003F23F0A8
:1012FC00C0030C3242E800310029F3D1202380F8DE
:10130C0041307047026802F10C0353E8003F23F4AC
:10131C0090730C3242E800310029F3D1026802F1DB
:10132C00140353E8003F23F00103143242E8003168
:10133C000029F3D1036B012B05D0202380F8423018
:10134C00002303637047026802F10C0353E8003F6B
:10135C0023F010030C3242E800310029F3D1ECE702
:10136C0090F84130DBB2212B01D00220704783680A
:10137C00B3F5805F17D0036A5A1C02621A780368AF
:10138C005A60C38C9BB2013B9BB2C3844BB90268BD
:10139C00D36823F08003D3600268D36843F0400322
:1013AC00D360002070470369002BE4D1036A1B88CB
:1013BC000268C3F308035360036A02330362E0E775
:1013CC0010B504460268136923F44053C1680B43FB
:1013DC00136183680269134342691A430168CB683D
:1013EC0023F4B05323F00C031343CB60026853690E
:1013FC0023F4407381690B4353610268134B9A4287
:10140C0020D0FFF74FFF024602EB820202EB820272
:10141C0063689B00B2FBF3F20D48A0FB0231490953
:10142C00642303FB11231B013233A0FB03035B0971
:10143C0003F0F00202EB011203F00F0321681344D6
:10144C008B6010BDFFF73EFF0246DDE70038014020
:10145C001F85EB5160B310B5044690F8413013B3BF
:10146C00242384F841302268D36823F40053D360DA
:10147C002046FFF7A5FF2268136923F490431361FC
:10148C002268536923F02A0353612268D36843F41A
:10149C000053D36000206064202384F8413084F82A
:1014AC004230606310BD80F84030FEF7EDFFD7E7A7
:1014BC000120704738B5134690F84120D2B2202A4B
:1014CC002FD1044600292ED00BB9012038BD016262
:1014DC008384C38400224264212084F84100A06BE1
:1014EC00124D8562A06B124DC562A06B114D056348
:1014FC00A06B426322680432A06BFFF76FF923687C
:10150C006FF040021A60226802F1140353E8003FA6
:10151C0043F08003143242E800310029F3D100205B
:10152C00D4E70220D2E70120D0E700BF471500081E
:10153C00AF150008BF150008704708B50346406A90
:10154C001B681B6813F0200F1AD10023C384026898
:10155C0002F1140353E8003F23F08003143242E8F5
:10156C0000310029F3D1026802F10C0353E8003F6B
:10157C0043F040030C3242E800310029F3D108BD9E
:10158C00FFF7DAFFFBE708B50168CA6822F04002F2
:10159C00CA60202280F84120FFF7CEFF002008BD52
:1015AC00704708B5406AFFF7FBFF08BD70477047EE
:1015BC00704710B5446A23685A6994F84130DBB21D
:1015CC00212B10D023685A6902F0400294F8423063
:1015DC00DBB2222B11D0636C43F010036364204602
:1015EC00FFF7E6FF10BD02F08002002AEAD00023CC
:1015FC00E3842046FFF776FEE4E7002AEBD00023D5
:10160C00E3852046FFF77EFEE5E708B5406A002338
:10161C00C385C384FFF7CCFF08BD90F84230DBB222
:10162C00222B69D18368B3F5805F4FD0826AB3F502
:10163C00805F04D0002B56D10369002B53D1036873
:10164C005B681370836A01338362C38D9BB2013B69
:10165C009BB2C385002B51D100B583B00268D3680F
:10166C0023F02003D3600268D36823F48073D36023
:10167C000268536923F001035361202380F8423040
:10168C0000234363036B012B33D1002303630268F4
:10169C0002F10C0353E8003F23F010030C3242E834
:1016AC0000310029F3D103681A6812F0100F06D02C
:1016BC00002201921A6801925B680193019B818D53
:1016CC00FEF7D4FD002003B05DF804FB0269002A8C
:1016DC00ACD1826A03685B68C3F308031380836A26
:1016EC0002338362B1E703685B6803F07F03137016
:1016FC00A8E7FFF75BFFE5E7022070470020704783
:10170C0010B582B0044602681368D068516913F0B2
:10171C000F0F09D113F0200F0CD010F0200F09D0AF
:10172C002046FFF77AFF16E011F0010115D110F4F5
:10173C00907F12D1216B012979D013F0800F03D047
:10174C0010F0800F40F0138113F0400F03D010F015
:10175C00400F40F0108102B010BD13F0010F06D005
:10176C0010F4807F03D0626C42F00102626413F0CB
:10177C00040F04D019B1626C42F00202626413F0DF
:10178C00020F04D019B1626C42F00402626413F0CF
:10179C00080F07D010F0200F00D119B1626C42F085
:1017AC0008026264626C002AD5D013F0200F02D0BC
:1017BC0010F0200F29D123685B6903F04003626CA1
:1017CC0012F0080F00D163B32046FFF79BFD23688E
:1017DC005B6913F0400F20D0226802F1140353E828
:1017EC00003F23F04003143242E800310029F3D1CA
:1017FC00E36B73B1624A5A63E06BFFF74DF8002854
:10180C00A9D0E06B436B9847A5E72046FFF705FF8F
:10181C00D1E72046FFF7CCFE9DE72046FFF7C8FE38
:10182C0099E72046FFF7C4FE0023636493E713F0A7
:10183C00100F82D010F0100F3FF47FAF00230193F4
:10184C001368019353680193019B536913F0400F84
:10185C0051D0E26B13685B689BB2002B3FF47BAFFB
:10186C00A18D99427FF677AFE3859369202B37D012
:10187C00226802F10C0353E8003F23F480730C320E
:10188C0042E800310029F3D1226802F1140353E835
:10189C00003F23F00103143242E800310029F3D158
:1018AC00226802F1140353E8003F23F04003143282
:1018BC0042E800310029F3D1202384F84230002380
:1018CC002363226802F10C0353E8003F23F010035A
:1018DC000C3242E800310029F3D1E06BFEF7B9FF7E
:1018EC0002236363A18DE38D9BB2C91A89B2204692
:1018FC00FEF7BCFC2FE7A18DE38D9BB2C91A89B210
:10190C00E38D9BB2002B3FF426AF00293FF423AFAD
:10191C00226802F10C0353E8003F23F490730C325D
:10192C0042E800300028F3D1226802F1140353E896
:10193C00003F23F00103143242E800300028F3D1B9
:10194C00202384F8423000232363226802F10C0325
:10195C0053E8003F23F010030C3242E8003000281B
:10196C00F3D1022363632046FEF780FCF3E62046A6
:10197C00FFF7F6FCEFE62046FFF705FEEBE600BFAF
:10198C001716000808B5406A01234363036B012B4B
:10199C0002D0FFF70CFE08BD818D4908FEF766FCEE
:1019AC00F9E708B50346406A1B681B6813F0200F63
:1019BC002BD10023C385026802F10C0353E8003FCE
:1019CC0023F480730C3242E800310029F3D1026811
:1019DC0002F1140353E8003F23F00103143242E8F0
:1019EC0000310029F3D1026802F1140353E8003FDF
:1019FC0023F04003143242E800310029F3D12023B4
:101A0C0080F84230036B012B07D000234363036B38
:101A1C00012B0FD0FFF7CAFD08BD026802F10C03C1
:101A2C0053E8003F23F010030C3242E80031002948
:101A3C00F3D1EAE7818DFEF719FCEDE730B583B001
:101A4C00044613468162828500254564222280F873
:101A5C004220C26B1F489062E26B1F48D062E26B5F
:101A6C001E481063E26B556320680A46011DE06B4B
:101A7C00FEF7B4FE019523681A6801925B68019326
:101A8C00019B23695BB1226802F10C0353E8003F10
:101A9C0043F480730C3242E800310029F3D1226800
:101AAC0002F1140353E8003F43F00103143242E8FF
:101ABC0000310029F3D1226802F1140353E8003FEE
:101ACC0043F04003143242E800310029F3D10020E6
:101ADC0003B030BDAF19000891190008BF150008FC
:101AEC0090F84230DBB2202B29D110B582B00446DD
:101AFC0039B312B9012002B010BD012303630023D6
:101B0C004363FFF79BFF0028F5D1236B012B01D01A
:101B1C000120F0E70023019323681A6801925B68A7
:101B2C000193019B226802F10C0353E8003F43F040
:101B3C0010030C3242E800310029F3D1DBE702201C
:101B4C0070470120D7E7000070B5860747D0541EB8
:101B5C00002A3ED00346CAB201E0013C39D303F857
:101B6C00012B9D07F9D1032C2CD9CDB205EB052502
:101B7C000F2C1A4605EB054534D9A4F1100C2CF0AA
:101B8C000F0603F1100EB6444FEA1C1CC2E90055B7
:101B9C00C2E9025510327245F8D10CF1010214F071
:101BAC000C0F03EB021204F00F0C13D0ACF1040376
:101BBC0023F003030433134442F8045B9342FBD138
:101BCC000CF003042CB1C9B21C4403F8011BA34252
:101BDC00FBD170BD64461346002CF4D1F9E70346E3
:101BEC001446C0E7A446E1E770B50F4B0F4DAB426E
:101BFC00A3EB050607D00024B61055F8043B0134BE
:101C0C009847A642F9D800F07FF8094D094B5E1BA6
:101C1C00AB424FEAA60606D0002455F8043B01342B
:101C2C009847A642F9D870BD581D0008581D0008E9
:101C3C00581D0008601D0008704700BF704700BFAA
:101C4C00024B13B1024800F005B8704700000000C9
:101C5C006D1C0008002301461A46184600F014B803
:101C6C0038B5074D074C2C1BA41005D0013C55F87A
:101C7C00043D9847002CF9D1BDE8384000F04AB833
:101C8C00641D0008601D00082DE9F8431B4D064635
:101C9C00286898460F469146FFF7CEFF184B1C68F4
:101CAC001CB3286865681F2D22DC4EB96B1C0235ED
:101CBC00636044F82570FFF7C1FF0020BDE8F8838E
:101CCC00012304EB8501C1F88890D4F88821AB403E
:101CDC001A43022EC4F88821C1F80881E6D1D4F841
:101CEC008C211A43C4F88C21E0E7064C1C60D8E721
:101CFC00FFF7A4FF4FF0FF30E0E700BF0C0000201F
:101D0C00680100206C010020F8B500BFF8BC08BCCD
:101D1C009E467047F8B500BFF8BC08BC9E4670479D
:101D2C00000000000102030400000000000000009D
:101D3C00010203040607080901020000020304055E
:0C1D4C00060708090A0B0C0D0E0F101002
:081D58004D1C00087501000894
:041D60004D01000829
:101D64000024F400010000001000000064010020C1
:040000050800058565
:00000001FF
