:020000040800F2
:100000000050002009050008790300087B03000860
:100010007D0300087F030008810300080000000042
:100020000000000000000000000000008303000842
:10003000850300080000000087030008890300080A
:100040005105000851050008510500085105000838
:100050005105000851050008510500085105000828
:100060005105000851050008510500085105000818
:100070005105000851050008510500085105000808
:1000800051050008510500085105000851050008F8
:1000900051050008510500085105000851050008E8
:1000A00051050008510500085105000851050008D8
:1000B00051050008510500085105000851050008C8
:1000C00051050008510500085105000851050008B8
:1000D00051050008510500085105000851050008A8
:1000E00051050008510500085105000800000000F6
:1000F0000000000000000000000000000000000000
:0C01000000000000000000005FF808F1A3
:10010C000348044B834202D0034B03B1184770479A
:10011C001000002010000020000000000548064BD5
:10012C001B1AD90F01EBA301491002D0034B03B1E9
:10013C00184770471000002010000020000000003D
:10014C0010B5064C237843B9FFF7DAFF044B13B113
:10015C000448AFF300800123237010BD1000002071
:10016C0000000000E816000808B5054B1BB1054956
:10017C000548AFF30080BDE80840FFF7CFBF00BFD4
:10018C000000000014000020E816000884B00F4B9B
:10019C009A6942F020029A619A6902F02002019257
:1001AC00019A9A6942F004029A619A6902F0040277
:1001BC000292029A9A6942F008029A619B6903F0D2
:1001CC0008030393039B04B0704700BF0010024068
:1001DC0072B6FEE700B591B02822002106A801F006
:1001EC009DF9002301930293039304930593012239
:1001FC0006924FF4803307930A9202220D920E93CB
:10020C004FF4E0130F9306A800F08AFB80B90F237C
:10021C00019302210291002303934FF48062049214
:10022C00059301A800F0AEFD20B911B05DF804FBF8
:10023C00FFF7CEFFFFF7CCFFF8B500F0ABF9FFF7F7
:10024C00C9FFFFF7A3FF00F0EFF8334C0021204665
:10025C0001F0C0F80421204601F0BCF8082120462A
:10026C0001F0B8F83C271E26002500243EE02A4663
:10027C00294B1B685A63294B83FB0423A3EBE473C0
:10028C0003EB43039C4211D1731C254A82FB0312DE
:10029C00DE17C6EBA216C82202FB1636642E01DD51
:1002AC00921B00E032461C4B1B689A631D4A82FB72
:1002BC000432E317C3EB620303EB83039C4211D1BB
:1002CC007B1C174A82FB0312DF17C7EBA217C8224D
:1002DC0002FB1737642F01DDD21B00E03A460E4BB0
:1002EC001B68DA63042000F079F9013442F20F73D1
:1002FC009C42BADC14F0010FBDD16B1C084A82FB86
:10030C000312DD17C5EBA215C82202FB1535642DAF
:10031C00ADDD521BACE700BF2C00002056555555E7
:10032C001F85EB516766666682B00E4B9A6942F088
:10033C0001029A619A6902F001020092009ADA694C
:10034C0042F08052DA61DB6903F080530193019B28
:10035C00054A536823F0E06343F00073536002B026
:10036C00704700BF0010024000000140FEE7FEE7AE
:10037C00FEE7FEE7FEE770477047704708B500F0F0
:10038C001BF908BD704700000268094B9A4200D067
:10039C00704782B003F50333DA6942F00202DA6186
:1003AC00DB6903F002030193019B02B0704700BFAD
:1003BC000004004010B586B000230293039304930D
:1003CC0005930268154B9A4201D006B010BD03F597
:1003DC0003339A6942F004029A619A6902F00402AA
:1003EC000092009A9A6942F008029A619B6903F0A4
:1003FC0008030193019BC0230293022403940594E8
:10040C0002A9074800F068F90123029303940594AC
:10041C0002A9044800F060F9D7E700BF00040040CF
:10042C0000080140000C014000B58FB000230A9376
:10043C000B930C930D9308930993019302930393DD
:10044C0004930593069307932A482B4A026047228C
:10045C00426083606322C2600361836100F02CFE02
:10046C00002832D14FF480530A930AA9214800F096
:10047C0023FF68BB1F4800F04BFE60BB00230893B2
:10048C00099308A91B4801F013F838BB60230193AA
:10049C003223029300220392059201A9154800F021
:1004AC0091FEF0B904220DEB0201124800F08AFE15
:1004BC00D0B9082201A90F4800F084FEB8B90D4844
:1004CC00FFF778FF0FB05DF804FBFFF781FEC9E77B
:1004DC00FFF77EFECEE7FFF77BFECFE7FFF778FE58
:1004EC00D4E7FFF775FEDDE7FFF772FEE1E7FFF7F4
:1004FC006FFEE4E72C00002000040040FFF742FFF1
:10050C000B480C490C4A002302E0D458C450043365
:10051C00C4188C42F9D3094A094C002301E013603A
:10052C000432A242FBD301F049F8FFF785FE704775
:10053C0000000020100000203017000810000020E0
:10054C0010020020FEE7000010B504460E4B1A788E
:10055C004FF47A73B3FBF2F30C4A1068B0FBF3F070
:10056C0000F0A6F868B90F2C01D901200AE000228E
:10057C0021464FF0FF3000F08BF8054B1C6000203B
:10058C0000E0012010BD00BF04000020000000208E
:10059C000800002008B5074A136843F010031360E5
:1005AC00032000F063F80F20FFF7CEFFFFF7BCFE2F
:1005BC00002008BD00200240034A1168034B1B7841
:1005CC000B441360704700BF74000020040000202F
:1005DC00014B1868704700BF7400002038B5044602
:1005EC00FFF7F6FF0546B4F1FF3F02D0044B1B7832
:1005FC001C44FFF7EDFF401BA042FAD338BD00BFEF
:10060C0004000020002808DB0901C9B200F1604099
:10061C0000F5614080F80013704700F00F000901ED
:10062C00C9B2014B1954704714ED00E000B500F04D
:10063C000700C0F1070CBCF1040F28BF4FF0040CED
:10064C00031D062B0FD9C31E4FF0FF3E0EFA0CF004
:10065C0021EA000199400EFA03FE22EA0E0241EA59
:10066C0002005DF804FB0023EEE70000074AD368A4
:10067C0023F4E0631B041B0C000200F4E060034352
:10068C0043F0BF6343F40033D360704700ED00E0E8
:10069C0010B50446054BD868C0F30220FFF7C6FF1F
:1006AC0001462046FFF7AEFF10BD00BF00ED00E095
:1006BC000138B0F1807F0BD24FF0E0235861054A2E
:1006CC00F02182F823100020986107221A617047EC
:1006DC000120704700ED00E070B582B00024A44604
:1006EC00A1E07E4DAB4214D00CD8A5F58015AB42E1
:1006FC000FD005F57025AB420BD0A5F58015AB429C
:10070C0010D106E0764DAB4203D005F58035AB42F7
:10071C0008D18B68002B50D0012B49D042610824A2
:10072C0000E0CC68BEF1FF0F49D806464FEA8C02B8
:10073C0033680F25954023EA050304FA02F21343AC
:10074C0033604B6813F0805F6BD0664B9A6942F054
:10075C0001029A619B6903F001030193019B4FEA2B
:10076C009C02951C604B53F825600CF00305AD0002
:10077C000F23AB4026EA03065C4B984226D003F5C8
:10078C008063984200F08C8003F58063984200F0FF
:10079C00898003F58063984216D0042317E0CC6857
:1007AC000434BFE7CC680834BCE7CC680C34B9E738
:1007BC0002610824B6E70024B4E70424B2E7061D5E
:1007CC00ACF108029200B3E7032300E00023AB4036
:1007DC0033430232444D45F822304B6813F4801FEA
:1007EC0062D0434A936843EA0E0393604B6813F458
:1007FC00001F5FD03E4AD36843EA0E03D3604B68B8
:10080C0013F4003F5CD03A4A536843EA0E0353603A
:10081C004B6813F4803F59D0354A136843EA0E03F2
:10082C0013600CF1010C0B6833FA0CF254D001225A
:10083C0002FA0CF203EA020E32EA0303F1D14B681E
:10084C00122B3FF64EAF122B3FF66CAF01A555F8AD
:10085C0023F000BF1F0700082F070008B10700088E
:10086C00C3070008310700083107000831070008EA
:10087C00310700083107000831070008310700086C
:10088C00310700083107000831070008310700085C
:10089C003107000831070008AB070008B70700084C
:1008AC00012394E7022392E7114A936823EA0E038B
:1008BC0093609BE70E4AD36823EA0E03D3609EE74E
:1008CC000B4A536823EA0E035360A1E7084A1368E6
:1008DC0023EA0E031360A4E702B070BD00002210DF
:1008EC0000003110001002400000014000080140DF
:1008FC000004014082B0084B1B68084AA2FB03238A
:10090C005B0A00FB03F3019300BF019B5A1E01928B
:10091C00002BF9D102B0704700000020D34D6210BB
:10092C00002800F0F18170B582B00446036813F022
:10093C00010F2CD0994B5B6803F00C03042B1DD0DA
:10094C00964B5B6803F00C03082B12D06368B3F56D
:10095C00803F41D0002B55D103F1804303F5043384
:10096C001A6822F480321A601A6822F480221A6003
:10097C0037E08A4B5B6813F4803FE7D0874B1B68EA
:10098C0013F4003F03D06368002B00F0BF81236891
:10099C0013F0020F75D0814B5B6813F00C0F5FD016
:1009AC007E4B5B6803F00C03082B54D02369002B9F
:1009BC0000F08A807A4B01221A60FFF709FE054687
:1009CC00764B1B6813F0020F75D1FFF701FE401B2D
:1009DC000228F5D903209EE1704A136843F4803352
:1009EC001360636843B3FFF7F3FD05466B4B1B685D
:1009FC0013F4003FCBD1FFF7EBFD401B6428F5D976
:100A0C00032088E1B3F5A02F09D0644B1A6822F4B7
:100A1C0080321A601A6822F480221A60E1E703F12E
:100A2C008043A3F53C331A6842F480221A601A689A
:100A3C0042F480321A60D4E7FFF7CAFD0546574BE3
:100A4C001B6813F4003FA2D0FFF7C2FD401B6428C3
:100A5C00F5D903205FE1514B5B6813F4803FA5D1BE
:100A6C004E4B1B6813F0020F03D02369012B40F08F
:100A7C004F814A4A136823F0F803616943EAC103C2
:100A8C001360236813F0080F33D0A369002B5CD0DC
:100A9C00434B0122C3F88024FFF79AFD05463F4BD8
:100AAC005B6A13F0020F21D1FFF792FD401B022865
:100ABC00F5D903202FE1394A136823F0F803616953
:100ACC0043EAC1031360DCE7354B00221A60FFF7E1
:100ADC007FFD0546314B1B6813F0020FD1D0FFF799
:100AEC0077FD401B0228F5D9032014E10120FFF704
:100AFC0001FF236813F0040F00F09680274BDB698D
:100B0C0013F0805F34D1254BDA6942F08052DA6100
:100B1C00DB6903F080530193019B0125214B1B687A
:100B2C0013F4807F26D0E368012B3DD0002B53D1EA
:100B3C0003F1804303F504331A6A22F001021A62AE
:100B4C001A6A22F004021A6233E0154B0022C3F831
:100B5C008024FFF73DFD0546104B5B6A13F0020F36
:100B6C00C7D0FFF735FD401B0228F5D90320D2E092
:100B7C000025D3E70B4A136843F480731360FFF727
:100B8C0027FD0646074B1B6813F4807FCBD1FFF77C
:100B9C001FFD801B6428F5D90320BCE00010024027
:100BAC0000004242007000405F4A136A43F00103A8
:100BBC001362E36833B3FFF70BFD06465A4B1B6A0F
:100BCC0013F0020F2FD1FFF703FD801B41F2883386
:100BDC009842F3D903209EE0052B09D0524B1A6A98
:100BEC0022F001021A621A6A22F004021A62E0E789
:100BFC004D4B1A6A42F004021A621A6A42F0010260
:100C0C001A62D6E7FFF7E4FC0646474B1B6A13F063
:100C1C00020F08D0FFF7DCFC801B41F288339842AE
:100C2C00F3D9032077E0E5B9E369002B72D03E4A93
:100C3C00526802F00C02082A56D0022B17D03B4BFC
:100C4C0000221A66FFF7C4FC0446374B1B6813F0EE
:100C5C00007F47D0FFF7BCFC001B0228F5D903200E
:100C6C0059E0314AD36923F08053D361DCE72F4B31
:100C7C0000221A66FFF7ACFC05462B4B1B6813F0E1
:100C8C00007F06D0FFF7A4FC401B0228F5D90320F7
:100C9C0041E0236AB3F5803F1AD023494B6823F413
:100CAC007413226A606A024313434B601F4B012288
:100CBC001A66FFF78DFC04461B4B1B6813F0007F74
:100CCC000ED1FFF785FC001B0228F5D9032022E08A
:100CDC00154A536823F40033A1680B435360DCE7D7
:100CEC00002018E0002016E0012B16D00E4B5B689C
:100CFC0003F48031226A914211D103F47013626AB9
:100D0C0093420ED1002006E001207047012002E042
:100D1C00012000E0002002B070BD0120FBE70120A3
:100D2C00F9E70120F7E700BF001002400000424243
:100D3C000F4B5B6803F00C02082A01D00D4870477A
:100D4C00C3F383420C49885C13F4803F0BD0084BEF
:100D5C005B68C3F34043094AD35C064A02FB00F0CC
:100D6C00B0FBF3F07047064B03FB00F0704700BF7D
:100D7C000010024000127A00141700081017000827
:100D8C0000093D00002800F0A08070B50D46044617
:100D9C00524B1B6803F007038B420BD24F4A13686C
:100DAC0023F007030B431360136803F007038B4214
:100DBC0040F08D80236813F0020F17D013F0040F4E
:100DCC0004D0474A536843F4E0635360236813F03C
:100DDC00080F04D0424A536843F460535360404AAE
:100DEC00536823F0F003A1680B435360236813F09E
:100DFC00010F31D06368012B20D0022B25D0384A4B
:100E0C00126812F0020F64D035494A6822F00302CE
:100E1C0013434B60FFF7DCFB0646314B5B6803F07A
:100E2C000C036268B3EB820F16D0FFF7D1FB801B6B
:100E3C0041F288339842F0D9032045E0284A1268E1
:100E4C0012F4003FE0D101203EE0254A126812F076
:100E5C00007FD9D1012037E0204B1B6803F007033A
:100E6C00AB420AD91D4A136823F007032B431360C6
:100E7C00136803F00703AB422DD1236813F0040F62
:100E8C0006D0174A536823F4E063E1680B435360C0
:100E9C00236813F0080F07D0114A536823F46053EA
:100EAC00216943EAC1035360FFF742FF0C4B5B68B7
:100EBC00C3F303130B4AD35CD8400B4B18600B4B9A
:100ECC001868FFF741FB002070BD0120704701201E
:100EDC00FAE70120F8E70120F6E700BF0020024006
:100EEC00001002400017000800000020080000203D
:100EFC0030B4026A036A23F0010303624568836914
:100F0C0023F073030C681C4322F002028B6813431A
:100F1C000B4A904206D0456084614A684263036282
:100F2C0030BC704723F00803CA681A4322F004034C
:100F3C0025F440754A692A438D691543EBE700BFD8
:100F4C00002C014030B4036A026A22F480720262FF
:100F5C004468C26922F073020D68154323F40073D0
:100F6C008A6843EA02230D4A904206D04460C56168
:100F7C004A68C263036230BC704723F40063CA68DA
:100F8C0043EA022323F4806324F440544A6944EA7C
:100F9C0002148A6944EA0214E8E700BF002C0140FD
:100FAC0030B4036A026A22F4805202624468C26955
:100FBC0022F4E6420D6842EA052223F400538D68C0
:100FCC0043EA0533074DA84206D04460C2614A6823
:100FDC000264036230BC704724F480444D6944EAD7
:100FEC008514F2E7002C014010B4036A046A24F063
:100FFC0001040462846924F0F00C4CEA021223F020
:10100C000A030B438261036210BC704710B4036A7D
:10101C00046A24F010040462846924F4704C4CEAD1
:10102C00023223F0A00343EA01138261036210BC75
:10103C007047836823F070030B4343F0070383600E
:10104C007047704703681B4A90420AD0B0F1804F3A
:10105C0007D0A2F59432904203D002F58062904200
:10106C0003D123F070034A681343124A90420AD00A
:10107C00B0F1804F07D0A2F59432904203D002F524
:10108C008062904203D123F44073CA68134323F067
:10109C0080034A69134303608B68C3620B688362E5
:1010AC00044B984202D00123436170470B690363E0
:1010BC00F9E700BF002C014040B310B5044690F88E
:1010CC003D30F3B1022384F83D30214651F8040B36
:1010DC00FFF7B8FF012384F8463084F83E3084F8DB
:1010EC003F3084F8403084F8413084F8423084F842
:1010FC00433084F8443084F8453084F83D30002087
:10110C0010BD80F83C30FFF73FF9DBE7012070475A
:10111C0040B310B5044690F83D30F3B1022384F887
:10112C003D30214651F8040BFFF78CFF012384F866
:10113C00463084F83E3084F83F3084F8403084F8F0
:10114C00413084F8423084F8433084F8443084F8D9
:10115C00453084F83D30002010BD80F83C30FFF75E
:10116C0070FFDBE70120704730B4036A026A22F09B
:10117C00100202624468826922F4E6420D6842EA77
:10118C00052223F020038D6843EA05130C4DA84279
:10119C0006D0446082614A688263036230BC704747
:1011AC0023F08003CD6843EA051323F0400324F4B5
:1011BC0040644D6944EA85048D6944EA8504E8E796
:1011CC00002C014038B590F83C30012B66D0044619
:1011DC000D46012380F83C300C2A5AD8DFE802F087
:1011EC00075959591B5959593059595944000068D4
:1011FC00FFF77EFE2268936943F00803936122682F
:10120C00936923F0040393612268936929690B4362
:10121C00936100203EE00068FFF7A6FF2268936907
:10122C0043F4006393612268936923F480639361B0
:10123C0022689369296943EA01239361002029E01C
:10124C000068FFF77FFE2268D36943F00803D3617F
:10125C002268D36923F00403D3612268D369296916
:10126C000B43D361002015E00068FFF799FE22685C
:10127C00D36943F40063D3612268D36923F4806398
:10128C00D3612268D369296943EA0123D361002021
:10129C0000E00120002384F83C3038BD0220FCE73C
:1012AC0010B4846824F47F4C42EA03220A4342EAD5
:1012BC000C02826010BC704790F83C30012B78D047
:1012CC0010B50446012380F83C30022380F83D30F1
:1012DC000268936823F47F4323F0770393600B68D1
:1012EC00602B4CD023D8402B54D011D8202B03D0BA
:1012FC000AD80BB1102B05D119462068FFF799FEBF
:10130C00002028E0012026E0302BF5D0012022E03F
:10131C00502B0AD1CA6849680068FFF765FE502156
:10132C002068FFF786FE002015E0012013E0B3F5DE
:10133C00805F3AD0B3F5005F14D0702B37D1CB68F7
:10134C004A6889680068FFF7ABFF2268936843F02E
:10135C00770393600020012384F83D30002384F848
:10136C003C3010BDCB684A6889680068FFF798FF6D
:10137C002268936843F4804393600020EBE7CA68CB
:10138C0049680068FFF742FE60212068FFF751FEB4
:10139C000020E0E7CA6849680068FFF725FE402195
:1013AC002068FFF746FE0020D5E70020D3E7012098
:1013BC00D1E70220704701F01F014FF0010C0CFA2D
:1013CC0001FC036A23EA0C030362036A8A40134399
:1013DC000362704710B50446084651BB94F83E3082
:1013EC00DBB2013B18BF0123002B5BD1002839D1A4
:1013FC00022384F83E30012201462068FFF7DBFF10
:10140C0023682A4A93423DD02368284A93423ED00F
:10141C00B3F1804F3BD0A2F59432934237D002F512
:10142C008062934233D01A6842F001021A600020A5
:10143C0039E0042908D008290DD094F84130DBB2EA
:10144C00013B18BF0123CFE794F83F30DBB2013BDF
:10145C0018BF0123C8E794F84030DBB2013B18BF3A
:10146C000123C1E7042805D0082807D0022384F8FB
:10147C004130C0E7022384F83F30BCE7022384F8F4
:10148C004030B8E75A6C42F400425A64BCE79A68A0
:10149C0002F00702062A07D01A6842F001021A600D
:1014AC00002000E0012010BD0020FCE7002C0140D2
:1014BC0090F83C20012A2CD010B40346012280F86D
:1014CC003C20022280F83D2002685068946820F08D
:1014DC00700C086840EA0C0050601A680E48824292
:1014EC000AD0B2F1804F07D0A0F59430824203D0DD
:1014FC0000F58060824204D124F0800449682143C5
:10150C009160012283F83D20002083F83C0010BC40
:10151C0070470220704700BF002C014070B5860751
:10152C0047D0541E002A3ED00346CAB201E0013C0B
:10153C0039D303F8012B9D07F9D1032C2CD9CDB24B
:10154C0005EB05250F2C1A4605EB054534D9A4F1FE
:10155C00100C2CF00F0603F1100EB6444FEA1C1CB5
:10156C00C2E90055C2E9025510327245F8D10CF1AE
:10157C00010214F00C0F03EB021204F00F0C13D049
:10158C00ACF1040323F003030433134442F8045B6B
:10159C009342FBD10CF003042CB1C9B21C4403F8E8
:1015AC00011BA342FBD170BD64461346002CF4D141
:1015BC00F9E703461446C0E7A446E1E770B50F4BC4
:1015CC000F4DAB42A3EB050607D00024B61055F81F
:1015DC00043B01349847A642F9D800F07FF8094D36
:1015EC00094B5E1BAB424FEAA60606D0002455F809
:1015FC00043B01349847A642F9D870BD2417000863
:10160C0024170008241700082C170008704700BF87
:10161C00704700BF024B13B1024800F005B8704789
:10162C000000000041160008002301461A46184627
:10163C0000F014B838B5074D074C2C1BA41005D07E
:10164C00013C55F8043D9847002CF9D1BDE83840D1
:10165C0000F04AB8301700082C1700082DE9F843A1
:10166C001B4D0646286898460F469146FFF7CEFF5D
:10167C00184B1C681CB3286865681F2D22DC4EB9FA
:10168C006B1C0235636044F82570FFF7C1FF002026
:10169C00BDE8F883012304EB8501C1F88890D4F8E8
:1016AC008821AB401A43022EC4F88821C1F8088166
:1016BC00E6D1D4F88C211A43C4F88C21E0E7064C0F
:1016CC001C60D8E7FFF7A4FF4FF0FF30E0E700BF46
:1016DC000C0000207C00002080000020F8B500BF2A
:1016EC00F8BC08BC9E467047F8B500BFF8BC08BCF7
:0416FC009E4670474F
:1017000000000000000000000102030406070809B1
:101710000102000002030405060708090A0B0C0D6C
:041720000E0F101088
:08172400211600087501000800
:04172C004D01000863
:101730000024F400010000001000000078000020E8
:0400000508000509E1
:00000001FF
