:020000040800F2
:100000000050002029150008691300086B13000830
:100010006D1300086F130008711300080000000042
:100020000000000000000000000000007313000842
:10003000751300080000000077130008791300080A
:100040007115000871150008711500087115000878
:100050007115000871150008711500087115000868
:100060007115000871150008711500087115000858
:100070007115000871150008711500087115000848
:10008000811300089113000871150008711500080C
:100090007115000871150008711500087115000828
:1000A0007115000871150008711500087115000818
:1000B000711500087115000871150008A1130008DA
:1000C000B1130008711500087115000871150008BA
:1000D00071150008711500087115000871150008E8
:1000E0007115000871150008711500080000000066
:1000F0000000000000000000000000000000000000
:0C01000000000000000000005FF808F1A3
:100110004FF0FF0C1CEAD0521EBF1CEAD15392EAEA
:100120000C0F93EA0C0F6FD01A4480EA010C4002C6
:1001300018BF5FEA41211ED04FF0006343EA501020
:1001400043EA5111A0FB01310CF00040B1F5000F62
:100150003EBF490041EAD3715B0040EA010062F111
:100160007F02FD2A1DD8B3F1004F40EBC25008BFFB
:1001700020F00100704790F0000F0CF0004C08BF19
:1001800049024CEA502040EA51207F3AC2BFD2F1E6
:10019000FF0340EAC250704740F400004FF00003F4
:1001A000013A5DDC12F1190FDCBF00F0004070472E
:1001B000C2F10002410021FA02F1C2F1200200FA6C
:1001C00002FC5FEA310040F1000053EA4C0308BF33
:1001D00020EADC70704792F0000F00F0004C02BF84
:1001E000400010F4000F013AF9D040EA0C0093F0FF
:1001F000000F01F0004C02BF490011F4000F013B59
:10020000F9D041EA0C018FE70CEAD15392EA0C0FC6
:1002100018BF93EA0C0F0AD030F0004C18BF31F031
:10022000004CD8D180EA010000F00040704790F007
:10023000000F17BF90F0004F084691F0000F91F0AB
:10024000004F14D092EA0C0F01D142020FD193EA71
:100250000C0F03D14B0218BF084608D180EA0100F9
:1002600000F0004040F0FE4040F40000704740F0D5
:10027000FE4040F44000704781F0004102E000BFC2
:1002800083F0004330B54FEA41044FEA430594EA56
:10029000050F08BF90EA020F1FBF54EA000C55EA91
:1002A000020C7FEA645C7FEA655C00F0E2804FEA62
:1002B0005454D4EB5555B8BF6D420CDD2C4480EA44
:1002C000020281EA030382EA000083EA010180EA74
:1002D000020281EA0303362D88BF30BD11F0004FC2
:1002E0004FEA01314FF4801C4CEA113102D04042F8
:1002F00061EB410113F0004F4FEA03334CEA133333
:1003000002D0524263EB430394EA050F00F0A7804A
:10031000A4F10104D5F1200E0DDB02FA0EFC22FA45
:1003200005F2801841F1000103FA0EF2801843FA39
:1003300005F359410EE0A5F120050EF1200E012A2A
:1003400003FA0EFC28BF4CF0020C43FA05F3C01868
:1003500051EBE37101F0004507D54FF0000EDCF1E1
:10036000000C7EEB00006EEB0101B1F5801F1BD38A
:10037000B1F5001F0CD349085FEA30004FEA3C0C8E
:1003800004F101044FEA445212F5800F80F09A8084
:10039000BCF1004F08BF5FEA500C50F1000041EB88
:1003A000045141EA050130BD5FEA4C0C404141EB8C
:1003B0000101013C28BFB1F5801FE9D291F0000F87
:1003C00004BF01460020B1FA81F308BF2033A3F136
:1003D0000B03B3F120020CDA0C3208DD02F1140C2D
:1003E000C2F10C0201FA0CF021FA02F10CE002F168
:1003F0001402D8BFC2F1200C01FA02F120FA0CFC61
:10040000DCBF41EA0C019040E41AA2BF01EB0451A9
:10041000294330BD6FEA04041F3C1CDA0C340EDCA7
:1004200004F11404C4F1200220FA04F001FA02F3EA
:1004300040EA030021FA04F345EA030130BDC4F1A8
:100440000C04C4F1200220FA02F001FA04F340EA9D
:100450000300294630BD21FA04F0294630BD94F04E
:10046000000F83F4801306BF81F480110134013D35
:100470004EE77FEA645C18BF7FEA655C29D094EAA6
:10048000050F08BF90EA020F05D054EA000C04BF24
:100490001946104630BD91EA030F1EBF002100200F
:1004A00030BD5FEA545C05D14000494128BF41F0AE
:1004B000004130BD14F580043CBF01F5801130BD12
:1004C00001F0004545F0FE4141F470014FF000009D
:1004D00030BD7FEA645C1ABF194610467FEA655C4E
:1004E0001CBF0B46024650EA013406BF52EA0335F0
:1004F00091EA030F41F4002130BD00BF90F0000FDE
:1005000004BF0021704730B54FF4806404F1320419
:100510004FF000054FF0000150E700BF90F0000FD2
:1005200004BF0021704730B54FF4806404F13204F9
:1005300010F0004548BF40424FF000013EE700BFC9
:1005400042004FEAE2014FEA31014FEA02701FBF59
:1005500012F07F4393F07F4F81F06051704732F08B
:100560007F4208BF704793F07F4F04BF41F40021E2
:10057000704730B54FF4607401F0004521F0004140
:100580001CE700BF50EA010208BF704730B54FF0CA
:1005900000050AE050EA010208BF704730B511F0CB
:1005A000004502D5404261EB41014FF4806404F103
:1005B00032045FEA915C3FF4D8AE4FF003025FEA89
:1005C000DC0C18BF03325FEADC0C18BF033202EB0D
:1005D000DC02C2F1200300FA03FC20FA02F001FA67
:1005E00003FE40EA0E0021FA02F11444BDE600BF0A
:1005F00080F0004002E000BF81F0004142001FBFD8
:100600005FEA410392EA030F7FEA226C7FEA236CE0
:100610006AD04FEA1262D2EB1363C1BFD2184140D5
:1006200048404140B8BF5B42192B88BF704710F06B
:10063000004F40F4000020F07F4018BF404211F00E
:10064000004F41F4000121F07F4118BF494292EA76
:10065000030F3FD0A2F1010241FA03FC10EB0C00A2
:10066000C3F1200301FA03F100F0004302D549422F
:1006700060EB4000B0F5000F13D3B0F1807F06D3DC
:1006800040084FEA310102F10102FE2A51D2B1F1D4
:10069000004F40EBC25008BF20F0010040EA0300C9
:1006A0007047490040EB0000013A28BFB0F5000F49
:1006B000EDD2B0FA80FCACF1080CB2EB0C0200FAFF
:1006C0000CF0AABF00EBC25052421843BCBFD0404E
:1006D0001843704792F0000F81F4000106BF80F4C8
:1006E00000000132013BB5E74FEA41037FEA226C8B
:1006F00018BF7FEA236C21D092EA030F04D092F056
:10070000000F08BF0846704790EA010F1CBF002089
:10071000704712F07F4F04D1400028BF40F00040E6
:10072000704712F100723CBF00F50000704700F006
:10073000004343F0FE4040F4000070477FEA22622D
:1007400016BF08467FEA23630146420206BF5FEAFE
:10075000412390EA010F40F4800070474FF00003FE
:1007600004E000BF10F0004348BF40425FEA000CC5
:1007700008BF704743F0964301464FF000001CE06D
:1007800050EA010208BF70474FF000030AE000BFC3
:1007900050EA010208BF704711F0004302D5404201
:1007A00061EB41015FEA010C02BF84460146002073
:1007B00043F0B64308BFA3F18053A3F50003BCFA8E
:1007C0008CF2083AA3EBC25310DB01FA02FC63443B
:1007D00000FA02FCC2F12002BCF1004F20FA02F242
:1007E00043EB020008BF20F00100704702F1200235
:1007F00001FA02FCC2F1200250EA4C0021FA02F296
:1008000043EB020008BF20EADC707047844641EAEF
:10081000000313F0030349D1403A23D30B6803606C
:100820004B6843608B688360CB68C3600B6903616E
:100830004B6943618B698361CB69C3610B6A036256
:100840004B6A43628B6A8362CB6AC3620B6B03633E
:100850004B6B43638B6B8363CB6BC3634030403123
:10086000403ADBD230320BD30B6803604B684360F5
:100870008B688360CB68C36010301031103AF3D2BC
:100880000C3205D351F8043B40F8043B043AF9D24A
:10089000043208D0D2071CBF11F8013B00F8013B1D
:1008A00001D30B8803806046704700BF082A13D32A
:1008B0008B07B1D010F00303AED0C3F10403D21AFA
:1008C000DB071CBF11F8013B00F8013BA4D331F852
:1008D000023B20F8023B9FE7043AD9D3013A11F8D2
:1008E000013B00F8013BF9D20B7803704B78437061
:1008F0008B7883706046704770B54FF0FF0C4CF4F6
:10090000E06C1CEA11541DBF1CEA135594EA0C0F4D
:1009100095EA0C0F00F0DEF82C4481EA030621EA88
:100920004C5123EA4C5350EA013518BF52EA0335C3
:1009300041F4801143F4801338D0A0FB02CE4FF075
:100940000005E1FB02E506F00042E0FB03E54FF0A5
:100950000006E1FB03569CF0000F18BF4EF0010E9D
:10096000A4F1FF04B6F5007F64F5407404D25FEA99
:100970004E0E6D4146EB060642EAC62141EA55514C
:100980004FEAC52040EA5E504FEACE2EB4F1FD0C8E
:1009900088BFBCF5E06F1ED8BEF1004F08BF5FEA0C
:1009A000500E50F1000041EB045170BD06F00046BE
:1009B00046EA010140EA020081EA0301B4EB5C046B
:1009C000C2BFD4EB0C0541EA045170BD41F4801163
:1009D0004FF0000E013C00F3AB8014F1360FDEBF88
:1009E000002001F0004170BDC4F10004203C35DA64
:1009F0000C341BDC04F11404C4F1200500FA05F3E7
:100A000020FA04F001FA05F240EA020001F0004287
:100A100021F0004110EBD37021FA04F642EB0601FD
:100A20005EEA430E08BF20EAD37070BDC4F10C0427
:100A3000C4F1200500FA04F320FA05F001FA04F2EB
:100A400040EA020001F0004110EBD37041F10001D7
:100A50005EEA430E08BF20EAD37070BDC4F12005E2
:100A600000FA05F24EEA020E20FA04F301FA05F24A
:100A700043EA020321FA04F001F0004121FA04F2F2
:100A800020EA020000EBD3705EEA430E08BF20EAC2
:100A9000D37070BD94F0000F0FD101F000464000FC
:100AA00041EB010111F4801F08BF013CF7D041EA7E
:100AB000060195F0000F18BF704703F00046520082
:100AC00043EB030313F4801F08BF013DF7D043EA53
:100AD0000603704794EA0C0F0CEA135518BF95EA09
:100AE0000C0F0CD050EA410618BF52EA4306D1D190
:100AF00081EA030101F000414FF0000070BD50EAAF
:100B0000410606BF1046194652EA430619D094EA38
:100B10000C0F02D150EA013613D195EA0C0F05D122
:100B200052EA03361CBF104619460AD181EA030176
:100B300001F0004141F0FE4141F470014FF000002E
:100B400070BD41F0FE4141F4780170BD70B54FF0C9
:100B5000FF0C4CF4E06C1CEA11541DBF1CEA135549
:100B600094EA0C0F95EA0C0F00F0A7F8A4EB05042B
:100B700081EA030E52EA03354FEA013100F0888022
:100B80004FEA03334FF0805545EA131343EA1263EB
:100B90004FEA022245EA111545EA10654FEA0026A0
:100BA0000EF000419D4208BF964244F1FD0404F559
:100BB000407402D25B084FEA3202B61A65EB0305B5
:100BC0005B084FEA32024FF480104FF4002CB6EB72
:100BD000020E75EB030E22BFB61A754640EA0C00F2
:100BE0005B084FEA3202B6EB020E75EB030E22BF32
:100BF000B61A754640EA5C005B084FEA3202B6EB73
:100C0000020E75EB030E22BFB61A754640EA9C0031
:100C10005B084FEA3202B6EB020E75EB030E22BF01
:100C2000B61A754640EADC0055EA060E18D04FEABF
:100C3000051545EA16754FEA06164FEAC30343EA5F
:100C400052734FEAC2025FEA1C1CC0D111F4801F2C
:100C50000BD141EA00014FF000004FF0004CB6E725
:100C600011F4801F04BF01430020B4F1FD0C88BFC4
:100C7000BCF5E06F3FF6AFAEB5EB030C04BFB6EBCF
:100C8000020C5FEA500C50F1000041EB045170BDC2
:100C90000EF0004E4EEA113114EB5C04C2BFD4EBEF
:100CA0000C0541EA045170BD41F480114FF0000E73
:100CB000013C90E645EA060E8DE60CEA135594EAEF
:100CC0000C0F08BF95EA0C0F3FF43BAF94EA0C0FF2
:100CD0000AD150EA01347FF434AF95EA0C0F7FF467
:100CE00025AF104619462CE795EA0C0F06D152EABB
:100CF00003353FF4FDAE1046194622E750EA41069F
:100D000018BF52EA43067FF4C5AE50EA41047FF4AF
:100D10000DAF52EA43057FF4EBAE12E74FF0FF3C14
:100D200006E000BF4FF0010C02E000BF4FF0010CE5
:100D30004DF804CD4FEA410C7FEA6C5C4FEA430C5E
:100D400018BF7FEA6C5C1BD001B050EA410C0CBFAD
:100D500052EA430C91EA030F02BF90EA020F00200F
:100D6000704710F1000F91EA030F58BF994208BF76
:100D700090422CBFD8176FEAE37040F00100704733
:100D80004FEA410C7FEA6C5C02D150EA013C07D18A
:100D90004FEA430C7FEA6C5CD6D152EA033CD3D0D5
:100DA0005DF8040B704700BF8446104662468C46CF
:100DB0001946634600E000BF01B5FFF7B7FF002802
:100DC00048BF10F1000F01BD4DF808EDFFF7F4FF2B
:100DD0000CBF012000205DF808FB00BF4DF808EDB6
:100DE000FFF7EAFF34BF012000205DF808FB00BFD9
:100DF0004DF808EDFFF7E0FF94BF012000205DF8FB
:100E000008FB00BF4DF808EDFFF7CEFF94BF0120AF
:100E100000205DF808FB00BF4DF808EDFFF7C4FFA8
:100E200034BF012000205DF808FB00BF4FEA410CF1
:100E30007FEA6C5C02D150EA013C0AD14FEA430CD4
:100E40007FEA6C5C02D152EA033C02D14FF0000011
:100E500070474FF0010070474FEA410212F500124F
:100E600015D211D56FF47873B3EB625212D94FEAF1
:100E7000C12343F0004343EA505311F0004F23FADB
:100E800002F018BF404270474FF00000704750EA30
:100E9000013005D111F0004008BF6FF000407047ED
:100EA0004FF00000704700BF0348044B834202D05C
:100EB000034B03B118477047E4060020E406002006
:100EC000000000000548064B1B1AD90F01EBA301D7
:100ED000491002D0034B03B118477047E4060020C5
:100EE000E40600200000000010B5064C237843B94A
:100EF000FFF7DAFF044B13B10448AFF3008001237E
:100F0000237010BDE40600200000000060A500086A
:100F100008B5054B1BB105490548AFF30080BDE896
:100F20000840FFF7CFBF00BF00000000E806002028
:100F300060A5000800B585B0282000F065FB4FF0E3
:100F4000FF33009301230DF10F0270210D4801F0D2
:100F50004BFC9DF80F3013F0080F02D005B05DF880
:100F600004FB094B1B68ADF80C301B0C8DF80E30E0
:100F70004FF0FF330093032303AA7021014801F0CF
:100F800077FBEBE79007002078A5000808B503235E
:100F9000024A7021024801F0D3FD08BD0000002084
:100FA0009007002008B50623024A7021024801F08C
:100FB00087FE08BD0007002090070020194B93F919
:100FC0000030002B2CDB70B505460E46154CE27840
:100FD000A3781B0103EB1213607803EB0030FFF7DB
:100FE000BDFB1149FFF794F84FF05651FFF790F809
:100FF0003060E3781B0403F47023227903EB0223AF
:1010000060791844FFF7AAFB0849FFF781F84FF011
:101010005651FFF77DF80649FFF7EEFA286070BDDC
:10102000704700BF000700200000C842000048438E
:101030000000484200B583B00E4B5A6942F00102ED
:101040005A615B6903F001030193019B0022114681
:10105000102000F033FB102000F040FB002211466E
:10106000112000F02BFB112000F038FB03B05DF8DD
:1010700004FB00BF0010024084B00F4B9A6942F09D
:1010800020029A619A6902F020020192019A9A69FB
:1010900042F004029A619A6902F004020292029AF2
:1010A0009A6942F008029A619B6903F0080303936E
:1010B000039B04B0704700BF00100240034B834203
:1010C00000D07047024B02221A70FAE79007002006
:1010D000E4070020034B834200D07047024B0422F8
:1010E0001A70FAE790070020E407002008B50B48C3
:1010F0000B4B03600B4B436000238360C3604FF4D2
:101100008042026143618361C361036201F0D2F9ED
:1011100000B908BD00F07EF8FBE700BF9007002093
:1011200000540040A086010030B587B00023029330
:1011300003930493059302682F4B9A4201D007B0A2
:1011400030BD04462D4DAB6943F00803AB61AB697C
:1011500003F008030093009BC02302931223039320
:101160000323059302A9264800F052FCEB6943F4DF
:101170000013EB61EB6903F400130193019B214819
:10118000214B03600023436083608022C2600361BF
:1011900043618361C36100F0D9FA30BB194BA3638B
:1011A0005C621A481A4B036010234360002383607B
:1011B0008022C260036143618361C36100F0C6FAAB
:1011C000B0B9124B63635C62002211461F2000F02D
:1011D00075FA1F2000F082FA00221146202000F04C
:1011E0006DFA202000F07AFAA9E700F013F8D5E7AD
:1011F00000F010F8E5E700BF005400400010024086
:10120000000C01404C07002080000240080700202D
:101210006C00024072B6FEE700B591B028220021B2
:1012200006A803F083FA0023019302930393049327
:101230000593012206924FF4803307930A9202220B
:101240000D920E934FF4E0130F9306A802F0EAFC00
:1012500080B90F23019302210291002303934FF4DD
:1012600080620492059301A802F00EFF20B911B02C
:101270005DF804FBFFF7CEFFFFF7CCFF00B593B09E
:1012800000F09EF9FFF7C8FFFFF7F6FEFFF7D2FE6A
:10129000FFF72CFF00F0F4F8FFF74CFE03E0022B01
:1012A0000BD0042B12D01C4B1B78002BF7D1FFF76F
:1012B0006DFE194B01221A70F5E74B2000F0A4F9DE
:1012C000FFF770FE144B03221A70ECE710A911A867
:1012D000FFF774FE1198FFF733F904460D46109896
:1012E000FFF72EF9CDE9000122462B460B4903A852
:1012F00003F0B2F903A803F0F3FA4FF0FF3382B220
:1013000003A9074803F058F84FF47A7000F07CF90D
:10131000014B00221A70C6E7E40700207CA50008F4
:10132000EC07002082B00E4B9A6942F001029A61EC
:101330009A6902F001020092009ADA6942F0805242
:10134000DA61DB6903F080530193019B054A53681E
:1013500023F0E06343F00073536002B0704700BFB6
:101360000010024000000140FEE7FEE7FEE7FEE756
:10137000FEE770477047704708B500F033F908BDC5
:1013800008B5024800F09EFA08BD00BF080700201B
:1013900008B5024800F096FA08BD00BF4C070020CF
:1013A00008B5024802F0F0FA08BD00BF900700201F
:1013B00008B5024802F0B8FB08BD00BF9007002046
:1013C0000120704708B503F055FA162303604FF06B
:1013D000FF3008BD08B54FF0FF31FFF7F3FFFEE720
:1013E00070B50C461646002506E0AFF30080214696
:1013F00001F8010B01350C46B542F6DB304670BDF5
:1014000070B50C461646002504E014F8010BAFF346
:1014100000800135B542F8DB304670BD4FF0FF303B
:1014200070474FF400534B60002070470120704715
:101430000020704710B503460C4A0D490D4800685E
:1014400040B10C4800680344521A934206D8094A36
:10145000136010BD0748084C0460F2E703F00AFA75
:101460000C2303604FF0FF30F3E700BF0050002073
:1014700000040000E8070020500B00207047000027
:1014800008B50A480A4B03604FF4E1334360002378
:101490008360C36003610C2242618361C36102F017
:1014A0005BFF00B908BDFFF7B5FEFBE7EC070020C6
:1014B0000044004010B586B00023029303930493C8
:1014C00005930268164B9A4201D006B010BD03F591
:1014D000E633DA6942F40032DA61DA6902F40032A2
:1014E0000092009A9A6942F004029A619B6903F0A3
:1014F00004030193019B0423029302230393032318
:101500000593084C02A9204600F082FA08230293B2
:1015100000230393049302A9204600F079FAD4E74C
:101520000044004000080140FFF7A8FF0B480C49A9
:101530000C4A002302E0D458C4500433C4188C422F
:10154000F9D3094A094C002301E013600432A24296
:10155000FBD303F095F9FFF791FE704700000020E0
:10156000E4060020C8A90008E40600204C0B002077
:10157000FEE7000010B504460E4B1A784FF47A735C
:10158000B3FBF2F30C4A1068B0FBF3F000F0B4F8D0
:1015900068B90F2C01D901200AE0002221464FF042
:1015A000FF3000F08BF8054B1C60002000E00120AC
:1015B00010BD00BF08000020040000200C00002027
:1015C00008B5074A136843F010031360032000F0C6
:1015D00063F80F20FFF7CEFFFFF7A4FE002008BD41
:1015E00000200240034A1168034B1B780B44136030
:1015F000704700BF3408002008000020014B186825
:10160000704700BF3408002038B50446FFF7F6FFE6
:101610000546B4F1FF3F02D0044B1B781C44FFF792
:10162000EDFF401BA042FAD338BD00BF08000020E8
:10163000002808DB0901C9B200F1604000F56140F3
:1016400080F80013704700F00F000901C9B2014B88
:101650001954704714ED00E000B500F00700C0F128
:10166000070CBCF1040F28BF4FF0040C031D062B20
:101670000FD9C31E4FF0FF3E0EFA0CF021EA000115
:1016800099400EFA03FE22EA0E0241EA02005DF8DA
:1016900004FB0023EEE70000074AD36823F4E0636D
:1016A0001B041B0C000200F4E060034343F0BF6323
:1016B00043F40033D360704700ED00E010B50446FA
:1016C000054BD868C0F30220FFF7C6FF014620464D
:1016D000FFF7AEFF10BD00BF00ED00E0002807DB04
:1016E00000F01F02400901239340024A42F82030D3
:1016F000704700BF00E100E00138B0F1807F0BD2FD
:101700004FF0E0235861054AF02182F823100020B1
:10171000986107221A6170470120704700ED00E0D0
:1017200030B40124056CAC40C56B6C600468636028
:101730004368102B05D0036899600368DA6030BCF9
:10174000704703689A600368D960F8E750B310B433
:1017500002460168144B0B441448A0FB03031B0909
:101760009B001364124BD363022382F82130086874
:101770006FF30D10536894682343D46823431469AE
:1017800023435469234394692343D4692343034384
:101790000B6000209063012382F8213082F8200042
:1017A00010BC704701207047F8FFFDBFCDCCCCCCFA
:1017B0000000024038B5044690F82000012832D0DD
:1017C000012084F8200094F82100C0B2012804D040
:1017D000002384F82030022038BD022084F8210044
:1017E0000020A0632568286820F0010028602046BA
:1017F000FFF796FFE36A5BB12268136843F00E03BC
:1018000013602268136843F0010313600020E3E7CC
:101810002268136823F0040313602268136843F0FE
:101820000A031360EDE70220D6E7000008B590F840
:101830002130DBB2022B03D004238363012008BDD7
:101840000268136823F00E0313600268136823F024
:10185000010313600368194A934214D0143293426F
:101860001FD0143293421ED0143293421ED0143231
:1018700093421ED01432934202D04FF0807203E0A4
:101880004FF4801200E001220D4B5A60012380F8D2
:101890002130002380F82030436B6BB19847002043
:1018A000CDE71022F0E74FF48072EDE74FF480525D
:1018B000EAE74FF48032E7E70020C0E70800024083
:1018C0000000024038B5C36B1A6804682568016CD3
:1018D00004238B40134235D015F0040F32D0236817
:1018E00013F0200F03D1236823F00403236003685F
:1018F000434A934214D01432934218D01432934284
:1019000017D01432934217D01432934217D01432A6
:10191000934202D04FF0806203E04FF4800200E077
:101920000422384B5A60C36A03B1984738BD40223D
:10193000F7E74FF48062F4E74FF48042F1E74FF4A9
:101940008022EEE702238B4013423CD015F0020FB9
:1019500039D0236813F0200F06D1236823F00A033F
:101960002360012380F821300368254A934214D074
:10197000143293421CD0143293421BD0143293423F
:101980001BD0143293421BD01432934202D04FF03A
:10199000007203E04FF4001200E00222194B5A607B
:1019A000002380F82030836A002BBFD09847BDE722
:1019B0002022F3E74FF40072F0E74FF40052EDE716
:1019C0004FF40032EAE708238B401342AED015F003
:1019D000080FABD0236823F00E032360026CC16BA9
:1019E000012303FA02F24A60836380F82130002366
:1019F00080F82030036B002B98D0984796E700BF03
:101A0000080002400000024090F8210070470000EA
:101A100070B582B00024A446A1E07E4DAB4214D044
:101A20000CD8A5F58015AB420FD005F57025AB425B
:101A30000BD0A5F58015AB4210D106E0764DAB4238
:101A400003D005F58035AB4208D18B68002B50D010
:101A5000012B49D04261082400E0CC68BEF1FF0FA1
:101A600049D806464FEA8C0233680F25954023EA91
:101A7000050304FA02F2134333604B6813F0805FEE
:101A80006BD0664B9A6942F001029A619B6903F040
:101A900001030193019B4FEA9C02951C604B53F894
:101AA00025600CF00305AD000F23AB4026EA0306CA
:101AB0005C4B984226D003F58063984200F08C80FE
:101AC00003F58063984200F0898003F580639842B3
:101AD00016D0042317E0CC680434BFE7CC68083480
:101AE000BCE7CC680C34B9E702610824B6E70024EF
:101AF000B4E70424B2E7061DACF108029200B3E794
:101B0000032300E00023AB4033430232444D45F849
:101B100022304B6813F4801F62D0434A936843EA33
:101B20000E0393604B6813F4001F5FD03E4AD368E6
:101B300043EA0E03D3604B6813F4003F5CD03A4A8B
:101B4000536843EA0E0353604B6813F4803F59D047
:101B5000354A136843EA0E0313600CF1010C0B685D
:101B600033FA0CF254D0012202FA0CF203EA020E0C
:101B700032EA0303F1D14B68122B3FF64EAF122B22
:101B80003FF66CAF01A555F823F000BF4B1A0008D3
:101B90005B1A0008DD1A0008EF1A00085D1A000839
:101BA0005D1A00085D1A00085D1A00085D1A000839
:101BB0005D1A00085D1A00085D1A00085D1A000829
:101BC0005D1A00085D1A00085D1A00085D1A000819
:101BD000D71A0008E31A0008012394E7022392E7CA
:101BE000114A936823EA0E0393609BE70E4AD36879
:101BF00023EA0E03D3609EE70B4A536823EA0E03E1
:101C00005360A1E7084A136823EA0E031360A4E7B0
:101C100002B070BD00002210000031100010024020
:101C200000000140000801400004014003685A69B7
:101C300012F0800F01D000221A61704790F83E30F8
:101C4000DBB2402B10D00369B3F5804F1BD0036D7E
:101C5000002B39D1436CC3F3C813026803F00603A9
:101C600043F0F00313617047036D2BB9436C0268B6
:101C700003F0FE0313617047436C026843F00103F5
:101C8000DBB21361704790F83D30DBB2212B0FD0EF
:101C9000436C026843F00103DBB21361436B6BB129
:101CA0009B6A5BB10268536843F4006353607047FA
:101CB000436C026803F0FE031361EFE7836B33B1FB
:101CC0009B6A002BEED102E0036D012B00D0704720
:101CD000436CC3F3C813026803F0060343F0F10337
:101CE0001361F4E7436C0268DBB21361436B3BB1F1
:101CF0009B6A2BB10268536843F4006353607047DA
:101D0000836B002BFBD09B6A002BF3D1F7E700001D
:101D100010B48DB090F83E30DAB2C16A046B90F81E
:101D20003D30DBB2222B0AD000230B9303685A69A3
:101D30000B929B690B930B9B0DB010BC7047036D0E
:101D40000BB9402A17D0036D1BB90369B3F5404F97
:101D500019D0438D9BB2002B25D1039303685A6998
:101D600003929A690392039A1A6842F400721A6005
:101D700000230365E0E7019303685A6901929B69B8
:101D80000193019BD8E70023029303685A690292EA
:101D90009A690292029A1A6842F480721A60036D7C
:101DA00001330365C8E7438D9BB2012B26D0438DD9
:101DB0009BB2022B7CD00268136843F480631360EB
:101DC00003685A6812F4006F0FD0202900F2B9801E
:101DD0000829C0F0B28008395C4ACA4012F0010FED
:101DE00003D05A6842F480525A6000230A93036871
:101DF0005A690A929B690A930A9BB9E711F5803FD9
:101E000011D0082934D0202932D0122C2ED0042908
:101E100040D002293ED010293CD00268136823F438
:101E2000806313603BE00268136823F480631360EF
:101E300003685A6812F4006F0CD01A6822F48062AA
:101E40001A600023049303685A6904929B690493FF
:101E5000049B8DE7002205925A6905929A690592C2
:101E6000059A1A6842F400721A6081E70129D0D0FD
:101E70000268136823F480631360002307930368E8
:101E80005A6907929A690792079A1A6842F400728F
:101E90001A606DE70268136843F4806313600023DF
:101EA000069303685A6906929B690693069B5FE74F
:101EB000102912D8264BCB4013F0010F0DD0026829
:101EC000136843F4806313600023099303685A691D
:101ED00009929B690993099B10E00268136843F417
:101EE000006313600023089303685A6908929A6993
:101EF0000892089A1A6822F480621A6003685A6885
:101F000012F4006F3FF434AF202911D808290BD305
:101F100008390E4ACA4012F0010F3FF429AF5A683F
:101F200042F480525A6023E701297FF421AFF6E79B
:101F300011F5803F7FF41CAFF1E701297FF455AF25
:101F40004FE711F5803F7FF450AF4AE701010001F0
:101F500014000100438D9BB25BB1426A03681278A2
:101F60001A61436A01334362438D9BB2013B9BB2CA
:101F700043857047438D9BB25BB103681A69436A1E
:101F80001A70436A01334362438D9BB2013B9BB29B
:101F90004385704782B0002301930E4B1B68DB081A
:101FA0000D4AA2FB03231B0A03EB83030193019B4E
:101FB000013B0193019B33B103681B6813F4007F5D
:101FC000F5D1002004E0036C43F0200303640120FA
:101FD00002B070470400002089B5F81403685A69FC
:101FE00012F4806F01D1002070476FF480625A6153
:101FF00000230363202280F83D2080F83E30026CED
:1020000042F00402026480F83C3001207047C36A49
:10201000B3F52A0F04D0C36AB3F12A4F03D0704737
:102020000123C36270470823C362F8E72DE9F0413A
:1020300006460C46174698463BE0FFF7DFFA069B3C
:10204000C01A404502D8B8F1000F32D1012D18D086
:1020500033689B6924EA03039BB2B3FA83F35B09F9
:102060009F4226D100233363202286F83D2086F844
:102070003E30326C42F02002326486F83C3001205F
:1020800027E033685B6924EA03039BB2B3FA83F366
:102090005B09E5E733685B6924EA030C1FFA8CFCF3
:1020A000BCFA8CFC4FEA5C1C674511D1B8F1FF3FCC
:1020B000C3D1C4F30745012DECD033689B6924EAF2
:1020C000030C1FFA8CFCBCFA8CFC4FEA5C1CEBE79F
:1020D0000020BDE8F0812DE9F84305460E46904604
:1020E000994653E01A6842F400721A602B686FF444
:1020F00080625A6100232B63202285F83D2085F8F9
:102100003E302A6C42F004022A6485F83C300120FB
:102110004AE0FFF773FAA0EB0900404502D8B8F196
:10212000000F33D1012F17D02B689B6926EA0303D8
:102130009BB2003B18BF012343B300232B63202233
:1021400085F83D2085F83E302A6C42F020022A6452
:1021500085F83C30012027E02B685B6926EA030301
:102160009BB2003B18BF0123E6E72B689C6926EA77
:102170000404A4B2003C18BF0124A4B12B685A691E
:1021800012F4806FAED1B8F1FF3FC2D1C6F307475A
:10219000012FEAD12B685C6926EA0404A4B2003C52
:1021A00018BF0124E9E70020BDE8F883F0B583B04B
:1021B00004460D4616461F46C36A082B0DD0012B58
:1021C0000BD013F5803F08D0036B122B0AD10268A5
:1021D000136843F48073136004E02268136843F4C7
:1021E000807313600097334600224FF001112046A0
:1021F000FFF71CFF80B92369B3F5804F16D1236820
:1022000005F0FE051D613B46324613492046FFF7A7
:1022100062FFF8B903B0F0BD23681B6813F4807F38
:1022200002D04FF4007323640320F3E7EB1122681C
:1022300003F0060343F0F00313613B4632460749BF
:102240002046FFF748FF18B92368EDB21D61DAE7B1
:102250000120DFE70120DDE70200010008000100A6
:102260002DE9F04184B004460D4616461F46C26A69
:1022700001680B6843F480630B60082A0DD0012AC3
:102280000BD012F5803F08D0036B112B0AD10268E6
:10229000136843F48073136004E02268136843F406
:1022A000807313600097334600224FF001112046DF
:1022B000FFF7BCFE98B92369B3F5804F19D12368A5
:1022C00045F00105EDB21D613B4632462A492046E4
:1022D000FFF701FF00284CD104B0BDE8F08123686E
:1022E0001B6813F4807F02D04FF400732364032033
:1022F000F2E74FEAE51808F00608236848F0F00214
:102300001A613B4632461D492046FFF7E4FE08B1FC
:102310000120E1E72368EDB21D613B4632461649D4
:102320002046FFF7D8FE08B10120D5E7002203922E
:10233000236859690391996903910399196841F4D4
:1023400080711960009733464FF001112046FFF766
:102350006DFE20B9226848F0F1031361B4E72368E9
:102360001B6813F4807F02D04FF4007323640320B2
:10237000B2E70120B0E700BF020001000800010041
:1023800070B504460D46164623685B6913F0800F4E
:1023900021D12046FFF722FEF8B9B5F1FF3FF3D077
:1023A000FFF72CF9801BA84201D8002DECD123683F
:1023B0005B6913F0800FE7D100232363202284F8A8
:1023C0003D2084F83E30226C42F02002226484F8E2
:1023D0003C30012000E0002070BD0120FCE770B51A
:1023E00004460D46164623685B6913F0040F21D19D
:1023F0002046FFF7F3FDF8B9B5F1FF3FF3D0FFF743
:10240000FDF8801BA84201D8002DECD123685B6940
:1024100013F0040FE7D100232363202284F83D202A
:1024200084F83E30226C42F02002226484F83C3072
:10243000012000E0002070BD0120FCE770B50446DB
:102440000D46164614E06FF010025A610023236314
:10245000202284F83D2084F83E30226C226484F8E7
:102460003C30012025E023685B6913F0400F10D059
:102470002368586910F0400F1AD1586910F0100FF6
:10248000E1D1FFF7BBF8801BA842ECD8002DEFD1BB
:10249000E9E700232363202284F83D2084F83E30BE
:1024A000226C42F02002226484F83C30012000E0DB
:1024B000002070BD002800F0CC8070B5044690F874
:1024C0003D30002B77D0242384F83D3022681368F8
:1024D00023F0010313602268136843F40043136080
:1024E0002268136823F40043136001F089FE6268D8
:1024F0005A4B9A4264D85A4B98428CBF002301230E
:10250000002B40F0A8805749A1FB00318B0C2568B7
:102510006A6822F03F0242EA91426A6021680A6AD0
:1025200022F03F0266684D4DAE424FD8013313434F
:102530000B622168CA6922F44F4222F0FF026568EB
:10254000464B9D424CD8431E6D00B3FBF5F301335F
:1025500040F6FC70034278D0C3F30B031A43CA6100
:1025600021680B6823F0C003E269206A0243134329
:102570000B6021688B6823F4034323F0FF03226977
:10258000E068024313438B602168CB6823F0FF03AC
:102590006269A06902431343CB602268136843F069
:1025A0000103136000202064202384F83D30206361
:1025B00084F83E0070BD80F83C30FEF7B5FD82E740
:1025C000294B98428CBF0023012399E74FF496755D
:1025D00005FB03F3254DA5FB03539B090133A6E738
:1025E000A668BEB9431E05EB450CB3FBFCF30133F3
:1025F000C3F30B03B3FA83F35B0943BBC6B9431EB2
:1026000005EB4505B3FBF5F30133C3F30B0343F4CB
:102610000043A3E7431E05EB850C0CEB8C0CB3FBCE
:10262000FCF30133C3F30B03B3FA83F35B09E4E771
:10263000431E05EB850505EB8505B3FBF5F301337B
:10264000C3F30B0343F4404388E7042386E70123E5
:1026500084E7012070470120ACE700BFA08601009D
:102660007F841E0083DE1B43FF083D00D34D6210B4
:102670002DE9F04385B004460F46914698460C9EDE
:10268000FEF7BCFF054694F83D00C0B2202804D0F8
:102690000227384605B0BDE8F083009519230122D2
:1026A0004F492046FFF7C2FC002840F0928094F882
:1026B0003C30012B00F08F80012384F83C302368EC
:1026C0001A6812F0010F03D11A6842F001021A6071
:1026D0002268136823F400631360212384F83D30DB
:1026E000102384F83E3000232364C4F82490A4F817
:1026F0002A80638D23853B4BE3622B463246394665
:102700002046FFF753FD0746002866D100230393B8
:1027100023685A6903929B690393039B11E0236C1E
:10272000042B01D00127B4E72268136843F4007337
:102730001360F7E72A4631462046FFF750FE00288F
:102740002ED1238D002B36D02A4631462046FFF766
:1027500017FE0028E3D1626A236812781A61606A62
:10276000431C6362618D89B2013989B26185238D11
:10277000013B9BB223852268516911F0040FD9D027
:10278000002BD7D043781361636A01336362638D92
:102790009BB2013B9BB26385238D013B2385C9E737
:1027A000236C042B01D0012773E72268136843F4DC
:1027B00000731360F7E72268136843F40073136033
:1027C000202384F83D30002384F83E3084F83C30E8
:1027D0005FE702275DE702275BE7012759E700BFB4
:1027E000020010000000FFFF2DE9F04389B004460D
:1027F0000F4691469846109E00230793FEF7FEFE73
:10280000054694F83D00C0B2202804D0022738467F
:1028100009B0BDE8F08300951923012280492046C4
:10282000FFF704FC002840F07A8194F83C30012B3B
:1028300000F07781012384F83C3023681A6812F095
:10284000010F03D11A6842F001021A60226813686E
:1028500023F400631360222384F83D30102384F8AE
:102860003E3000232364C4F82490A4F82A80638DAA
:1028700023856C4BE3622B46324639462046FFF7F0
:10288000EFFC0746002840F04E81238D5BB903938F
:1028900023685A6903929A690392039A1A6842F468
:1028A00000721A60F3E0012B0FD0022B21D02268B6
:1028B000136843F4806313600023069323685A6906
:1028C00006929B690693069BE1E02268136823F455
:1028D0008063136072B60023049323685A690492DC
:1028E0009A690492049A1A6842F400721A6062B6F5
:1028F000CDE02268136843F40063136072B60023CE
:10290000059323685A6905929A690592059A1A688F
:1029100022F480621A6062B6B9E02A463146204647
:10292000FFF78CFD002840F0008123681A69636A74
:102930001A70636A01336362238D013B2385638DC3
:102940009BB2013B9BB26385A1E000953346002218
:1029500035492046FFF76AFB002840F0EA802268EC
:10296000136823F48063136072B623681A69636A7C
:102970001A70636A01336362238D013B2385638D83
:102980009BB2013B9BB26385284B1B68DB08284A3E
:10299000A2FB03231B0A03EB8303C3EBC3030793CD
:1029A0000799013907910799002928D023685A69A6
:1029B00012F0040FF4D01A6842F400721A6023680F
:1029C0001A69636A1A70636A01336362238D013B7B
:1029D0002385638D9BB2013B9BB2638562B62368FE
:1029E0001A69636A1A70636A01336362238D013B5B
:1029F0002385638D9BB2013B9BB2638547E0002337
:102A00002363202284F83D2084F83E30226C42F07B
:102A10002002226462B684F83C300127F7E600BF4A
:102A2000020010000000FFFF04000100040000206D
:102A300089B5F8142A4631462046FFF7FFFC0028E6
:102A400079D123681A69636A1A70636A0133636211
:102A5000228D013A92B22285638D9BB2013B9BB2DB
:102A600063852368596911F0040F10D0032A48D0F8
:102A700023681A69636A1A70636A01336362238D7B
:102A8000013B2385638D9BB2013B9BB26385218D06
:102A900000293BD00329CDD801293FF43EAF0229BC
:102AA0007FF453AF00953346002224492046FFF7B8
:102AB000BDFA00283BD172B62268136843F4007354
:102AC000136023681A69636A1A70636A0133636268
:102AD000238D013B2385638D9BB2013B9BB26385B4
:102AE00062B623681A69636A1A70636A01336362A3
:102AF000238D013B2385638D9BB2013B9BB2638594
:102B0000C5E71A6822F480621A60B1E7202384F8CE
:102B10003D30002384F83E3084F83C3077E60227CD
:102B200075E6022773E6012771E601276FE60127A4
:102B30006DE601276BE6012769E600BF040001008E
:102B400030B583B005460020019095F83D00C0B235
:102B5000202840F0A58055480068C008544CA4FBCC
:102B60000040000A00EB800000EB80000190019C17
:102B7000013C0194019800284CD02868846914F025
:102B8000020FF4D195F83C40012C00F08C80012418
:102B900085F83C40046814F0010F03D1046844F048
:102BA000010404602C68206820F40060206021206B
:102BB00085F83D00102085F83E00002028646A62F8
:102BC0006B856B8D9BB22B853A4AEA626964002B58
:102BD00052D06B6B53B3384A9A626B6B374A1A63A5
:102BE0006A6BD0626A6B50632A682B8D1032696AF7
:102BF000686BFEF7DFFD38B3202385F83D300022F7
:102C000085F83E202B6C43F010032B6485F83C20A4
:102C1000012046E000232B63202285F83D2085F823
:102C20003E302B6C13432B6402203AE0202385F8BE
:102C30003D30002285F83E202B6C43F080032B644E
:102C400085F83C2001202CE0002385F83C302A68E0
:102C5000536843F4407353602A68536843F4006335
:102C600053602A68136843F4806313602A6813680A
:102C700043F48073136011E02A68136843F480639F
:102C800013602A68136843F480731360002385F887
:102C90003C302A68536843F4E0635360002000E04E
:102CA000022003B030BD0220FBE700BF040000207B
:102CB00089B5F8140000FFFF853300084B33000886
:102CC00030B583B005460020019095F83D00C0B2B4
:102CD000202840F0A58055480068C008544CA4FB4B
:102CE0000040000A00EB800000EB80000190019C96
:102CF000013C0194019800284CD02868846914F0A4
:102D0000020FF4D195F83C40012C00F08C80012496
:102D100085F83C40046814F0010F03D1046844F0C6
:102D2000010404602C68206820F4006020602220E8
:102D300085F83D00102085F83E00002028646A6276
:102D40006B856B8D9BB22B853A4AEA626964002BD6
:102D500052D0AB6B53B3384A9A62AB6B374A1A63A3
:102D6000AA6BD062AA6B506329682B8D6A6A1031F6
:102D7000A86BFEF71FFD38B3202385F83D300022F5
:102D800085F83E202B6C43F010032B6485F83C2023
:102D9000012046E000232B63202285F83D2085F8A2
:102DA0003E302B6C13432B6402203AE0202385F83D
:102DB0003D30002285F83E202B6C43F080032B64CD
:102DC00085F83C2001202CE02A68136843F48063D6
:102DD00013602A68136843F480731360002385F836
:102DE0003C302A68536843F4407353602A68536840
:102DF00043F40063536011E0002385F83C302A68F7
:102E0000536843F4E06353602A68136843F48063B3
:102E100013602A68136843F480731360002000E095
:102E2000022003B030BD0220FBE700BF04000020F9
:102E300089B5F8140000FFFF853300084B33000804
:102E4000704708B590F83D30DAB2438D9BB283B13C
:102E5000416A036809781961436A01334362438D0B
:102E60009BB2013B9BB24385438D9BB20BB9292A90
:102E700000D008BD0268536823F4806353602123A7
:102E80000363282380F83D30FFF7DAFFF1E770474E
:102E900008B590F83D30DAB2438D9BB283B1036838
:102EA0001969436A1970436A01334362438D9BB2C7
:102EB000013B9BB24385438D9BB20BB92A2A00D0BC
:102EC00008BD0268536823F48063536022230363C0
:102ED000282380F83D30FFF7DAFFF1E7704700B5AF
:102EE00083B090F83D3003F02803282B0CD000234A
:102EF000019302685169019192690192019A80F8E7
:102F00003C3003B05DF804FB0268536823F480632F
:102F1000536011F0040F0BD0002311F0800F09D182
:102F20008289002180F83C101946FFF7D7FFE8E7B7
:102F30000123F2E7028BF4E77047000010B5044666
:102F400090F83D30DBB2C26A082A01D0202A01D1B4
:102F5000282B06D0212B1FD023686FF480625A6182
:102F600010BD1D4BE3622268536823F4E063536095
:102F700023686FF480625A612268136823F48063C7
:102F8000136000232363202284F83D2084F83E3020
:102F90002046FFF7D1FFE3E70F4BE36221232363D2
:102FA000202384F83D30002384F83E3022685368A3
:102FB00023F4E063536023686FF480625A612268EF
:102FC000136823F4806313602046FEF72FFE20462B
:102FD000FFF736FFC4E700BF0000FFFF704708B5EA
:102FE000C26A90F83D30DBB2212B00D008BD438D82
:102FF0009BB263B1426A036812781A61436A013373
:103000004362438D9BB2013B9BB24385EEE7082AA6
:1030100004D0202A02D012F5803F19D102685368EB
:1030200023F4E06353600268136843F40073136091
:1030300000230363202380F83D3090F83E30DBB25C
:10304000402B15D0002380F83E30FEF737F8CDE74F
:103050000268536823F4E063536011230363002381
:1030600080F83E30202380F83D30FEF727F8BDE79A
:10307000002380F83E30FFF7B1FFB7E708B590F8BE
:103080003D30026D9AB9C36C012B08D0836C026885
:10309000C3F307231361036D0133036508BD836C1C
:1030A0000268DBB21361036D02330365F6E7DBB23E
:1030B000026D012A23D0026D022A3ED1222B26D096
:1030C000428D92B20AB1212B2AD0428D92B2002AAF
:1030D000E4D1212BE2D10268536823F4E06353600A
:1030E0000268136843F40073136000230363202213
:1030F00080F83D2080F83E30FFF770FFCEE7836C0C
:103100000268DBB21361036D01330365C6E7026831
:10311000136843F480731360036D01330365BDE7E7
:10312000426A036812781A61436A01334362438D2D
:103130009BB2013B9BB24385B0E7FEF777FDADE75D
:1031400010B590F83D30DBB290F83E20D2B2C46AA0
:10315000018D00293BD1212B02D0402A42D010BD45
:10316000082C04D0202C02D014F5803F19D102681D
:10317000536823F4E06353600268136843F40073F8
:10318000136000230363202380F83D3090F83E3025
:10319000DBB2402B15D0002380F83E30FDF78EFFC8
:1031A000DDE70268536823F4E0635360112303638F
:1031B000002380F83E30202380F83D30FDF77EFF6D
:1031C000CDE7002380F83E30FFF708FFC7E7212B4B
:1031D000C3D1438D9BB243B90268536823F4806323
:1031E0005360BCE7222BBAD1F3E790F83E30DBB254
:1031F000402B0CD0426A036812781A61436A01338B
:103200004362438D9BB2013B9BB24385A7E7FFF727
:1032100035FFA4E7704708B5C26A438D9BB2042B03
:1032200014D0438D9BB2032B22D0438D9BB2022B33
:1032300039D003681A69436A1A70436A01334362DA
:10324000438D9BB2013B9BB2438510E002685368FB
:1032500023F48063536003681A69436A1A70436AEF
:1032600001334362438D9BB2013B9BB2438508BD52
:1032700001684B6823F480634B60042A06D0022A5D
:1032800004D00268136823F48063136003681A692A
:10329000436A1A70436A01334362438D9BB2013B18
:1032A0009BB24385E3E7013A0F2A40D8DFE802F0FA
:1032B00008393F393F3F3F3F3F3F3F3F3F3F3F0898
:1032C0000268136823F48063136003681A69436A11
:1032D0001A70426A531C4362438D9BB2013B9BB2FE
:1032E000438503681B695370436A01334362438D0E
:1032F0009BB2013B9BB243850268536823F4407341
:103300005360202380F83D3090F83E30DBB2402BF4
:1033100013D0002380F83E3012230363FDF7DAFE5A
:10332000A5E70268136843F480631360CDE7026881
:10333000136843F400731360C7E7002380F83E303E
:103340000363FFF767FF92E7704708B5406A436B76
:103350000BB100229A62836B0BB100229A62026861
:10336000136823F48063136000234385202280F8D0
:103370003D2080F83E30036C43F010030364FFF7F8
:10338000E3FF08BD38B5446A94F83D30DBB294F8E9
:103390003E20D1B2E56A2068426822F44072426061
:1033A000626B0AB100209062A26B0AB100209062A9
:1033B00003F02102212A41D003F02202222A3BD02D
:1033C00094F83E30002B49D0638D9BB2012B58D02E
:1033D0002268536823F44073536015F5803F06D08C
:1033E000082D04D0B5F12A4F01D0202D04D1226838
:1033F000136843F4007313602268536823F4805306
:1034000053602268536823F400635360002363858C
:10341000236C002B3BD1202384F83D3094F83E30C0
:10342000DBB2402B37D0002384F83E3012232363D5
:103430002046FDF74FFE11E02029C1D121684A68DE
:1034400022F400624A6000226285292B07D02A2BD1
:103450000ED02268536843F44073536038BD212373
:103460002363282384F83D302046FFF7E9FCF0E78A
:1034700022232363282384F83D302046FFF707FDED
:10348000E7E72268136823F480631360A0E720460F
:10349000FFF75AFFE2E7002384F83E30236320461B
:1034A000FFF7B8FEDAE790F83D30DBB2222B00D010
:1034B000704710B50446438D9BB2032B15D90368A2
:1034C0001A69436A1A70436A01334362438D9BB29F
:1034D000013B9BB24385438D9BB2032B0FD1026806
:1034E000536823F48063536009E0C26A022A01D062
:1034F000012B05D92268536823F48063536010BD03
:10350000FEF748FD00282ED12268136823F480635B
:1035100013602268536823F4E063536023681A69D8
:10352000636A1A70636A01336362638D9BB2013B05
:103530009BB26385202384F83D3094F83E30DBB2A3
:10354000402B08D0002384F83E301223236320460A
:10355000FDF7C0FDD3E7002384F83E302363204607
:10356000FFF758FECBE72268536823F4E06353600B
:1035700023681A69636A1A70636A01336362638D30
:103580009BB2013B9BB26385202384F83D3000232E
:1035900084F83E302046FFF7D7FEB0E770470000C2
:1035A00000B583B000230193406A90F83D20D2B269
:1035B000324B1B68DB083249A1FB03131B0A03EBE8
:1035C0008303C3EBC3030193019B43B1019B013B05
:1035D000019303681B6813F4007FF5D103E0036CCB
:1035E00043F020030364436B0BB100219962836BAA
:1035F0000BB10021996201680B6823F480630B60B2
:1036000000234385436B0BB100215963836B0BB1DE
:103610000021596301680B6823F001030B6090F8E7
:103620003D30DBB2602B0ED002F02802282A14D0E5
:10363000202380F83D30002380F83E30FFF784FEE1
:1036400003B05DF804FB202380F83D30002380F8B0
:103650003E300364FFF7A2FFF2E70268136843F00D
:10366000010313600268136843F48063136000234E
:103670000363282380F83D30E0E700BF040000200A
:1036800089B5F81410B5044690F83D30DBB290F8D7
:103690003E20D2B2102A36D0402A34D003F028027D
:1036A000282A38D02268526812F4006F07D1602BA4
:1036B00005D0202384F83D30002384F83E300023D9
:1036C000236323685A6812F4006F48D05A6822F4C2
:1036D00000625A60626B92F82130DBB2012B20D07D
:1036E000444B5363606BFEF7A1F8002849D0226871
:1036F000136823F001031360202384F83D30606BCE
:10370000436B98473DE0222BC8D121680A6822F418
:1037100000620A60C2E700232363282384F83D3057
:10372000CFE7A36B334A5A63A06BFEF77FF840B331
:1037300023685A6912F0400F05D01A69636A1A703B
:10374000636A013363622268136823F00103136024
:10375000202384F83D30A06B436B984711E094F828
:103760003D20D2B2602A1FD05A6912F0400F05D016
:103770001A69636A1A70636A013363622046FFF74D
:10378000E3FD236C13F00F0F04D02268536823F479
:10379000E063536094F83D30DBB2226C12F0040F0A
:1037A00001D0282B18D010BD202284F83D20002203
:1037B00022645A6912F0400F05D01A69636A1A70C0
:1037C000636A013363622268136823F001031360A4
:1037D0002046FFF7E3FED4E7074BE36200232363B1
:1037E000202284F83D2084F83E302046FFF7A4FBD9
:1037F000D9E700BFA13500080000FFFF30B583B056
:10380000044690F83D50EDB20268536823F4E0633B
:1038100053600023019303685A6901921A6842F0C9
:1038200001021A60019B0268136823F4806313602D
:1038300003685A6812F4006F38D0222D21D02A2D47
:103840001FD0426B1268526892B24285428D92B28A
:103850001AB1026C42F0040202645A6822F4006257
:103860005A60606BFEF7D0F801281FD0636B444AA2
:103870005A63606BFDF7DAFFC0B1606B436B98472A
:1038800014E0A26B1268526892B26285628D92B2A5
:103890001AB1226C42F0040222645A6822F40062D7
:1038A0005A60A06BFEF7B0F8012842D1638D9BB23D
:1038B00033B323685A6912F0040F0AD01A69636A95
:1038C0001A70636A01336362638D9BB2013B9BB2E2
:1038D000638523685A6912F0400F0AD01A69636A37
:1038E0001A70636A01336362638D9BB2013B9BB2C2
:1038F0006385638D9BB21BB1236C43F00403236487
:10390000236C13BB2A2D25D094F83D30DBB2282B35
:1039100029D0236B222B01D0222D19D10023236320
:10392000202284F83D2084F83E302046FFF7AFFA8D
:103930000EE0A36B124A5A63A06BFDF777FF0028D5
:10394000B4D0A06B436B9847B0E72046FFF79AFED0
:1039500003B030BD00232363282384F83D30204684
:10396000FFF795FAD0E7074BE36200232363202299
:1039700084F83D2084F83E302046FFF7DDFAE7E783
:10398000A13500080000FFFFF8B50446026855683D
:10399000C66A90F83E30DBB290F83D10C8B2102BEA
:1039A00013D0402B11D0236C002B7AD05369002107
:1039B00013F0020F78D015F4007F75D0236C03B19B
:1039C00091692046FFF78BFAF8BDD2F818C051690B
:1039D00011F0010705D1B6F52A0FF5D0B6F12A4F3F
:1039E000F2D017B115F4007F29D111F0080F02D0E1
:1039F00015F4007F2AD111F0020F02D015F4007FD8
:103A000028D11CF0040F31D0526812F4006FDBD1C2
:103A100011F0800F05D015F4806F02D011F0040F63
:103A20001CD011F0040FCFD015F4007FCCD021288A
:103A300018D0402BC8D12046FFF720FBC4E7204612
:103A4000FEF7E5FA2046FEF7F9F8BDE72046FEF757
:103A500049F9B9E72046FEF75BF9B5E72046FFF7DD
:103A60006FFBB1E72046FFF7BAFAADE7536813F4EE
:103A7000006FA9D111F0400F05D015F4806F02D06E
:103A800011F0040F09D011F0040F9DD015F4007F40
:103A90009AD02046FFF7BFFB96E72046FFF703FDCD
:103AA00092E79169536983E713F0100F02D015F480
:103AB000007F18D121281AD0292818D013F0400FE0
:103AC00005D015F4806F02D013F0040F28D013F046
:103AD000040F3FF479AF15F4007F3FF475AF204633
:103AE000FEF748FA70E72046FFF788FE6CE713F010
:103AF000800F05D015F4806F02D013F0040F0BD0A7
:103B000013F0040F3FF460AF15F4007F3FF45CAF97
:103B10002046FEF71FFA57E72046FFF792F953E7D2
:103B20002046FFF7B5F94FE7F8B5044603685D692D
:103B30005F6890F83E20D2B2C5F3002615F4807F6E
:103B40000DD0C7F3002617F4807F08D06FF4807182
:103B5000596101680B6843F400430B60012615F4BA
:103B6000007F08D017F4807F05D046F00206236856
:103B70006FF40071596115F4806F19D017F4807FCC
:103B800016D0638D99B294F83D30DBB2206B202AB9
:103B90001BD023686FF48061596146F00406102A37
:103BA00001D0402A04D12268136843F400731360E3
:103BB00015F4006F17D017F4807F14D046F0080674
:103BC00023686FF400625A610EE00029E1D1212BD5
:103BD00005D0292B03D0282BDBD12128D9D1204691
:103BE000FFF7ACF9E4E72EB1236C3343236420469E
:103BF000FFF748FDF8BD000082B0084B1B68084A7B
:103C0000A2FB03235B0A00FB03F3019300BF019BAC
:103C10005A1E0192002BF9D102B070470400002017
:103C2000D34D6210002800F0F18170B582B00446D7
:103C3000036813F0010F2CD0994B5B6803F00C0361
:103C4000042B1DD0964B5B6803F00C03082B12D09D
:103C50006368B3F5803F41D0002B55D103F1804319
:103C600003F504331A6822F480321A601A6822F4C9
:103C700080221A6037E08A4B5B6813F4803FE7D0FC
:103C8000874B1B6813F4003F03D06368002B00F0E0
:103C9000BF81236813F0020F75D0814B5B6813F06E
:103CA0000C0F5FD07E4B5B6803F00C03082B54D0E5
:103CB0002369002B00F08A807A4B01221A60FDF7FD
:103CC0009DFC0546764B1B6813F0020F75D1FDF77E
:103CD00095FC401B0228F5D903209EE1704A136829
:103CE00043F480331360636843B3FDF787FC0546F4
:103CF0006B4B1B6813F4003FCBD1FDF77FFC401BDF
:103D00006428F5D9032088E1B3F5A02F09D0644BCE
:103D10001A6822F480321A601A6822F480221A602B
:103D2000E1E703F18043A3F53C331A6842F48022B3
:103D30001A601A6842F480321A60D4E7FDF75EFC1C
:103D40000546574B1B6813F4003FA2D0FDF756FC05
:103D5000401B6428F5D903205FE1514B5B6813F4E5
:103D6000803FA5D14E4B1B6813F0020F03D023698F
:103D7000012B40F04F814A4A136823F0F803616930
:103D800043EAC1031360236813F0080F33D0A3691B
:103D9000002B5CD0434B0122C3F88024FDF72EFC9E
:103DA00005463F4B5B6A13F0020F21D1FDF726FC5D
:103DB000401B0228F5D903202FE1394A136823F06C
:103DC000F803616943EAC1031360DCE7354B002265
:103DD0001A60FDF713FC0546314B1B6813F0020F08
:103DE000D1D0FDF70BFC401B0228F5D9032014E1CC
:103DF0000120FFF701FF236813F0040F00F0968005
:103E0000274BDB6913F0805F34D1254BDA6942F030
:103E10008052DA61DB6903F080530193019B012535
:103E2000214B1B6813F4807F26D0E368012B3DD023
:103E3000002B53D103F1804303F504331A6A22F0B7
:103E400001021A621A6A22F004021A6233E0154B68
:103E50000022C3F88024FDF7D1FB0546104B5B6AB6
:103E600013F0020FC7D0FDF7C9FB401B0228F5D99C
:103E70000320D2E00025D3E70B4A136843F4807394
:103E80001360FDF7BBFB0646074B1B6813F4807FEE
:103E9000CBD1FDF7B3FB801B6428F5D90320BCE030
:103EA0000010024000004242007000405F4A136A66
:103EB00043F001031362E36833B3FDF79FFB06464B
:103EC0005A4B1B6A13F0020F2FD1FDF797FB801B93
:103ED00041F288339842F3D903209EE0052B09D0A4
:103EE000524B1A6A22F001021A621A6A22F0040284
:103EF0001A62E0E74D4B1A6A42F004021A621A6A2B
:103F000042F001021A62D6E7FDF778FB0646474BFE
:103F10001B6A13F0020F08D0FDF770FB801B41F203
:103F200088339842F3D9032077E0E5B9E369002BA1
:103F300072D03E4A526802F00C02082A56D0022B78
:103F400017D03B4B00221A66FDF758FB0446374B4F
:103F50001B6813F0007F47D0FDF750FB001B0228C1
:103F6000F5D9032059E0314AD36923F08053D36156
:103F7000DCE72F4B00221A66FDF740FB05462B4B72
:103F80001B6813F0007F06D0FDF738FB401B0228AA
:103F9000F5D9032041E0236AB3F5803F1AD02349C5
:103FA0004B6823F47413226A606A024313434B6024
:103FB0001F4B01221A66FDF721FB04461B4B1B68B1
:103FC00013F0007F0ED1FDF719FB001B0228F5D975
:103FD000032022E0154A536823F40033A1680B4301
:103FE0005360DCE7002018E0002016E0012B16D01B
:103FF0000E4B5B6803F48031226A914211D103F4C5
:104000007013626A93420ED1002006E001207047CF
:10401000012002E0012000E0002002B070BD01207C
:10402000FBE70120F9E70120F7E700BF001002409D
:10403000000042420F4B5B6803F00C02082A01D0DB
:104040000D487047C3F383420C49885C13F4803FEA
:104050000BD0084B5B68C3F34043094AD35C064A64
:1040600002FB00F0B0FBF3F07047064B03FB00F0DF
:10407000704700BF0010024000127A0060A70008DD
:104080005CA7000800093D00002800F0A08070B582
:104090000D460446524B1B6803F007038B420BD2BC
:1040A0004F4A136823F007030B431360136803F0B0
:1040B00007038B4240F08D80236813F0020F17D066
:1040C00013F0040F04D0474A536843F4E06353608D
:1040D000236813F0080F04D0424A536843F4605336
:1040E0005360404A536823F0F003A1680B435360C8
:1040F000236813F0010F31D06368012B20D0022B0D
:1041000025D0384A126812F0020F64D035494A6847
:1041100022F0030213434B60FDF770FA0646314B61
:104120005B6803F00C036268B3EB820F16D0FDF7F7
:1041300065FA801B41F288339842F0D9032045E0AC
:10414000284A126812F4003FE0D101203EE0254ADF
:10415000126812F0007FD9D1012037E0204B1B6894
:1041600003F00703AB420AD91D4A136823F0070383
:104170002B431360136803F00703AB422DD1236870
:1041800013F0040F06D0174A536823F4E063E16884
:104190000B435360236813F0080F07D0114A53688C
:1041A00023F46053216943EAC1035360FFF742FFE0
:1041B0000C4B5B68C3F303130B4AD35CD8400B4B27
:1041C00018600B4B1868FDF7D5F9002070BD012071
:1041D00070470120FAE70120F8E70120F6E700BF69
:1041E00000200240001002404CA7000804000020FC
:1041F0000C000020014B1868704700BF040000202D
:1042000008B5FFF7F7FF044B5B68C3F30223034ACB
:10421000D35CD84008BD00BF0010024044A700088E
:1042200008B5FFF7E7FF044B5B68C3F3C223034AFB
:10423000D35CD84008BD00BF0010024044A700086E
:1042400010B504460268136923F44053C1680B4358
:10425000136183680269134342691A430168CB689A
:1042600023F4B05323F00C031343CB60026853696B
:1042700023F4407381690B4353610268134B9A42E4
:1042800020D0FFF7BDFF024602EB820202EB820262
:1042900063689B00B2FBF3F20D48A0FB02314909B1
:1042A000642303FB11231B013233A0FB03035B09CF
:1042B00003F0F00202EB011203F00F032168134434
:1042C0008B6010BDFFF7ACFF0246DDE70038014010
:1042D0001F85EB512DE9F84305460F4616469946D2
:1042E000DDF820802B681C6837EA04040CBF012429
:1042F0000024B4422DD1B8F1FF3FF3D0B8F1000F44
:1043000005D0FDF77BF9A0EB09004045EAD92A6802
:1043100002F10C0353E8003F23F4D0730C3242E85F
:1043200000310029F3D12A6802F1140353E8003F59
:1043300023F00103143242E800310029F3D1202395
:1043400085F8413085F84230002385F8403003205D
:1043500000E00020BDE8F88360B310B5044690F893
:10436000413013B3242384F841302268D36823F406
:104370000053D3602046FFF763FF2268136923F4DC
:10438000904313612268536923F02A035361226822
:10439000D36843F40053D36000206064202384F882
:1043A000413084F84230606310BD80F84030FDF742
:1043B00081F8D7E7012070472DE9F04182B01E4611
:1043C00090F84130DBB2202B4BD104460D4690468D
:1043D00000294AD00AB9012044E000234364212384
:1043E00080F84130FDF70AF90746A4F82480A4F8C4
:1043F0002680A368B3F5805F02D04FF000080FE07D
:104400002369FBB14FF000080AE038F8023B22684C
:10441000C3F308035360E28C92B2013A92B2E28491
:10442000E38C9BB28BB100963B4600228021204654
:10443000FFF750FFD8B9002DE7D015F8012B2368FE
:104440005A60E8E7A8460025EAE700963B460022C6
:1044500040212046FFF73EFF58B9202384F8413021
:1044600000E0022002B0BDE8F0810120FAE703205D
:10447000F8E70320F6E70000024A0349034800F08A
:10448000C9B800BF10000020116D000820000020F6
:104490000C4B416810B59942044601D002F038FC3B
:1044A000A168094B994202D0204602F031FCE16834
:1044B000064B994204D02046BDE8104002F028BCCB
:1044C00010BD00BF38080020A00800200809002007
:1044D0002DE9F84300250423304C314A3149DFF8F7
:1044E000C890DFF8C880324F324E116004F15C0092
:1044F00029460822C4E90335C4E90055C4E9055535
:10450000A560656600F012F904F15800C4E9074996
:10451000C4E90987E66200F0DBF9274B2946082247
:1045200004F1C4006367C4E91A55C4E91E55256740
:10453000C4F8CC50C4F8805000F0F8F804F16803D7
:1045400004F1C000C4F88430C4E92298C4E9247698
:1045500000F0BEF9194B294604F596700822C4F8FC
:10456000DC30C4E93455C4E93855C4F8D850C4F82F
:104570003451C4F8E85000F0D9F804F1D003C4E98C
:104580003D87C4F8F09004F59470C4F8FC60C4F85A
:10459000EC30BDE8F84300F09BB900BF38080020BC
:1045A00070090020794400089D460008C1460008B3
:1045B0000147000825470008090001001200020019
:1045C00010B504460A4800F087F9636B23B9094B1C
:1045D000094A1B68626323B1BDE81040044800F03B
:1045E0007DB9FFF775FFBDE81040014800F076B9CE
:1045F000800900207009002091440008014800F063
:104600006BB900BF80090020014800F067B900BF06
:10461000800900202DE9F8434FF0000980460F463D
:104620001646D6E90154013D10D4A389012B08D9BF
:10463000B4F90E30013304D021464046B84749EA68
:104640000009013D6B1C04F16804EED13668002EB0
:10465000E7D14846BDE8F8830EB470B504466FF064
:10466000004600259DB00B4A21AB0B49106853F85A
:10467000042B059102A9CDE90134049607961B95F8
:10468000069400F083FD029B1D701DB0BDE87040D4
:1046900003B070471C0000200802FFFF10B50C4655
:1046A000B1F90E1000F0BAF8002803DB236D0344C3
:1046B000236510BDA38923F48053A38110BD00BFDF
:1046C0002DE9F0410C46B1F90C101F46CB0505460B
:1046D00016460BD421F48051A1813B463246284630
:1046E000B4F90E10BDE8F04100F0AEB8B4F90E1008
:1046F0000223002200F07CF8B4F90C10EAE700BFB6
:1047000010B50C46B1F90E1000F072F8B4F90C3087
:10471000421C0EBF23F4805343F480532065A381D1
:1047200010BD00BFB1F90E1000F050B870B586078B
:1047300047D0541E002A3ED00346CAB201E0013CD5
:1047400039D303F8012B9D07F9D1032C2CD9CDB215
:1047500005EB05250F2C1A4605EB054534D9A4F1C8
:10476000100C2CF00F0603F1100EB6444FEA1C1C7F
:10477000C2E90055C2E9025510327245F8D10CF178
:10478000010214F00C0F03EB021204F00F0C13D013
:10479000ACF1040323F003030433134442F8045B35
:1047A0009342FBD10CF003042CB1C9B21C4403F8B2
:1047B000011BA342FBD170BD64461346002CF4D10B
:1047C000F9E703461446C0E7A446E1E7002238B5FE
:1047D000064D044608462A60FCF720FE431C00D024
:1047E00038BD2B68002BFBD0236038BD7409002036
:1047F00038B50C46114600228446074D20462A60F3
:104800001A466446FCF714FE431C00D038BD2B68E2
:10481000002BFBD0236038BD7409002038B50C464E
:10482000114600228446074D20462A601A466446F7
:10483000FCF7D6FD431C00D038BD2B68002BFBD005
:10484000236038BD7409002038B50C46114600229B
:104850008446074D20462A601A466446FCF7D0FD80
:10486000431C00D038BD2B68002BFBD0236038BD23
:1048700074090020014B1868704700BF1C0000201D
:1048800070B50F4B0F4DAB42A3EB050607D00024CC
:10489000B61055F8043B01349847A642F9D805F004
:1048A0005FFE094D094B5E1BAB424FEAA60606D0E0
:1048B000002455F8043B01349847A642F9D870BD4E
:1048C000BCA90008BCA90008BCA90008C4A900082C
:1048D000704700BF704700BF704700BF704700BF00
:1048E00020F0030110F00300C0F1000051F8043B78
:1048F00000F1040C4FEACC0C6FF000021CBF22FA4E
:104900000CF213434FF0010C4CEA0C2C4CEA0C4C0B
:10491000A3EB0C0222EA030212EACC1204BF51F804
:10492000043B0430F4D0C2F1000102EA0102B2FA01
:1049300082F2C2F11F0200EBD2007047024B13B1AA
:10494000024800F005B8704700000000F16F000851
:10495000002301461A46184602F0EEBB2DE9F84343
:1049600006460820894602F057FB0546DFF8988086
:10497000304600F0FFFBD8F808305F6827F00307E7
:10498000A7F11104A4EB09042C44B4FBF5F4013C99
:1049900005FB04F4A54208DC0021304602F016FBBA
:1049A000D8F808303B44984205D0304600F0E8FB88
:1049B0000020BDE8F8833046614202F007FB013079
:1049C0000FD0124AD8F808303F1B47F001075F604C
:1049D000136830461B1B136000F0D2FB0120BDE8BA
:1049E000F8830021304602F0F1FAD8F80820831A43
:1049F0000F2BDADD43F001035360054B03491B68BD
:104A0000C01A0860D1E700BF7001002088090020AB
:104A10006401002000297CD0F8B50C46064600F061
:104A2000A9FB54F8043C764FA4F1080523F00101DA
:104A30006818D7F808C04268844522F0030200F0E5
:104A40008380DB07426000EB020C33D454F8084C3F
:104A5000DCF804302D1B2144AC6807F1080C6445D8
:104A600003F0010364D0D5F80CE0C4F80CE0CEF8F4
:104A70000840002B00F0818041F001036B60016071
:104A8000B1F5007F22D20122CB0849098A4079681A
:104A900001330A437A6057F8331007EBC302083A30
:104AA000C5E9021247F83350CD603046BDE8F84002
:104AB00000F066BBDCF80430DB072BD541F00103C6
:104AC000B1F5007F44F8043C0160DCD3B1F5206F00
:104AD0004FEA512353D28B0903F1390003F1380215
:104AE000C300F818FB580838984203D161E09B686E
:104AF000984204D05A6822F003028A42F7D8D86854
:104B0000C5E9023085603046DD60BDE8F84000F060
:104B100037BB7047114407F1080C836863453FD0E9
:104B2000C268DA60936041F001036B606950A7E7E7
:104B3000002B5FD10A44D0E90213CB60996042F0A8
:104B400001036B60AA50B0E70A44D90707D454F8B0
:104B5000083CED1A1A44D5E90213CB60996042F083
:104B600001036B60274BBD601B6893429DD8264BA9
:104B700030461968FFF7F2FE97E71144CDE7142B92
:104B800008D9542B1DD80B0B03F16F0003F16E02F3
:104B9000C300A6E703F15C0003F15B02C300A0E7DA
:104BA00041F00103C7E90455C5E902CC6B606950C7
:104BB0007BE70121921001FA02F279680A437A60D8
:104BC0009EE7B3F5AA7F06D8CB0B03F1780003F17B
:104BD0007702C30085E740F25452934206D88B0C0B
:104BE00003F17D0003F17C02C3007AE74FF47E738A
:104BF0007E2276E741F001036B60016055E700BF5C
:104C00007001002068010020B80900202DE9F04F54
:104C100001F10B05162D064683B024D8102900F2A9
:104C2000AD8000F0A7FA102518234FF0020CB84F02
:104C30003B445C68A3F10802944200F01D813046B9
:104C40006368E268A16823F00303CA6023449160AB
:104C50005A68083442F001025A6000F091FA204686
:104C600003B0BDE8F08F35F0070500F18780A94259
:104C700000F2848000F07EFAB5F5FC7FC0F06F8111
:104C80006B0A7FD0042B00F21E81AB0903F1390CB3
:104C900003F1380E4FEACC009D4F38444468083881
:104CA000A04207D10DE0002AE16880F2DF8088424F
:104CB00007D00C46636823F003035A1B0F2AF2DD6A
:104CC000F446DFF850823C69444500F0BC806368DC
:104CD00023F00309A9EB05030F2B00F34581002BFB
:104CE000C7E9048880F22F81B9F5007FD7F804E086
:104CF00080F0C98001234FEAD9014FEA59191944BC
:104D000003FA09F357F831204EEA030E07EBC1030B
:104D1000083BA260E360C7F804E047F83140D46084
:104D200001204FEAAC039840704532D810EA0E0FCC
:104D300007D12CF0030C400010EA0E0F0CF1040C0C
:104D4000F9D007EBCC0AD646E146DEF80C300BE092
:104D500059681C4621F003014A1B0F2ADB6800F347
:104D6000BF80002A80F2E2809E45F1D109F101095D
:104D700019F0030F0EF1080EE7D11FE10C23336089
:104D800000246CE74FF400704FF0400C4FF03F0EE2
:104D900082E7BC68636823F00309A94503D3A9EB44
:104DA00005030F2B52DC5C4B08201B6803F1100835
:104DB00004EB0903009302F02FF9584A8346136865
:104DC000A844013305D008F1FF388044434203EA88
:104DD00008084146304602F0F9F8B0F1FF3F82463C
:104DE0004E4A00F0DC8004EB0903834200F2D580D8
:104DF0004B4B0BF1FF31186840448446186040F07B
:104E0000FB801AEA010F40F0F780D7F808A0C844E9
:104E100048F00102CAF804205446424B1968814206
:104E200038BF1860404B1968814238BF186022F0C3
:104E30000308A845A8EB050301D30F2B06DC304679
:104E400000F09EF99CE7D7F804E069E7621943F0A7
:104E5000010345F0010565603046BA6008345360CF
:104E600000F08EF9204603B0BDE8F08FA26830460E
:104E7000D16023448A60EBE6DC68A3427FF4DFAEB6
:104E80000CF1020C1DE7B9F5206F4FEA59227DD3D2
:104E9000142A00F2118102F15C03DB005B32F91885
:104EA000FB580839994203D1ECE09B68994204D041
:104EB0005A6822F003024A45F7D8D968C4E902319A
:104EC0008C60DC602CE7142B6CD9542B00F2FD8035
:104ED0002B0B03F16F0C03F16E0E4FEACC00DBE6F7
:104EE000D4F808C03046661945F001056560CCF875
:104EF0000C30C3F808C042F00103C7E90466C6E9F4
:104F000002887360625000F03BF90834A7E600BFE6
:104F10007001002078010020B80900206401002001
:104F200088090020B4090020B009002021444A6803
:104F3000304642F001024A6054F8082FD3609A606C
:104F400000F01EF98BE6A144D9F80430304643F056
:104F50000103C9F8043000F013F908347FE64FEA82
:104F6000D50C05F1080362E6621943F0010145F032
:104F7000010565603046C7E90422C2E90288516034
:104F800044F8093000F0FCF8083468E64FEA99125A
:104F900002F13903DB00383281E7BC4224D0BC681F
:104FA000626844E703F15C0C03F15B0E4FEACC004E
:104FB00072E65AF80839534540F0D8801CF0030FC8
:104FC0000CF1FF3CF5D17B6823EA00037B604000D5
:104FD00098423FF6DEAE18B9DBE6400009F104095D
:104FE0001842FAD0CC46ACE6614B0BF1FF311868A1
:104FF00008EB000CC3F800C01068013070D004EB5F
:105000000902AAEB020262441A601AF00702CDE913
:10501000002340D0C2F108029244D04408EA0100C3
:105020005A44121A02EA010B5946304601F0CEFFEB
:10503000421C019B71D0A0EB0A0000EB0B08186822
:1050400048F001025844BC42C7F808A01860CAF8EA
:1050500004203FF4E1AEB9F10F0F44D94FF0050C35
:105060006168A9F10C0222F0070201F0010111436D
:1050700061600F2A04EB0201C1E901CC55D8DAF8CE
:105080000420C9E60120921000FA02F24EEA020E54
:10509000C7F804E012E70AEB08020A40ABEB020291
:1050A00002EA010B5946304601F090FF431C019B78
:1050B000C1D1DDF800B0C2E7542A18D84FEA19323E
:1050C00002F16F03DB006E32E9E6B3F5AA7F18D870
:1050D000EB0B03F1780C03F1770E4FEACC00DBE524
:1050E000C2F800A091E70123CAF80430A7E6B2F5A0
:1050F000AA7F25D84FEAD93202F17803DB00773254
:10510000CDE640F25452934225D8AB0C03F17D0C0E
:1051100003F17C0E4FEACC00BEE5009A4FF0000B85
:10512000083A9044A8EB0A0889E7304604F10801E0
:105130000093FFF76FFC009BD7F808A018689EE764
:1051400040F254539A420DD84FEA994202F17D033E
:10515000DB007C32A3E64FF47E704FF07F0C4FF003
:105160007E0E99E54FF47E737E2298E67B682EE7EB
:10517000880900200148FFF7AFBB00BF7809002075
:105180000148FFF7ABBB00BF780900202DE9F04FC5
:10519000DDB00C4691460D910F93834601F012FF4E
:1051A000036818461A93FFF79BFB0822189000210A
:1051B0002CA8FFF7BBFAA389180603D52369002B97
:1051C00000F01587002300249E46CDE931330023EB
:1051D00033AACDE91634DA4614464D46CDE91BEE26
:1051E0003092CDF864E0CDF880E0CDF874E0CDF8F1
:1051F00028E0CDF848E02F466E4BD3F8E46001F08C
:10520000DBFE0DF1B00C03463A46504628A9CDF816
:1052100000C0B047002800F09F80C0F29580289B16
:10522000252B01D00744E7E7B7EB0508064640F019
:10523000978000224FF0FF33934609937B787E1CC2
:105240008DF897200B9299460136A9F120035A2B2D
:1052500000F2B280DFE813F0F302B000B000EF021A
:10526000B000B000B000FD02B000B0006A0035022E
:10527000B0002702D202B000CE025B005B005B00F0
:105280005B005B005B005B005B005B00B000B0009C
:10529000B000B000B000B000B0002801B000AA011A
:1052A0003E02280128012801B000B000B000B00083
:1052B0003A02B000B000A802B000B000B000D001C7
:1052C000B000BC02B000B0008A06B000B000B00070
:1052D000B000B000B000B000B0002801B000AA01DA
:1052E00001022801280128012B0201027400B000EC
:1052F0006402B0005502AF066E027400B000D00127
:105300007200AC06B000B000B206B000720000221D
:10531000A9F1300316F8019B02EB820203EB420273
:10532000A9F13003092BF5D90B928EE70F9B53F8A7
:10533000042B002A0B920F93C0F2B281337882E7DC
:1053400033784BF0200B7EE7082200212CA8FFF7D2
:10535000EDF9012007444FE7B7EB0508064610D0EA
:10536000329BC4E9005843443293319B0133072BED
:10537000319315DC08340A9B43440A93002E7FF4D2
:1053800058AF329B002B41F05E810D9B9B8903F04F
:105390004003002B41F080830A985DB0BDE8F08F98
:1053A00050460D9930AA01F087FC0028EDD133ACAE
:1053B000E1E700BF780500201096B9F1000FE0D0BA
:1053C000012300228DF80C91069343AD8DF89720B0
:1053D0000C93CDE913220E92099211921BF0020355
:1053E00002D00699023106911BF08408329E05D145
:1053F0000B9906980F1A002F00F39B806AB10122C7
:105400006260319A013601320DF19701072A329616
:105410003192216000F3D883083463B102236360C2
:10542000319B0236013326AA072B32963193226034
:1054300000F3BF830834B8F1800F00F0BF82099BEE
:105440000C9A9F1A002F00F3F9821BF4807F40F022
:105450001E820C9B25601E446360319B3296013393
:10546000072B319300F33F8308341BF0040F05D062
:105470000B9B069A9D1A002D00F3B383DDE90A32D7
:1054800006998A42ACBF9B185B180A93002E40F025
:105490000883002331930E9B1BB150460E99FFF7F2
:1054A000B9FA33AC109DA6E60F9B1096073323F094
:1054B0000703F3E802670F9327F000431F931E963C
:1054C0004FF0FF32DDE91E01B24BCDE91667FBF765
:1054D000ADFC002840F0F484DDE91E014FF0FF32FE
:1054E000AC4BFBF785FC002840F0EA840022002347
:1054F00030463946FBF772FC002840F0B2879DF831
:10550000972000210320A44DA44B2BF0800B0E917B
:105510000690B9F1470FD8BF1D46CDE91311099187
:105520000C901191002A3FF459AF069B013306936A
:1055300054E7102F319A41F30D82DFF864C22146FF
:1055400030460D9C2E46CDF854C06546219304E0AC
:10555000103F102F01F1080116DD10230132103029
:10556000072ACDE931200D604B60F1DD2146504620
:1055700030AA01F0A1FB002840F09B82DDE9312038
:10558000103F102F33A9E8DC35460C460646219B18
:10559000013215993E44072ACDE931262160676022
:1055A00000F381869DF89720083427E70F9BB9F117
:1055B000430F109603F1040603D01BF0100F00F008
:1055C0000185082200212EA8FFF7B0F80F9A43ADFD
:1055D0002EAB29465046126803F0B8F90346013352
:1055E0000C9001F054820C9B23EAE3730693002293
:1055F0000F968DF89720ECE600230F9F109657F832
:10560000045B8DF89730002D00F00085B9F1530F41
:1056100000F094861BF01003119340F08F86099BD5
:10562000002BC1F21B801A462846119901F002FD99
:105630000E90002801F081820E9B11995B1B0C9348
:1056400023EAE3734FF07309CDE913119DF8972016
:105650000F97099106930E9164E71BF0200F1096A7
:105660003ED00F9B073323F007031846596850F8C4
:10567000083B0A460F900029C0F2CA830999002905
:10568000C0F2888253EA02012BF0800740F0838247
:10569000099A002A40F08482BB460C925CAD64E11A
:1056A0000B9B5B420B9333784BF0040BCBE53378C9
:1056B000682B03BF73784BF4007B01364BF0400B33
:1056C000C1E52B238DF897303378BCE533784BF068
:1056D000080BB8E54BF0100B1BF0200F1096C0D153
:1056E0000F9A1BF0100F52F8043B0F9240F0C28348
:1056F0001BF0400F00F0BA8343F3C03211461BB2D7
:10570000B9E71BF0200F109600F0C5830F9B0A9A93
:105710001B681A60D2175A600F9B04330F93C1E6BF
:1057200033786C2B03BF73784BF0200B01364BF0B2
:10573000100B88E547F630030F9AADF8983052F811
:10574000043B02210F924FF0780900221548109671
:105750004BF0020719900020099D8DF89700002D4D
:10576000C0F2EC8053EA020027F0800B40F0E580A5
:10577000002D40F0D285002940F0538317F001033B
:105780000C9300F0718330230DF26F158DF86F319B
:10579000EBE000BFFFFFEF7FA0A500089CA500087D
:1057A00080A70008ACA5000810964BF0100B1BF06A
:1057B000200200F012830F9B073323F007031946E2
:1057C0005A6851F8083B0F9100212BF48067C2E71B
:1057D00010964BF0100717F0200200F00B830F9B80
:1057E0000121073323F0070318465A6850F8083B95
:1057F0000F90B0E733784BF0800B24E5314611F879
:10580000019BB9F12A0F01F02882A9F13003092B7D
:1058100098BF002201F2A28011F8019B02EB8202E4
:1058200003EB4202A9F13003092BF5D942EAE273F6
:105830000E46099309E533784BF0010B03E59DF81B
:1058400097203378002A7FF4FEAC20228DF8972031
:10585000F9E4504601F0B6FB436818461D93FFF784
:105860003FF820900746504601F0ACFB83681B933D
:10587000002F3FF463AD1B9A3378002A3FF4E3AC6A
:105880001278002A3FF4DFAC4BF4806BDBE4B9F113
:10589000650F40F33781DDE9160100220023FBF795
:1058A00093FA002800F0D88101236360319B934A6A
:1058B00001330136072B32963193226000F3328593
:1058C0000834279B129A934280F2C982189B1A9A35
:1058D0001E44C4E90023319B32960133072B3193D8
:1058E00000F37A830834129B5D1E002D7FF7BDAD57
:1058F000102D319B40F3EB80DFF804921027DDF888
:105900003480CDF8549004E00834103D102D40F35D
:10591000E08001331036072BC4E90097CDE931361A
:10592000F2DD4146504630AA01F0C6F9002840F0A9
:10593000C080DDE9313633ACE7E75F46012900F08E
:105940002A8102295CAD1ED1199803F00F01415C38
:105950001B0943EA0273120905F8011D53EA02010B
:10596000F3D1BB465CAB5B1B0C93099A0C990023EB
:105970008A42B8BF0A46CDE9133306920E939DF8CA
:1059800097201193CEE503F00701DB0843EA427349
:10599000D208303153EA0206284605F8011DF2D13B
:1059A000FB07DED53029DCD03023023805F8013C76
:1059B0005CAB1B1ABB4605460C93D6E70B9B069ABD
:1059C0009F1A002F7FF73BAD102F319B41F35B8077
:1059D0004B48224631464FF0100806460D9C159064
:1059E00004E0103F102F02F1080214DD01331031E2
:1059F000072BC2E90068CDE93131F2DD214650467E
:105A000030AA01F059F9002853D1DDE93131103FB6
:105A1000102F33AAEADC14460E460133159A3E4491
:105A2000072BCDE931362260676000F3C084099B03
:105A30000C9A08349F1A002F7FF707AD304A102FB9
:105A4000319B159221DD32464FF010082E460D9DF8
:105A500004E0103F102F04F1080414DD013328493D
:105A60001032072BC4E90018CDE93132F1DD2946A7
:105A7000504630AA01F020F9D8B9DDE93132103FA3
:105A8000102F33ACEADC354616460133159A3E44F6
:105A9000072BCDE931362260676000F3928108342C
:105AA000D3E450460D9930AA01F006F900283FF4DE
:105AB000F0ACD3460E9B002B3FF467AC58460E99D2
:105AC000FEF7A8FF0D9B9B8903F0400361E40C4A9D
:105AD0001592159A01332E44072B22606560CDE99B
